{"contracts/OrahRouter02.sol":{"OrahRouter02":{"abi":[{"inputs":[{"internalType":"address","name":"_factory","type":"address"},{"internalType":"address","name":"_weth","type":"address"}],"stateMutability":"nonpayable","type":"constructor"},{"inputs":[{"internalType":"address","name":"token","type":"address"}],"name":"SafeERC20FailedOperation","type":"error"},{"inputs":[],"name":"WETH","outputs":[{"internalType":"address","name":"","type":"address"}],"stateMutability":"view","type":"function"},{"inputs":[{"internalType":"address","name":"tokenA","type":"address"},{"internalType":"address","name":"tokenB","type":"address"},{"internalType":"uint256","name":"amountADesired","type":"uint256"},{"internalType":"uint256","name":"amountBDesired","type":"uint256"},{"internalType":"uint256","name":"amountAMin","type":"uint256"},{"internalType":"uint256","name":"amountBMin","type":"uint256"},{"internalType":"address","name":"to","type":"address"},{"internalType":"uint256","name":"deadline","type":"uint256"}],"name":"addLiquidity","outputs":[{"internalType":"uint256","name":"amountA","type":"uint256"},{"internalType":"uint256","name":"amountB","type":"uint256"},{"internalType":"uint256","name":"liquidity","type":"uint256"}],"stateMutability":"nonpayable","type":"function"},{"inputs":[{"internalType":"address","name":"token","type":"address"},{"internalType":"uint256","name":"amountTokenDesired","type":"uint256"},{"internalType":"uint256","name":"amountTokenMin","type":"uint256"},{"internalType":"uint256","name":"amountETHMin","type":"uint256"},{"internalType":"address","name":"to","type":"address"},{"internalType":"uint256","name":"deadline","type":"uint256"}],"name":"addLiquidityETH","outputs":[{"internalType":"uint256","name":"amountToken","type":"uint256"},{"internalType":"uint256","name":"amountETH","type":"uint256"},{"internalType":"uint256","name":"liquidity","type":"uint256"}],"stateMutability":"payable","type":"function"},{"inputs":[],"name":"factory","outputs":[{"internalType":"address","name":"","type":"address"}],"stateMutability":"view","type":"function"},{"inputs":[{"internalType":"uint256","name":"amountOut","type":"uint256"},{"internalType":"uint256","name":"reserveIn","type":"uint256"},{"internalType":"uint256","name":"reserveOut","type":"uint256"}],"name":"getAmountIn","outputs":[{"internalType":"uint256","name":"","type":"uint256"}],"stateMutability":"pure","type":"function"},{"inputs":[{"internalType":"uint256","name":"amountIn","type":"uint256"},{"internalType":"uint256","name":"reserveIn","type":"uint256"},{"internalType":"uint256","name":"reserveOut","type":"uint256"}],"name":"getAmountOut","outputs":[{"internalType":"uint256","name":"","type":"uint256"}],"stateMutability":"pure","type":"function"},{"inputs":[{"internalType":"uint256","name":"amountOut","type":"uint256"},{"internalType":"address[]","name":"path","type":"address[]"}],"name":"getAmountsIn","outputs":[{"internalType":"uint256[]","name":"amounts","type":"uint256[]"}],"stateMutability":"view","type":"function"},{"inputs":[{"internalType":"uint256","name":"amountIn","type":"uint256"},{"internalType":"address[]","name":"path","type":"address[]"}],"name":"getAmountsOut","outputs":[{"internalType":"uint256[]","name":"amounts","type":"uint256[]"}],"stateMutability":"view","type":"function"},{"inputs":[{"internalType":"uint256","name":"amountA","type":"uint256"},{"internalType":"uint256","name":"reserveA","type":"uint256"},{"internalType":"uint256","name":"reserveB","type":"uint256"}],"name":"quote","outputs":[{"internalType":"uint256","name":"","type":"uint256"}],"stateMutability":"pure","type":"function"},{"inputs":[{"internalType":"address","name":"tokenA","type":"address"},{"internalType":"address","name":"tokenB","type":"address"},{"internalType":"uint256","name":"liquidity","type":"uint256"},{"internalType":"uint256","name":"amountAMin","type":"uint256"},{"internalType":"uint256","name":"amountBMin","type":"uint256"},{"internalType":"address","name":"to","type":"address"},{"internalType":"uint256","name":"deadline","type":"uint256"}],"name":"removeLiquidity","outputs":[{"internalType":"uint256","name":"amountA","type":"uint256"},{"internalType":"uint256","name":"amountB","type":"uint256"}],"stateMutability":"nonpayable","type":"function"},{"inputs":[{"internalType":"address","name":"token","type":"address"},{"internalType":"uint256","name":"liquidity","type":"uint256"},{"internalType":"uint256","name":"amountTokenMin","type":"uint256"},{"internalType":"uint256","name":"amountETHMin","type":"uint256"},{"internalType":"address","name":"to","type":"address"},{"internalType":"uint256","name":"deadline","type":"uint256"}],"name":"removeLiquidityETH","outputs":[{"internalType":"uint256","name":"amountToken","type":"uint256"},{"internalType":"uint256","name":"amountETH","type":"uint256"}],"stateMutability":"nonpayable","type":"function"},{"inputs":[{"internalType":"uint256","name":"amountOutMin","type":"uint256"},{"internalType":"address[]","name":"path","type":"address[]"},{"internalType":"address","name":"to","type":"address"},{"internalType":"uint256","name":"deadline","type":"uint256"}],"name":"swapExactETHForTokens","outputs":[{"internalType":"uint256[]","name":"amounts","type":"uint256[]"}],"stateMutability":"payable","type":"function"},{"inputs":[{"internalType":"uint256","name":"amountIn","type":"uint256"},{"internalType":"uint256","name":"amountOutMin","type":"uint256"},{"internalType":"address[]","name":"path","type":"address[]"},{"internalType":"address","name":"to","type":"address"},{"internalType":"uint256","name":"deadline","type":"uint256"}],"name":"swapExactTokensForETH","outputs":[{"internalType":"uint256[]","name":"amounts","type":"uint256[]"}],"stateMutability":"nonpayable","type":"function"},{"inputs":[{"internalType":"uint256","name":"amountIn","type":"uint256"},{"internalType":"uint256","name":"amountOutMin","type":"uint256"},{"internalType":"address[]","name":"path","type":"address[]"},{"internalType":"address","name":"to","type":"address"},{"internalType":"uint256","name":"deadline","type":"uint256"}],"name":"swapExactTokensForTokens","outputs":[{"internalType":"uint256[]","name":"amounts","type":"uint256[]"}],"stateMutability":"nonpayable","type":"function"},{"stateMutability":"payable","type":"receive"}],"evm":{"bytecode":{"linkReferences":{},"object":"60c034620000b357601f62001eed38819003918201601f19168301916001600160401b03831184841017620000b8578084926040948552833981010312620000b3576200005a60206200005283620000ce565b9201620000ce565b9060805260a052604051611e099081620000e4823960805181818161056b0152818161133d0152611489015260a051818181602401528181610121015281816106fc015281816107ae01528181610c200152610e5e0152f35b600080fd5b634e487b7160e01b600052604160045260246000fd5b51906001600160a01b0382168203620000b35756fe60406080815260049081361015610054575b5050361561001e57600080fd5b610052337f00000000000000000000000000000000000000000000000000000000000000006001600160a01b0316146111b6565b005b600091823560e01c806302751cec14610e32578063054d50d414610e1657806318cbafe514610bcf5780631f00ca7414610aee57806338ed1739146109b95780637ff36ab51461074757806385f8c2591461072b578063ad5c4648146106e7578063ad615dec146106c4578063baa2abde1461059e578063c45a015514610556578063d06ca61f14610472578063e8e33700146103575763f305d719146100fb5750610011565b61011f9161014a9161010c3661106d565b99949793999890989291924211156111d3565b7f00000000000000000000000000000000000000000000000000000000000000009834908a8961145c565b969095610157828761130d565b956001600160a01b03928391610174908a908a9033908616611261565b16803b15610349578551630d0e30db60e41b8152848187818d865af1801561034d579186918996959493610328575b50875163a9059cbb60e01b81526001600160a01b0390961691860191825260208281018c905295918691839182908890829060400103925af190811561031e57916101fa60249287959487916102f1575b506111b6565b848389519a8b9586946335313c2160e11b8652168a850152165af19485156102e55781956102b1575b5086341161024d575b505090519283525060208201929092526040810191909152606090f35b0390f35b80808061025a8a346117e0565b335af16102656117ed565b5015610271578061022c565b606492519162461bcd60e51b8352820152601d60248201527f4f726168526f757465723a204554485f524546554e445f4641494c45440000006044820152fd5b9094508181813d83116102de575b6102c9818361123f565b810103126102d957519338610223565b600080fd5b503d6102bf565b508351903d90823e3d90fd5b6103119150863d8811610317575b610309818361123f565b8101906117c8565b386101f4565b503d6102ff565b87513d86823e3d90fd5b859650610339919394959250611215565b61034957908487949392386101a3565b8380fd5b87513d87823e3d90fd5b50903461046e5761010036600319011261046e5761037361102d565b9261037c611043565b6001600160a01b039390929060c435858116908190036102d9576024602092856103f0986103ae4260e43510156111d3565b6103c660a4356084358d606435908d6044359161145c565b8c8b6103e7839f859f959e6103da9161130d565b9d8e809488339116611261565b84339116611261565b865198899586946335313c2160e11b8652850152165af1918215610463579161042e575b519283526020830193909352506040810191909152606090f35b90506020823d821161045b575b816104486020938361123f565b810103126102d957610249915190610414565b3d915061043b565b9051903d90823e3d90fd5b8280fd5b5091346105535761048236611182565b6104926002829594951015611879565b61049b816118dd565b936104a58561190f565b52825b600019820182811161054057811015610533576104ce6104c9828486611955565b611965565b6001820190818311610520579061051561050e6104fd61051b95946104f76104c9868a8c611955565b906115e1565b90610508868c611932565b51611979565b9188611932565b52611946565b6104a8565b634e487b7160e01b865260118952602486fd5b8551806102498782611147565b634e487b7160e01b855260118852602485fd5b80fd5b50503461059a578160031936011261059a57517f00000000000000000000000000000000000000000000000000000000000000006001600160a01b03168152602090f35b5080fd5b5082903461059a5760e036600319011261059a576105ba61102d565b916105c3611043565b906001600160a01b039060a435828116908190036102d95786906105eb4260c43510156111d3565b60246105f7868961130d565b9661060a8689169860443590338b611261565b848451988994859363226bf2d160e21b85528401525af19485156106b85781948296610681575b50808316938084168510156106795750905b50160361067457905b61065a6064358310156113b0565b610668608435821015611406565b82519182526020820152f35b61064c565b905090610643565b87809297508196503d83116106b1575b61069b818361123f565b8101031261055357602084519401519487610631565b503d610691565b508551903d90823e3d90fd5b50503461059a576020906106e06106da366110ad565b91611750565b9051908152f35b50503461059a578160031936011261059a57517f00000000000000000000000000000000000000000000000000000000000000006001600160a01b03168152602090f35b50503461059a576020906106e0610741366110ad565b91611a85565b5090608036600319011261046e5760243567ffffffffffffffff81116103495761077490369084016110c7565b6001600160a01b039360443592919085841684036102d95761079a4260643510156111d3565b81156109a6576107d86107ac84611965565b7f0000000000000000000000000000000000000000000000000000000000000000881697168714611879565b845163d06ca61f60e01b8152958787806107f6868834888501611b74565b0381305afa96871561099c578897610978575b508651600019810190811161096557610830906108288435918a611932565b511015611a2a565b8761083a8861190f565b51823b1561059a57818491895192838092630d0e30db60e41b8252875af1801561095b57610943575b505061086e84611965565b836001101561093057916020916108936108cf9461088d858901611965565b9061130d565b8a61089d8b61190f565b518a5163a9059cbb60e01b81526001600160a01b03909316948301948552602085015290948593849291839160400190565b03925af190811561092657916108f76109049594926108fe946102499a9161090e57506111b6565b3691611bc8565b84611c1e565b5191829182611147565b610311915060203d811161031757610309818361123f565b85513d89823e3d90fd5b634e487b7160e01b895260328352602489fd5b61094c90611215565b610957578738610863565b8780fd5b88513d84823e3d90fd5b634e487b7160e01b895260118352602489fd5b6109959197503d808a833e61098d818361123f565b810190611afa565b9538610809565b86513d8a823e3d90fd5b634e487b7160e01b875260329052602486fd5b50903461046e57826109e292936109cf366110f8565b98839997949396929591974211156111d3565b896109ff868a519b8c94859463d06ca61f60e01b86528501611b74565b0381305afa968715610ae4578297610ac8575b5086516000198101908111610ab55790610828610a2f9289611932565b8115610aa2576001600160a01b03610a4684611965565b1690610a5184611965565b908360011015610a8f576102498888610904896108fe8a8a6108f78b610a7d8c61088d60208701611965565b610a868a61190f565b51913390611261565b634e487b7160e01b815260328952602490fd5b634e487b7160e01b815260328752602490fd5b634e487b7160e01b835260118952602483fd5b610add9197503d8084833e61098d818361123f565b9538610a12565b86513d84823e3d90fd5b5091903461059a57610aff36611182565b93909194610b106002861015611879565b610b19856118dd565b9485519660001997888101908111610bbc57610b359088611932565b52868101818111610ba957805b610b53578551806102498982611147565b878101818111610bbc57610b9a610b93610b82610b746104c985888c611955565b6104f76104c987898d611955565b90610b8d868d611932565b51611a85565b9189611932565b528015610ba957870180610b42565b634e487b7160e01b845260118352602484fd5b634e487b7160e01b855260118452602485fd5b50903461046e57610bf29192610be4366110f8565b9790949192974211156111d3565b60001992828401838111610e035791889187610c166104c98796610c4e9887611955565b6001600160a01b037f000000000000000000000000000000000000000000000000000000000000000081169790949185168814611879565b8c610c6b878d519e8f94859463d06ca61f60e01b86528501611b74565b0381305afa998a15610df957889a610ddd575b508951868101908111610dca5790610828610c99928c611932565b8215610db757610ca882611965565b16610cb282611965565b8360011015610da45791610ce0610ce992610cd7610cef969561088d60208601611965565b610a868d61190f565b30923691611bc8565b88611c1e565b855182810190811161054057610d059087611932565b51813b15610da05784916024839288519485938492632e1a7d4d60e01b84528d8401525af18015610d9657908491610d82575b50508451908101908111610d6f5761024995509180808093610d5d6109049689611932565b51905af1610d696117ed565b5061182d565b634e487b7160e01b835260118652602483fd5b610d8b90611215565b61046e578238610d38565b85513d86823e3d90fd5b8480fd5b634e487b7160e01b885260328b52602488fd5b634e487b7160e01b875260328a52602487fd5b634e487b7160e01b895260118c52602489fd5b610df2919a503d808a833e61098d818361123f565b9838610c7e565b89513d8a823e3d90fd5b634e487b7160e01b875260118a52602487fd5b50503461059a576020906106e0610e2c366110ad565b91611979565b5082903461059a5781610e443661106d565b969296949391909442111590610e59826111d3565b610e837f0000000000000000000000000000000000000000000000000000000000000000926111d3565b89610e8e838761130d565b6001600160a01b039481861691610ea791903384611261565b60248251809c819363226bf2d160e21b8352308a8401525af1988915611023578790889a610fe9575b50838084169681811694888610600014610fe257505b168303610fd35790610f00610f08929a995b8b10156113b0565b881015611406565b885163a9059cbb60e01b87529185168352602488905260208660448180855af16001875114811615610fb4575b828a5215610fa2575050813b15610349578460248592838a519586948593632e1a7d4d60e01b85528401525af18015610f98579161066893918593610f85575b5081809381925af1610d696117ed565b610f9190929192611215565b9087610f75565b86513d85823e3d90fd5b602492635274afe760e01b8352820152fd5b6001811516610fca57813b15153d151616610f35565b823d88823e3d90fd5b97610f089190610f0090610ef8565b9050610ee6565b809a508b8092503d831161101c575b611002818361123f565b810103126110185760208951990151988b610ed0565b8680fd5b503d610ff8565b8a513d89823e3d90fd5b600435906001600160a01b03821682036102d957565b602435906001600160a01b03821682036102d957565b35906001600160a01b03821682036102d957565b60c09060031901126102d9576001600160a01b0360043581811681036102d9579160243591604435916064359160843590811681036102d9579060a43590565b60609060031901126102d957600435906024359060443590565b9181601f840112156102d95782359167ffffffffffffffff83116102d9576020808501948460051b0101116102d957565b60a06003198201126102d95760043591602435916044359067ffffffffffffffff82116102d95761112b916004016110c7565b90916064356001600160a01b03811681036102d9579060843590565b6020908160408183019282815285518094520193019160005b82811061116e575050505090565b835185529381019392810192600101611160565b9060406003198301126102d957600435916024359067ffffffffffffffff82116102d9576111b2916004016110c7565b9091565b156111bd57565b634e487b7160e01b600052600160045260246000fd5b156111da57565b60405162461bcd60e51b815260206004820152601360248201527213dc985a149bdd5d195c8e8811561412549151606a1b6044820152606490fd5b67ffffffffffffffff811161122957604052565b634e487b7160e01b600052604160045260246000fd5b90601f8019910116810190811067ffffffffffffffff82111761122957604052565b6040516323b872dd60e01b60009081526001600160a01b03938416600452938316602452604494909452909160209060648180855af16001600051148116156112ce575b836040526000606052156112b857505050565b635274afe760e01b835216600482015260249150fd5b60018115166112e457813b15153d1516166112a5565b833d6000823e3d90fd5b908160209103126102d957516001600160a01b03811681036102d95790565b60405163e6a4390560e01b81526001600160a01b03918216600482015291166024820152602081806044810103817f00000000000000000000000000000000000000000000000000000000000000006001600160a01b03165afa9081156113a457600091611379575090565b61139a915060203d811161139d575b611392818361123f565b8101906112ee565b90565b503d611388565b6040513d6000823e3d90fd5b156113b757565b60405162461bcd60e51b815260206004820152602160248201527f4f726168526f757465723a20494e53554646494349454e545f415f414d4f554e6044820152601560fa1b6064820152608490fd5b1561140d57565b60405162461bcd60e51b815260206004820152602160248201527f4f726168526f757465723a20494e53554646494349454e545f425f414d4f554e6044820152601560fa1b6064820152608490fd5b60405163e6a4390560e01b81526001600160a01b03828116600483015283811660248301529396949594937f00000000000000000000000000000000000000000000000000000000000000008116939291602091908281604481895afa9081156113a4576000916115b0575b501615611549575b506114db92506115e1565b9290801580611541575b156114f257505050509091565b61150184828897959697611750565b9483861161151957505050506111b290821015611406565b8395506111b2945090611530916115399394611750565b948511156111b6565b8310156113b0565b5083156114e5565b6040516364e329cb60e11b81526001600160a01b03838116600483015284166024820152938190859060449082906000905af19384156113a4576114db94611592575b506114d0565b816115a892903d1061139d57611392818361123f565b50388061158c565b6115c79150833d851161139d57611392818361123f565b386114c8565b51906001600160701b03821682036102d957565b906004906001600160a01b0380841691606090829061160a908281168610156116a9578761130d565b1660405194858092630240bc6b60e21b82525afa9384156113a457600093849561164d575b50160361164857905b6001600160701b03809116911691565b611638565b939094506060843d82116116a1575b816116696060938361123f565b810103126105535761167a846115cd565b906040611689602087016115cd565b95015163ffffffff811603610553575092933861162f565b3d915061165c565b809761130d565b156116b757565b60405162461bcd60e51b815260206004820152602260248201527f4f726168526f757465723a20494e53554646494349454e545f4c495155494449604482015261545960f01b6064820152608490fd5b8181029291811591840414171561171a57565b634e487b7160e01b600052601160045260246000fd5b811561173a570490565b634e487b7160e01b600052601260045260246000fd5b80156117835761139a92611775918315158061177a575b611770906116b0565b611707565b611730565b50811515611767565b60405162461bcd60e51b815260206004820152601f60248201527f4f726168526f757465723a20494e53554646494349454e545f414d4f554e54006044820152606490fd5b908160209103126102d9575180151581036102d95790565b9190820391821161171a57565b3d15611828573d9067ffffffffffffffff8211611229576040519161181c601f8201601f19166020018461123f565b82523d6000602084013e565b606090565b1561183457565b60405162461bcd60e51b815260206004820152601f60248201527f4f726168526f757465723a204554485f5452414e534645525f4641494c4544006044820152606490fd5b1561188057565b60405162461bcd60e51b815260206004820152601860248201527f4f726168526f757465723a20494e56414c49445f5041544800000000000000006044820152606490fd5b67ffffffffffffffff81116112295760051b60200190565b906118e7826118c5565b6118f4604051918261123f565b8281528092611905601f19916118c5565b0190602036910137565b80511561191c5760200190565b634e487b7160e01b600052603260045260246000fd5b805182101561191c5760209160051b010190565b600019811461171a5760010190565b919081101561191c5760051b0190565b356001600160a01b03811681036102d95790565b80156119d7578115928315806119ce575b611993906116b0565b6103e58083029283040361171a576119ab9082611707565b926103e880840293840414171561171a57810180911161171a5761139a91611730565b5080151561198a565b60405162461bcd60e51b815260206004820152602560248201527f4f726168526f757465723a20494e53554646494349454e545f494e5055545f416044820152641353d5539560da1b6064820152608490fd5b15611a3157565b60405162461bcd60e51b815260206004820152602660248201527f4f726168526f757465723a20494e53554646494349454e545f4f55545055545f604482015265105353d5539560d21b6064820152608490fd5b919082611aa891611a97821515611a2a565b80151580611af157611770906116b0565b916103e89283810293818504149015171561171a57611ac6916117e0565b6103e59081810291818304149015171561171a57611ae391611730565b6001810180911161171a5790565b50831515611767565b60209081818403126102d95780519067ffffffffffffffff82116102d957019180601f840112156102d9578251611b30816118c5565b93611b3e604051958661123f565b818552838086019260051b8201019283116102d9578301905b828210611b65575050505090565b81518152908301908301611b57565b6060909391929360408101938152826020946040868401525201929160005b828110611ba1575050505090565b909192938280600192838060a01b03611bb989611059565b16815201950193929101611b93565b9291611bd3826118c5565b91611be1604051938461123f565b829481845260208094019160051b81019283116102d957905b828210611c075750505050565b838091611c1384611059565b815201910190611bfa565b90929160005b8451600019810190811161171a57811015611dcc576001600160a01b0380611c4c8388611932565b511690600183019182841161171a5781611c66848a611932565b51169081811015611dc15782611c7e82955b89611932565b5194168103611db957600093915b8951600119810190811161171a578490871015611dad57506002860180871161171a578491611cca83611cc2611cd0948f611932565b51168261130d565b9361130d565b169160409384519260209283850185811067ffffffffffffffff82111761122957875260008552853b156102d957865163022c0d9f60e01b8152600481019890985260248801521660448601526080606486015281516084860181905291928592909160005b828110611d96575050600080945083918260a49183838284010152601f801991011681010301925af1908115611d8c575090611d789291611d7d575b50611946565b611c24565b611d8690611215565b38611d72565b513d6000823e3d90fd5b80860182015188820160a401528794508101611d36565b90611cd090889361130d565b600091611c8c565b82611c7e8395611c78565b505050905056fea26469706673582212206a1ac066cb094301385fe31104d2931cfe38ac6d8db065518fe809772519d2e064736f6c63430008140033","opcodes":"PUSH1 0xC0 CALLVALUE PUSH3 0xB3 JUMPI PUSH1 0x1F PUSH3 0x1EED CODESIZE DUP2 SWAP1 SUB SWAP2 DUP3 ADD PUSH1 0x1F NOT AND DUP4 ADD SWAP2 PUSH1 0x1 PUSH1 0x1 PUSH1 0x40 SHL SUB DUP4 GT DUP5 DUP5 LT OR PUSH3 0xB8 JUMPI DUP1 DUP5 SWAP3 PUSH1 0x40 SWAP5 DUP6 MSTORE DUP4 CODECOPY DUP2 ADD SUB SLT PUSH3 0xB3 JUMPI PUSH3 0x5A PUSH1 0x20 PUSH3 0x52 DUP4 PUSH3 0xCE JUMP JUMPDEST SWAP3 ADD PUSH3 0xCE JUMP JUMPDEST SWAP1 PUSH1 0x80 MSTORE PUSH1 0xA0 MSTORE PUSH1 0x40 MLOAD PUSH2 0x1E09 SWAP1 DUP2 PUSH3 0xE4 DUP3 CODECOPY PUSH1 0x80 MLOAD DUP2 DUP2 DUP2 PUSH2 0x56B ADD MSTORE DUP2 DUP2 PUSH2 0x133D ADD MSTORE PUSH2 0x1489 ADD MSTORE PUSH1 0xA0 MLOAD DUP2 DUP2 DUP2 PUSH1 0x24 ADD MSTORE DUP2 DUP2 PUSH2 0x121 ADD MSTORE DUP2 DUP2 PUSH2 0x6FC ADD MSTORE DUP2 DUP2 PUSH2 0x7AE ADD MSTORE DUP2 DUP2 PUSH2 0xC20 ADD MSTORE PUSH2 0xE5E ADD MSTORE RETURN JUMPDEST PUSH1 0x0 DUP1 REVERT JUMPDEST PUSH4 0x4E487B71 PUSH1 0xE0 SHL PUSH1 0x0 MSTORE PUSH1 0x41 PUSH1 0x4 MSTORE PUSH1 0x24 PUSH1 0x0 REVERT JUMPDEST MLOAD SWAP1 PUSH1 0x1 PUSH1 0x1 PUSH1 0xA0 SHL SUB DUP3 AND DUP3 SUB PUSH3 0xB3 JUMPI JUMP INVALID PUSH1 0x40 PUSH1 0x80 DUP2 MSTORE PUSH1 0x4 SWAP1 DUP2 CALLDATASIZE LT ISZERO PUSH2 0x54 JUMPI JUMPDEST POP POP CALLDATASIZE ISZERO PUSH2 0x1E JUMPI PUSH1 0x0 DUP1 REVERT JUMPDEST PUSH2 0x52 CALLER PUSH32 0x0 PUSH1 0x1 PUSH1 0x1 PUSH1 0xA0 SHL SUB AND EQ PUSH2 0x11B6 JUMP JUMPDEST STOP JUMPDEST PUSH1 0x0 SWAP2 DUP3 CALLDATALOAD PUSH1 0xE0 SHR DUP1 PUSH4 0x2751CEC EQ PUSH2 0xE32 JUMPI DUP1 PUSH4 0x54D50D4 EQ PUSH2 0xE16 JUMPI DUP1 PUSH4 0x18CBAFE5 EQ PUSH2 0xBCF JUMPI DUP1 PUSH4 0x1F00CA74 EQ PUSH2 0xAEE JUMPI DUP1 PUSH4 0x38ED1739 EQ PUSH2 0x9B9 JUMPI DUP1 PUSH4 0x7FF36AB5 EQ PUSH2 0x747 JUMPI DUP1 PUSH4 0x85F8C259 EQ PUSH2 0x72B JUMPI DUP1 PUSH4 0xAD5C4648 EQ PUSH2 0x6E7 JUMPI DUP1 PUSH4 0xAD615DEC EQ PUSH2 0x6C4 JUMPI DUP1 PUSH4 0xBAA2ABDE EQ PUSH2 0x59E JUMPI DUP1 PUSH4 0xC45A0155 EQ PUSH2 0x556 JUMPI DUP1 PUSH4 0xD06CA61F EQ PUSH2 0x472 JUMPI DUP1 PUSH4 0xE8E33700 EQ PUSH2 0x357 JUMPI PUSH4 0xF305D719 EQ PUSH2 0xFB JUMPI POP PUSH2 0x11 JUMP JUMPDEST PUSH2 0x11F SWAP2 PUSH2 0x14A SWAP2 PUSH2 0x10C CALLDATASIZE PUSH2 0x106D JUMP JUMPDEST SWAP10 SWAP5 SWAP8 SWAP4 SWAP10 SWAP9 SWAP1 SWAP9 SWAP3 SWAP2 SWAP3 TIMESTAMP GT ISZERO PUSH2 0x11D3 JUMP JUMPDEST PUSH32 0x0 SWAP9 CALLVALUE SWAP1 DUP11 DUP10 PUSH2 0x145C JUMP JUMPDEST SWAP7 SWAP1 SWAP6 PUSH2 0x157 DUP3 DUP8 PUSH2 0x130D JUMP JUMPDEST SWAP6 PUSH1 0x1 PUSH1 0x1 PUSH1 0xA0 SHL SUB SWAP3 DUP4 SWAP2 PUSH2 0x174 SWAP1 DUP11 SWAP1 DUP11 SWAP1 CALLER SWAP1 DUP7 AND PUSH2 0x1261 JUMP JUMPDEST AND DUP1 EXTCODESIZE ISZERO PUSH2 0x349 JUMPI DUP6 MLOAD PUSH4 0xD0E30DB PUSH1 0xE4 SHL DUP2 MSTORE DUP5 DUP2 DUP8 DUP2 DUP14 DUP7 GAS CALL DUP1 ISZERO PUSH2 0x34D JUMPI SWAP2 DUP7 SWAP2 DUP10 SWAP7 SWAP6 SWAP5 SWAP4 PUSH2 0x328 JUMPI JUMPDEST POP DUP8 MLOAD PUSH4 0xA9059CBB PUSH1 0xE0 SHL DUP2 MSTORE PUSH1 0x1 PUSH1 0x1 PUSH1 0xA0 SHL SUB SWAP1 SWAP7 AND SWAP2 DUP7 ADD SWAP2 DUP3 MSTORE PUSH1 0x20 DUP3 DUP2 ADD DUP13 SWAP1 MSTORE SWAP6 SWAP2 DUP7 SWAP2 DUP4 SWAP2 DUP3 SWAP1 DUP9 SWAP1 DUP3 SWAP1 PUSH1 0x40 ADD SUB SWAP3 GAS CALL SWAP1 DUP2 ISZERO PUSH2 0x31E JUMPI SWAP2 PUSH2 0x1FA PUSH1 0x24 SWAP3 DUP8 SWAP6 SWAP5 DUP8 SWAP2 PUSH2 0x2F1 JUMPI JUMPDEST POP PUSH2 0x11B6 JUMP JUMPDEST DUP5 DUP4 DUP10 MLOAD SWAP11 DUP12 SWAP6 DUP7 SWAP5 PUSH4 0x35313C21 PUSH1 0xE1 SHL DUP7 MSTORE AND DUP11 DUP6 ADD MSTORE AND GAS CALL SWAP5 DUP6 ISZERO PUSH2 0x2E5 JUMPI DUP2 SWAP6 PUSH2 0x2B1 JUMPI JUMPDEST POP DUP7 CALLVALUE GT PUSH2 0x24D JUMPI JUMPDEST POP POP SWAP1 MLOAD SWAP3 DUP4 MSTORE POP PUSH1 0x20 DUP3 ADD SWAP3 SWAP1 SWAP3 MSTORE PUSH1 0x40 DUP2 ADD SWAP2 SWAP1 SWAP2 MSTORE PUSH1 0x60 SWAP1 RETURN JUMPDEST SUB SWAP1 RETURN JUMPDEST DUP1 DUP1 DUP1 PUSH2 0x25A DUP11 CALLVALUE PUSH2 0x17E0 JUMP JUMPDEST CALLER GAS CALL PUSH2 0x265 PUSH2 0x17ED JUMP JUMPDEST POP ISZERO PUSH2 0x271 JUMPI DUP1 PUSH2 0x22C JUMP JUMPDEST PUSH1 0x64 SWAP3 MLOAD SWAP2 PUSH3 0x461BCD PUSH1 0xE5 SHL DUP4 MSTORE DUP3 ADD MSTORE PUSH1 0x1D PUSH1 0x24 DUP3 ADD MSTORE PUSH32 0x4F726168526F757465723A204554485F524546554E445F4641494C4544000000 PUSH1 0x44 DUP3 ADD MSTORE REVERT JUMPDEST SWAP1 SWAP5 POP DUP2 DUP2 DUP2 RETURNDATASIZE DUP4 GT PUSH2 0x2DE JUMPI JUMPDEST PUSH2 0x2C9 DUP2 DUP4 PUSH2 0x123F JUMP JUMPDEST DUP2 ADD SUB SLT PUSH2 0x2D9 JUMPI MLOAD SWAP4 CODESIZE PUSH2 0x223 JUMP JUMPDEST PUSH1 0x0 DUP1 REVERT JUMPDEST POP RETURNDATASIZE PUSH2 0x2BF JUMP JUMPDEST POP DUP4 MLOAD SWAP1 RETURNDATASIZE SWAP1 DUP3 RETURNDATACOPY RETURNDATASIZE SWAP1 REVERT JUMPDEST PUSH2 0x311 SWAP2 POP DUP7 RETURNDATASIZE DUP9 GT PUSH2 0x317 JUMPI JUMPDEST PUSH2 0x309 DUP2 DUP4 PUSH2 0x123F JUMP JUMPDEST DUP2 ADD SWAP1 PUSH2 0x17C8 JUMP JUMPDEST CODESIZE PUSH2 0x1F4 JUMP JUMPDEST POP RETURNDATASIZE PUSH2 0x2FF JUMP JUMPDEST DUP8 MLOAD RETURNDATASIZE DUP7 DUP3 RETURNDATACOPY RETURNDATASIZE SWAP1 REVERT JUMPDEST DUP6 SWAP7 POP PUSH2 0x339 SWAP2 SWAP4 SWAP5 SWAP6 SWAP3 POP PUSH2 0x1215 JUMP JUMPDEST PUSH2 0x349 JUMPI SWAP1 DUP5 DUP8 SWAP5 SWAP4 SWAP3 CODESIZE PUSH2 0x1A3 JUMP JUMPDEST DUP4 DUP1 REVERT JUMPDEST DUP8 MLOAD RETURNDATASIZE DUP8 DUP3 RETURNDATACOPY RETURNDATASIZE SWAP1 REVERT JUMPDEST POP SWAP1 CALLVALUE PUSH2 0x46E JUMPI PUSH2 0x100 CALLDATASIZE PUSH1 0x3 NOT ADD SLT PUSH2 0x46E JUMPI PUSH2 0x373 PUSH2 0x102D JUMP JUMPDEST SWAP3 PUSH2 0x37C PUSH2 0x1043 JUMP JUMPDEST PUSH1 0x1 PUSH1 0x1 PUSH1 0xA0 SHL SUB SWAP4 SWAP1 SWAP3 SWAP1 PUSH1 0xC4 CALLDATALOAD DUP6 DUP2 AND SWAP1 DUP2 SWAP1 SUB PUSH2 0x2D9 JUMPI PUSH1 0x24 PUSH1 0x20 SWAP3 DUP6 PUSH2 0x3F0 SWAP9 PUSH2 0x3AE TIMESTAMP PUSH1 0xE4 CALLDATALOAD LT ISZERO PUSH2 0x11D3 JUMP JUMPDEST PUSH2 0x3C6 PUSH1 0xA4 CALLDATALOAD PUSH1 0x84 CALLDATALOAD DUP14 PUSH1 0x64 CALLDATALOAD SWAP1 DUP14 PUSH1 0x44 CALLDATALOAD SWAP2 PUSH2 0x145C JUMP JUMPDEST DUP13 DUP12 PUSH2 0x3E7 DUP4 SWAP16 DUP6 SWAP16 SWAP6 SWAP15 PUSH2 0x3DA SWAP2 PUSH2 0x130D JUMP JUMPDEST SWAP14 DUP15 DUP1 SWAP5 DUP9 CALLER SWAP2 AND PUSH2 0x1261 JUMP JUMPDEST DUP5 CALLER SWAP2 AND PUSH2 0x1261 JUMP JUMPDEST DUP7 MLOAD SWAP9 DUP10 SWAP6 DUP7 SWAP5 PUSH4 0x35313C21 PUSH1 0xE1 SHL DUP7 MSTORE DUP6 ADD MSTORE AND GAS CALL SWAP2 DUP3 ISZERO PUSH2 0x463 JUMPI SWAP2 PUSH2 0x42E JUMPI JUMPDEST MLOAD SWAP3 DUP4 MSTORE PUSH1 0x20 DUP4 ADD SWAP4 SWAP1 SWAP4 MSTORE POP PUSH1 0x40 DUP2 ADD SWAP2 SWAP1 SWAP2 MSTORE PUSH1 0x60 SWAP1 RETURN JUMPDEST SWAP1 POP PUSH1 0x20 DUP3 RETURNDATASIZE DUP3 GT PUSH2 0x45B JUMPI JUMPDEST DUP2 PUSH2 0x448 PUSH1 0x20 SWAP4 DUP4 PUSH2 0x123F JUMP JUMPDEST DUP2 ADD SUB SLT PUSH2 0x2D9 JUMPI PUSH2 0x249 SWAP2 MLOAD SWAP1 PUSH2 0x414 JUMP JUMPDEST RETURNDATASIZE SWAP2 POP PUSH2 0x43B JUMP JUMPDEST SWAP1 MLOAD SWAP1 RETURNDATASIZE SWAP1 DUP3 RETURNDATACOPY RETURNDATASIZE SWAP1 REVERT JUMPDEST DUP3 DUP1 REVERT JUMPDEST POP SWAP2 CALLVALUE PUSH2 0x553 JUMPI PUSH2 0x482 CALLDATASIZE PUSH2 0x1182 JUMP JUMPDEST PUSH2 0x492 PUSH1 0x2 DUP3 SWAP6 SWAP5 SWAP6 LT ISZERO PUSH2 0x1879 JUMP JUMPDEST PUSH2 0x49B DUP2 PUSH2 0x18DD JUMP JUMPDEST SWAP4 PUSH2 0x4A5 DUP6 PUSH2 0x190F JUMP JUMPDEST MSTORE DUP3 JUMPDEST PUSH1 0x0 NOT DUP3 ADD DUP3 DUP2 GT PUSH2 0x540 JUMPI DUP2 LT ISZERO PUSH2 0x533 JUMPI PUSH2 0x4CE PUSH2 0x4C9 DUP3 DUP5 DUP7 PUSH2 0x1955 JUMP JUMPDEST PUSH2 0x1965 JUMP JUMPDEST PUSH1 0x1 DUP3 ADD SWAP1 DUP2 DUP4 GT PUSH2 0x520 JUMPI SWAP1 PUSH2 0x515 PUSH2 0x50E PUSH2 0x4FD PUSH2 0x51B SWAP6 SWAP5 PUSH2 0x4F7 PUSH2 0x4C9 DUP7 DUP11 DUP13 PUSH2 0x1955 JUMP JUMPDEST SWAP1 PUSH2 0x15E1 JUMP JUMPDEST SWAP1 PUSH2 0x508 DUP7 DUP13 PUSH2 0x1932 JUMP JUMPDEST MLOAD PUSH2 0x1979 JUMP JUMPDEST SWAP2 DUP9 PUSH2 0x1932 JUMP JUMPDEST MSTORE PUSH2 0x1946 JUMP JUMPDEST PUSH2 0x4A8 JUMP JUMPDEST PUSH4 0x4E487B71 PUSH1 0xE0 SHL DUP7 MSTORE PUSH1 0x11 DUP10 MSTORE PUSH1 0x24 DUP7 REVERT JUMPDEST DUP6 MLOAD DUP1 PUSH2 0x249 DUP8 DUP3 PUSH2 0x1147 JUMP JUMPDEST PUSH4 0x4E487B71 PUSH1 0xE0 SHL DUP6 MSTORE PUSH1 0x11 DUP9 MSTORE PUSH1 0x24 DUP6 REVERT JUMPDEST DUP1 REVERT JUMPDEST POP POP CALLVALUE PUSH2 0x59A JUMPI DUP2 PUSH1 0x3 NOT CALLDATASIZE ADD SLT PUSH2 0x59A JUMPI MLOAD PUSH32 0x0 PUSH1 0x1 PUSH1 0x1 PUSH1 0xA0 SHL SUB AND DUP2 MSTORE PUSH1 0x20 SWAP1 RETURN JUMPDEST POP DUP1 REVERT JUMPDEST POP DUP3 SWAP1 CALLVALUE PUSH2 0x59A JUMPI PUSH1 0xE0 CALLDATASIZE PUSH1 0x3 NOT ADD SLT PUSH2 0x59A JUMPI PUSH2 0x5BA PUSH2 0x102D JUMP JUMPDEST SWAP2 PUSH2 0x5C3 PUSH2 0x1043 JUMP JUMPDEST SWAP1 PUSH1 0x1 PUSH1 0x1 PUSH1 0xA0 SHL SUB SWAP1 PUSH1 0xA4 CALLDATALOAD DUP3 DUP2 AND SWAP1 DUP2 SWAP1 SUB PUSH2 0x2D9 JUMPI DUP7 SWAP1 PUSH2 0x5EB TIMESTAMP PUSH1 0xC4 CALLDATALOAD LT ISZERO PUSH2 0x11D3 JUMP JUMPDEST PUSH1 0x24 PUSH2 0x5F7 DUP7 DUP10 PUSH2 0x130D JUMP JUMPDEST SWAP7 PUSH2 0x60A DUP7 DUP10 AND SWAP9 PUSH1 0x44 CALLDATALOAD SWAP1 CALLER DUP12 PUSH2 0x1261 JUMP JUMPDEST DUP5 DUP5 MLOAD SWAP9 DUP10 SWAP5 DUP6 SWAP4 PUSH4 0x226BF2D1 PUSH1 0xE2 SHL DUP6 MSTORE DUP5 ADD MSTORE GAS CALL SWAP5 DUP6 ISZERO PUSH2 0x6B8 JUMPI DUP2 SWAP5 DUP3 SWAP7 PUSH2 0x681 JUMPI JUMPDEST POP DUP1 DUP4 AND SWAP4 DUP1 DUP5 AND DUP6 LT ISZERO PUSH2 0x679 JUMPI POP SWAP1 JUMPDEST POP AND SUB PUSH2 0x674 JUMPI SWAP1 JUMPDEST PUSH2 0x65A PUSH1 0x64 CALLDATALOAD DUP4 LT ISZERO PUSH2 0x13B0 JUMP JUMPDEST PUSH2 0x668 PUSH1 0x84 CALLDATALOAD DUP3 LT ISZERO PUSH2 0x1406 JUMP JUMPDEST DUP3 MLOAD SWAP2 DUP3 MSTORE PUSH1 0x20 DUP3 ADD MSTORE RETURN JUMPDEST PUSH2 0x64C JUMP JUMPDEST SWAP1 POP SWAP1 PUSH2 0x643 JUMP JUMPDEST DUP8 DUP1 SWAP3 SWAP8 POP DUP2 SWAP7 POP RETURNDATASIZE DUP4 GT PUSH2 0x6B1 JUMPI JUMPDEST PUSH2 0x69B DUP2 DUP4 PUSH2 0x123F JUMP JUMPDEST DUP2 ADD SUB SLT PUSH2 0x553 JUMPI PUSH1 0x20 DUP5 MLOAD SWAP5 ADD MLOAD SWAP5 DUP8 PUSH2 0x631 JUMP JUMPDEST POP RETURNDATASIZE PUSH2 0x691 JUMP JUMPDEST POP DUP6 MLOAD SWAP1 RETURNDATASIZE SWAP1 DUP3 RETURNDATACOPY RETURNDATASIZE SWAP1 REVERT JUMPDEST POP POP CALLVALUE PUSH2 0x59A JUMPI PUSH1 0x20 SWAP1 PUSH2 0x6E0 PUSH2 0x6DA CALLDATASIZE PUSH2 0x10AD JUMP JUMPDEST SWAP2 PUSH2 0x1750 JUMP JUMPDEST SWAP1 MLOAD SWAP1 DUP2 MSTORE RETURN JUMPDEST POP POP CALLVALUE PUSH2 0x59A JUMPI DUP2 PUSH1 0x3 NOT CALLDATASIZE ADD SLT PUSH2 0x59A JUMPI MLOAD PUSH32 0x0 PUSH1 0x1 PUSH1 0x1 PUSH1 0xA0 SHL SUB AND DUP2 MSTORE PUSH1 0x20 SWAP1 RETURN JUMPDEST POP POP CALLVALUE PUSH2 0x59A JUMPI PUSH1 0x20 SWAP1 PUSH2 0x6E0 PUSH2 0x741 CALLDATASIZE PUSH2 0x10AD JUMP JUMPDEST SWAP2 PUSH2 0x1A85 JUMP JUMPDEST POP SWAP1 PUSH1 0x80 CALLDATASIZE PUSH1 0x3 NOT ADD SLT PUSH2 0x46E JUMPI PUSH1 0x24 CALLDATALOAD PUSH8 0xFFFFFFFFFFFFFFFF DUP2 GT PUSH2 0x349 JUMPI PUSH2 0x774 SWAP1 CALLDATASIZE SWAP1 DUP5 ADD PUSH2 0x10C7 JUMP JUMPDEST PUSH1 0x1 PUSH1 0x1 PUSH1 0xA0 SHL SUB SWAP4 PUSH1 0x44 CALLDATALOAD SWAP3 SWAP2 SWAP1 DUP6 DUP5 AND DUP5 SUB PUSH2 0x2D9 JUMPI PUSH2 0x79A TIMESTAMP PUSH1 0x64 CALLDATALOAD LT ISZERO PUSH2 0x11D3 JUMP JUMPDEST DUP2 ISZERO PUSH2 0x9A6 JUMPI PUSH2 0x7D8 PUSH2 0x7AC DUP5 PUSH2 0x1965 JUMP JUMPDEST PUSH32 0x0 DUP9 AND SWAP8 AND DUP8 EQ PUSH2 0x1879 JUMP JUMPDEST DUP5 MLOAD PUSH4 0xD06CA61F PUSH1 0xE0 SHL DUP2 MSTORE SWAP6 DUP8 DUP8 DUP1 PUSH2 0x7F6 DUP7 DUP9 CALLVALUE DUP9 DUP6 ADD PUSH2 0x1B74 JUMP JUMPDEST SUB DUP2 ADDRESS GAS STATICCALL SWAP7 DUP8 ISZERO PUSH2 0x99C JUMPI DUP9 SWAP8 PUSH2 0x978 JUMPI JUMPDEST POP DUP7 MLOAD PUSH1 0x0 NOT DUP2 ADD SWAP1 DUP2 GT PUSH2 0x965 JUMPI PUSH2 0x830 SWAP1 PUSH2 0x828 DUP5 CALLDATALOAD SWAP2 DUP11 PUSH2 0x1932 JUMP JUMPDEST MLOAD LT ISZERO PUSH2 0x1A2A JUMP JUMPDEST DUP8 PUSH2 0x83A DUP9 PUSH2 0x190F JUMP JUMPDEST MLOAD DUP3 EXTCODESIZE ISZERO PUSH2 0x59A JUMPI DUP2 DUP5 SWAP2 DUP10 MLOAD SWAP3 DUP4 DUP1 SWAP3 PUSH4 0xD0E30DB PUSH1 0xE4 SHL DUP3 MSTORE DUP8 GAS CALL DUP1 ISZERO PUSH2 0x95B JUMPI PUSH2 0x943 JUMPI JUMPDEST POP POP PUSH2 0x86E DUP5 PUSH2 0x1965 JUMP JUMPDEST DUP4 PUSH1 0x1 LT ISZERO PUSH2 0x930 JUMPI SWAP2 PUSH1 0x20 SWAP2 PUSH2 0x893 PUSH2 0x8CF SWAP5 PUSH2 0x88D DUP6 DUP10 ADD PUSH2 0x1965 JUMP JUMPDEST SWAP1 PUSH2 0x130D JUMP JUMPDEST DUP11 PUSH2 0x89D DUP12 PUSH2 0x190F JUMP JUMPDEST MLOAD DUP11 MLOAD PUSH4 0xA9059CBB PUSH1 0xE0 SHL DUP2 MSTORE PUSH1 0x1 PUSH1 0x1 PUSH1 0xA0 SHL SUB SWAP1 SWAP4 AND SWAP5 DUP4 ADD SWAP5 DUP6 MSTORE PUSH1 0x20 DUP6 ADD MSTORE SWAP1 SWAP5 DUP6 SWAP4 DUP5 SWAP3 SWAP2 DUP4 SWAP2 PUSH1 0x40 ADD SWAP1 JUMP JUMPDEST SUB SWAP3 GAS CALL SWAP1 DUP2 ISZERO PUSH2 0x926 JUMPI SWAP2 PUSH2 0x8F7 PUSH2 0x904 SWAP6 SWAP5 SWAP3 PUSH2 0x8FE SWAP5 PUSH2 0x249 SWAP11 SWAP2 PUSH2 0x90E JUMPI POP PUSH2 0x11B6 JUMP JUMPDEST CALLDATASIZE SWAP2 PUSH2 0x1BC8 JUMP JUMPDEST DUP5 PUSH2 0x1C1E JUMP JUMPDEST MLOAD SWAP2 DUP3 SWAP2 DUP3 PUSH2 0x1147 JUMP JUMPDEST PUSH2 0x311 SWAP2 POP PUSH1 0x20 RETURNDATASIZE DUP2 GT PUSH2 0x317 JUMPI PUSH2 0x309 DUP2 DUP4 PUSH2 0x123F JUMP JUMPDEST DUP6 MLOAD RETURNDATASIZE DUP10 DUP3 RETURNDATACOPY RETURNDATASIZE SWAP1 REVERT JUMPDEST PUSH4 0x4E487B71 PUSH1 0xE0 SHL DUP10 MSTORE PUSH1 0x32 DUP4 MSTORE PUSH1 0x24 DUP10 REVERT JUMPDEST PUSH2 0x94C SWAP1 PUSH2 0x1215 JUMP JUMPDEST PUSH2 0x957 JUMPI DUP8 CODESIZE PUSH2 0x863 JUMP JUMPDEST DUP8 DUP1 REVERT JUMPDEST DUP9 MLOAD RETURNDATASIZE DUP5 DUP3 RETURNDATACOPY RETURNDATASIZE SWAP1 REVERT JUMPDEST PUSH4 0x4E487B71 PUSH1 0xE0 SHL DUP10 MSTORE PUSH1 0x11 DUP4 MSTORE PUSH1 0x24 DUP10 REVERT JUMPDEST PUSH2 0x995 SWAP2 SWAP8 POP RETURNDATASIZE DUP1 DUP11 DUP4 RETURNDATACOPY PUSH2 0x98D DUP2 DUP4 PUSH2 0x123F JUMP JUMPDEST DUP2 ADD SWAP1 PUSH2 0x1AFA JUMP JUMPDEST SWAP6 CODESIZE PUSH2 0x809 JUMP JUMPDEST DUP7 MLOAD RETURNDATASIZE DUP11 DUP3 RETURNDATACOPY RETURNDATASIZE SWAP1 REVERT JUMPDEST PUSH4 0x4E487B71 PUSH1 0xE0 SHL DUP8 MSTORE PUSH1 0x32 SWAP1 MSTORE PUSH1 0x24 DUP7 REVERT JUMPDEST POP SWAP1 CALLVALUE PUSH2 0x46E JUMPI DUP3 PUSH2 0x9E2 SWAP3 SWAP4 PUSH2 0x9CF CALLDATASIZE PUSH2 0x10F8 JUMP JUMPDEST SWAP9 DUP4 SWAP10 SWAP8 SWAP5 SWAP4 SWAP7 SWAP3 SWAP6 SWAP2 SWAP8 TIMESTAMP GT ISZERO PUSH2 0x11D3 JUMP JUMPDEST DUP10 PUSH2 0x9FF DUP7 DUP11 MLOAD SWAP12 DUP13 SWAP5 DUP6 SWAP5 PUSH4 0xD06CA61F PUSH1 0xE0 SHL DUP7 MSTORE DUP6 ADD PUSH2 0x1B74 JUMP JUMPDEST SUB DUP2 ADDRESS GAS STATICCALL SWAP7 DUP8 ISZERO PUSH2 0xAE4 JUMPI DUP3 SWAP8 PUSH2 0xAC8 JUMPI JUMPDEST POP DUP7 MLOAD PUSH1 0x0 NOT DUP2 ADD SWAP1 DUP2 GT PUSH2 0xAB5 JUMPI SWAP1 PUSH2 0x828 PUSH2 0xA2F SWAP3 DUP10 PUSH2 0x1932 JUMP JUMPDEST DUP2 ISZERO PUSH2 0xAA2 JUMPI PUSH1 0x1 PUSH1 0x1 PUSH1 0xA0 SHL SUB PUSH2 0xA46 DUP5 PUSH2 0x1965 JUMP JUMPDEST AND SWAP1 PUSH2 0xA51 DUP5 PUSH2 0x1965 JUMP JUMPDEST SWAP1 DUP4 PUSH1 0x1 LT ISZERO PUSH2 0xA8F JUMPI PUSH2 0x249 DUP9 DUP9 PUSH2 0x904 DUP10 PUSH2 0x8FE DUP11 DUP11 PUSH2 0x8F7 DUP12 PUSH2 0xA7D DUP13 PUSH2 0x88D PUSH1 0x20 DUP8 ADD PUSH2 0x1965 JUMP JUMPDEST PUSH2 0xA86 DUP11 PUSH2 0x190F JUMP JUMPDEST MLOAD SWAP2 CALLER SWAP1 PUSH2 0x1261 JUMP JUMPDEST PUSH4 0x4E487B71 PUSH1 0xE0 SHL DUP2 MSTORE PUSH1 0x32 DUP10 MSTORE PUSH1 0x24 SWAP1 REVERT JUMPDEST PUSH4 0x4E487B71 PUSH1 0xE0 SHL DUP2 MSTORE PUSH1 0x32 DUP8 MSTORE PUSH1 0x24 SWAP1 REVERT JUMPDEST PUSH4 0x4E487B71 PUSH1 0xE0 SHL DUP4 MSTORE PUSH1 0x11 DUP10 MSTORE PUSH1 0x24 DUP4 REVERT JUMPDEST PUSH2 0xADD SWAP2 SWAP8 POP RETURNDATASIZE DUP1 DUP5 DUP4 RETURNDATACOPY PUSH2 0x98D DUP2 DUP4 PUSH2 0x123F JUMP JUMPDEST SWAP6 CODESIZE PUSH2 0xA12 JUMP JUMPDEST DUP7 MLOAD RETURNDATASIZE DUP5 DUP3 RETURNDATACOPY RETURNDATASIZE SWAP1 REVERT JUMPDEST POP SWAP2 SWAP1 CALLVALUE PUSH2 0x59A JUMPI PUSH2 0xAFF CALLDATASIZE PUSH2 0x1182 JUMP JUMPDEST SWAP4 SWAP1 SWAP2 SWAP5 PUSH2 0xB10 PUSH1 0x2 DUP7 LT ISZERO PUSH2 0x1879 JUMP JUMPDEST PUSH2 0xB19 DUP6 PUSH2 0x18DD JUMP JUMPDEST SWAP5 DUP6 MLOAD SWAP7 PUSH1 0x0 NOT SWAP8 DUP9 DUP2 ADD SWAP1 DUP2 GT PUSH2 0xBBC JUMPI PUSH2 0xB35 SWAP1 DUP9 PUSH2 0x1932 JUMP JUMPDEST MSTORE DUP7 DUP2 ADD DUP2 DUP2 GT PUSH2 0xBA9 JUMPI DUP1 JUMPDEST PUSH2 0xB53 JUMPI DUP6 MLOAD DUP1 PUSH2 0x249 DUP10 DUP3 PUSH2 0x1147 JUMP JUMPDEST DUP8 DUP2 ADD DUP2 DUP2 GT PUSH2 0xBBC JUMPI PUSH2 0xB9A PUSH2 0xB93 PUSH2 0xB82 PUSH2 0xB74 PUSH2 0x4C9 DUP6 DUP9 DUP13 PUSH2 0x1955 JUMP JUMPDEST PUSH2 0x4F7 PUSH2 0x4C9 DUP8 DUP10 DUP14 PUSH2 0x1955 JUMP JUMPDEST SWAP1 PUSH2 0xB8D DUP7 DUP14 PUSH2 0x1932 JUMP JUMPDEST MLOAD PUSH2 0x1A85 JUMP JUMPDEST SWAP2 DUP10 PUSH2 0x1932 JUMP JUMPDEST MSTORE DUP1 ISZERO PUSH2 0xBA9 JUMPI DUP8 ADD DUP1 PUSH2 0xB42 JUMP JUMPDEST PUSH4 0x4E487B71 PUSH1 0xE0 SHL DUP5 MSTORE PUSH1 0x11 DUP4 MSTORE PUSH1 0x24 DUP5 REVERT JUMPDEST PUSH4 0x4E487B71 PUSH1 0xE0 SHL DUP6 MSTORE PUSH1 0x11 DUP5 MSTORE PUSH1 0x24 DUP6 REVERT JUMPDEST POP SWAP1 CALLVALUE PUSH2 0x46E JUMPI PUSH2 0xBF2 SWAP2 SWAP3 PUSH2 0xBE4 CALLDATASIZE PUSH2 0x10F8 JUMP JUMPDEST SWAP8 SWAP1 SWAP5 SWAP2 SWAP3 SWAP8 TIMESTAMP GT ISZERO PUSH2 0x11D3 JUMP JUMPDEST PUSH1 0x0 NOT SWAP3 DUP3 DUP5 ADD DUP4 DUP2 GT PUSH2 0xE03 JUMPI SWAP2 DUP9 SWAP2 DUP8 PUSH2 0xC16 PUSH2 0x4C9 DUP8 SWAP7 PUSH2 0xC4E SWAP9 DUP8 PUSH2 0x1955 JUMP JUMPDEST PUSH1 0x1 PUSH1 0x1 PUSH1 0xA0 SHL SUB PUSH32 0x0 DUP2 AND SWAP8 SWAP1 SWAP5 SWAP2 DUP6 AND DUP9 EQ PUSH2 0x1879 JUMP JUMPDEST DUP13 PUSH2 0xC6B DUP8 DUP14 MLOAD SWAP15 DUP16 SWAP5 DUP6 SWAP5 PUSH4 0xD06CA61F PUSH1 0xE0 SHL DUP7 MSTORE DUP6 ADD PUSH2 0x1B74 JUMP JUMPDEST SUB DUP2 ADDRESS GAS STATICCALL SWAP10 DUP11 ISZERO PUSH2 0xDF9 JUMPI DUP9 SWAP11 PUSH2 0xDDD JUMPI JUMPDEST POP DUP10 MLOAD DUP7 DUP2 ADD SWAP1 DUP2 GT PUSH2 0xDCA JUMPI SWAP1 PUSH2 0x828 PUSH2 0xC99 SWAP3 DUP13 PUSH2 0x1932 JUMP JUMPDEST DUP3 ISZERO PUSH2 0xDB7 JUMPI PUSH2 0xCA8 DUP3 PUSH2 0x1965 JUMP JUMPDEST AND PUSH2 0xCB2 DUP3 PUSH2 0x1965 JUMP JUMPDEST DUP4 PUSH1 0x1 LT ISZERO PUSH2 0xDA4 JUMPI SWAP2 PUSH2 0xCE0 PUSH2 0xCE9 SWAP3 PUSH2 0xCD7 PUSH2 0xCEF SWAP7 SWAP6 PUSH2 0x88D PUSH1 0x20 DUP7 ADD PUSH2 0x1965 JUMP JUMPDEST PUSH2 0xA86 DUP14 PUSH2 0x190F JUMP JUMPDEST ADDRESS SWAP3 CALLDATASIZE SWAP2 PUSH2 0x1BC8 JUMP JUMPDEST DUP9 PUSH2 0x1C1E JUMP JUMPDEST DUP6 MLOAD DUP3 DUP2 ADD SWAP1 DUP2 GT PUSH2 0x540 JUMPI PUSH2 0xD05 SWAP1 DUP8 PUSH2 0x1932 JUMP JUMPDEST MLOAD DUP2 EXTCODESIZE ISZERO PUSH2 0xDA0 JUMPI DUP5 SWAP2 PUSH1 0x24 DUP4 SWAP3 DUP9 MLOAD SWAP5 DUP6 SWAP4 DUP5 SWAP3 PUSH4 0x2E1A7D4D PUSH1 0xE0 SHL DUP5 MSTORE DUP14 DUP5 ADD MSTORE GAS CALL DUP1 ISZERO PUSH2 0xD96 JUMPI SWAP1 DUP5 SWAP2 PUSH2 0xD82 JUMPI JUMPDEST POP POP DUP5 MLOAD SWAP1 DUP2 ADD SWAP1 DUP2 GT PUSH2 0xD6F JUMPI PUSH2 0x249 SWAP6 POP SWAP2 DUP1 DUP1 DUP1 SWAP4 PUSH2 0xD5D PUSH2 0x904 SWAP7 DUP10 PUSH2 0x1932 JUMP JUMPDEST MLOAD SWAP1 GAS CALL PUSH2 0xD69 PUSH2 0x17ED JUMP JUMPDEST POP PUSH2 0x182D JUMP JUMPDEST PUSH4 0x4E487B71 PUSH1 0xE0 SHL DUP4 MSTORE PUSH1 0x11 DUP7 MSTORE PUSH1 0x24 DUP4 REVERT JUMPDEST PUSH2 0xD8B SWAP1 PUSH2 0x1215 JUMP JUMPDEST PUSH2 0x46E JUMPI DUP3 CODESIZE PUSH2 0xD38 JUMP JUMPDEST DUP6 MLOAD RETURNDATASIZE DUP7 DUP3 RETURNDATACOPY RETURNDATASIZE SWAP1 REVERT JUMPDEST DUP5 DUP1 REVERT JUMPDEST PUSH4 0x4E487B71 PUSH1 0xE0 SHL DUP9 MSTORE PUSH1 0x32 DUP12 MSTORE PUSH1 0x24 DUP9 REVERT JUMPDEST PUSH4 0x4E487B71 PUSH1 0xE0 SHL DUP8 MSTORE PUSH1 0x32 DUP11 MSTORE PUSH1 0x24 DUP8 REVERT JUMPDEST PUSH4 0x4E487B71 PUSH1 0xE0 SHL DUP10 MSTORE PUSH1 0x11 DUP13 MSTORE PUSH1 0x24 DUP10 REVERT JUMPDEST PUSH2 0xDF2 SWAP2 SWAP11 POP RETURNDATASIZE DUP1 DUP11 DUP4 RETURNDATACOPY PUSH2 0x98D DUP2 DUP4 PUSH2 0x123F JUMP JUMPDEST SWAP9 CODESIZE PUSH2 0xC7E JUMP JUMPDEST DUP10 MLOAD RETURNDATASIZE DUP11 DUP3 RETURNDATACOPY RETURNDATASIZE SWAP1 REVERT JUMPDEST PUSH4 0x4E487B71 PUSH1 0xE0 SHL DUP8 MSTORE PUSH1 0x11 DUP11 MSTORE PUSH1 0x24 DUP8 REVERT JUMPDEST POP POP CALLVALUE PUSH2 0x59A JUMPI PUSH1 0x20 SWAP1 PUSH2 0x6E0 PUSH2 0xE2C CALLDATASIZE PUSH2 0x10AD JUMP JUMPDEST SWAP2 PUSH2 0x1979 JUMP JUMPDEST POP DUP3 SWAP1 CALLVALUE PUSH2 0x59A JUMPI DUP2 PUSH2 0xE44 CALLDATASIZE PUSH2 0x106D JUMP JUMPDEST SWAP7 SWAP3 SWAP7 SWAP5 SWAP4 SWAP2 SWAP1 SWAP5 TIMESTAMP GT ISZERO SWAP1 PUSH2 0xE59 DUP3 PUSH2 0x11D3 JUMP JUMPDEST PUSH2 0xE83 PUSH32 0x0 SWAP3 PUSH2 0x11D3 JUMP JUMPDEST DUP10 PUSH2 0xE8E DUP4 DUP8 PUSH2 0x130D JUMP JUMPDEST PUSH1 0x1 PUSH1 0x1 PUSH1 0xA0 SHL SUB SWAP5 DUP2 DUP7 AND SWAP2 PUSH2 0xEA7 SWAP2 SWAP1 CALLER DUP5 PUSH2 0x1261 JUMP JUMPDEST PUSH1 0x24 DUP3 MLOAD DUP1 SWAP13 DUP2 SWAP4 PUSH4 0x226BF2D1 PUSH1 0xE2 SHL DUP4 MSTORE ADDRESS DUP11 DUP5 ADD MSTORE GAS CALL SWAP9 DUP10 ISZERO PUSH2 0x1023 JUMPI DUP8 SWAP1 DUP9 SWAP11 PUSH2 0xFE9 JUMPI JUMPDEST POP DUP4 DUP1 DUP5 AND SWAP7 DUP2 DUP2 AND SWAP5 DUP9 DUP7 LT PUSH1 0x0 EQ PUSH2 0xFE2 JUMPI POP JUMPDEST AND DUP4 SUB PUSH2 0xFD3 JUMPI SWAP1 PUSH2 0xF00 PUSH2 0xF08 SWAP3 SWAP11 SWAP10 JUMPDEST DUP12 LT ISZERO PUSH2 0x13B0 JUMP JUMPDEST DUP9 LT ISZERO PUSH2 0x1406 JUMP JUMPDEST DUP9 MLOAD PUSH4 0xA9059CBB PUSH1 0xE0 SHL DUP8 MSTORE SWAP2 DUP6 AND DUP4 MSTORE PUSH1 0x24 DUP9 SWAP1 MSTORE PUSH1 0x20 DUP7 PUSH1 0x44 DUP2 DUP1 DUP6 GAS CALL PUSH1 0x1 DUP8 MLOAD EQ DUP2 AND ISZERO PUSH2 0xFB4 JUMPI JUMPDEST DUP3 DUP11 MSTORE ISZERO PUSH2 0xFA2 JUMPI POP POP DUP2 EXTCODESIZE ISZERO PUSH2 0x349 JUMPI DUP5 PUSH1 0x24 DUP6 SWAP3 DUP4 DUP11 MLOAD SWAP6 DUP7 SWAP5 DUP6 SWAP4 PUSH4 0x2E1A7D4D PUSH1 0xE0 SHL DUP6 MSTORE DUP5 ADD MSTORE GAS CALL DUP1 ISZERO PUSH2 0xF98 JUMPI SWAP2 PUSH2 0x668 SWAP4 SWAP2 DUP6 SWAP4 PUSH2 0xF85 JUMPI JUMPDEST POP DUP2 DUP1 SWAP4 DUP2 SWAP3 GAS CALL PUSH2 0xD69 PUSH2 0x17ED JUMP JUMPDEST PUSH2 0xF91 SWAP1 SWAP3 SWAP2 SWAP3 PUSH2 0x1215 JUMP JUMPDEST SWAP1 DUP8 PUSH2 0xF75 JUMP JUMPDEST DUP7 MLOAD RETURNDATASIZE DUP6 DUP3 RETURNDATACOPY RETURNDATASIZE SWAP1 REVERT JUMPDEST PUSH1 0x24 SWAP3 PUSH4 0x5274AFE7 PUSH1 0xE0 SHL DUP4 MSTORE DUP3 ADD MSTORE REVERT JUMPDEST PUSH1 0x1 DUP2 ISZERO AND PUSH2 0xFCA JUMPI DUP2 EXTCODESIZE ISZERO ISZERO RETURNDATASIZE ISZERO AND AND PUSH2 0xF35 JUMP JUMPDEST DUP3 RETURNDATASIZE DUP9 DUP3 RETURNDATACOPY RETURNDATASIZE SWAP1 REVERT JUMPDEST SWAP8 PUSH2 0xF08 SWAP2 SWAP1 PUSH2 0xF00 SWAP1 PUSH2 0xEF8 JUMP JUMPDEST SWAP1 POP PUSH2 0xEE6 JUMP JUMPDEST DUP1 SWAP11 POP DUP12 DUP1 SWAP3 POP RETURNDATASIZE DUP4 GT PUSH2 0x101C JUMPI JUMPDEST PUSH2 0x1002 DUP2 DUP4 PUSH2 0x123F JUMP JUMPDEST DUP2 ADD SUB SLT PUSH2 0x1018 JUMPI PUSH1 0x20 DUP10 MLOAD SWAP10 ADD MLOAD SWAP9 DUP12 PUSH2 0xED0 JUMP JUMPDEST DUP7 DUP1 REVERT JUMPDEST POP RETURNDATASIZE PUSH2 0xFF8 JUMP JUMPDEST DUP11 MLOAD RETURNDATASIZE DUP10 DUP3 RETURNDATACOPY RETURNDATASIZE SWAP1 REVERT JUMPDEST PUSH1 0x4 CALLDATALOAD SWAP1 PUSH1 0x1 PUSH1 0x1 PUSH1 0xA0 SHL SUB DUP3 AND DUP3 SUB PUSH2 0x2D9 JUMPI JUMP JUMPDEST PUSH1 0x24 CALLDATALOAD SWAP1 PUSH1 0x1 PUSH1 0x1 PUSH1 0xA0 SHL SUB DUP3 AND DUP3 SUB PUSH2 0x2D9 JUMPI JUMP JUMPDEST CALLDATALOAD SWAP1 PUSH1 0x1 PUSH1 0x1 PUSH1 0xA0 SHL SUB DUP3 AND DUP3 SUB PUSH2 0x2D9 JUMPI JUMP JUMPDEST PUSH1 0xC0 SWAP1 PUSH1 0x3 NOT ADD SLT PUSH2 0x2D9 JUMPI PUSH1 0x1 PUSH1 0x1 PUSH1 0xA0 SHL SUB PUSH1 0x4 CALLDATALOAD DUP2 DUP2 AND DUP2 SUB PUSH2 0x2D9 JUMPI SWAP2 PUSH1 0x24 CALLDATALOAD SWAP2 PUSH1 0x44 CALLDATALOAD SWAP2 PUSH1 0x64 CALLDATALOAD SWAP2 PUSH1 0x84 CALLDATALOAD SWAP1 DUP2 AND DUP2 SUB PUSH2 0x2D9 JUMPI SWAP1 PUSH1 0xA4 CALLDATALOAD SWAP1 JUMP JUMPDEST PUSH1 0x60 SWAP1 PUSH1 0x3 NOT ADD SLT PUSH2 0x2D9 JUMPI PUSH1 0x4 CALLDATALOAD SWAP1 PUSH1 0x24 CALLDATALOAD SWAP1 PUSH1 0x44 CALLDATALOAD SWAP1 JUMP JUMPDEST SWAP2 DUP2 PUSH1 0x1F DUP5 ADD SLT ISZERO PUSH2 0x2D9 JUMPI DUP3 CALLDATALOAD SWAP2 PUSH8 0xFFFFFFFFFFFFFFFF DUP4 GT PUSH2 0x2D9 JUMPI PUSH1 0x20 DUP1 DUP6 ADD SWAP5 DUP5 PUSH1 0x5 SHL ADD ADD GT PUSH2 0x2D9 JUMPI JUMP JUMPDEST PUSH1 0xA0 PUSH1 0x3 NOT DUP3 ADD SLT PUSH2 0x2D9 JUMPI PUSH1 0x4 CALLDATALOAD SWAP2 PUSH1 0x24 CALLDATALOAD SWAP2 PUSH1 0x44 CALLDATALOAD SWAP1 PUSH8 0xFFFFFFFFFFFFFFFF DUP3 GT PUSH2 0x2D9 JUMPI PUSH2 0x112B SWAP2 PUSH1 0x4 ADD PUSH2 0x10C7 JUMP JUMPDEST SWAP1 SWAP2 PUSH1 0x64 CALLDATALOAD PUSH1 0x1 PUSH1 0x1 PUSH1 0xA0 SHL SUB DUP2 AND DUP2 SUB PUSH2 0x2D9 JUMPI SWAP1 PUSH1 0x84 CALLDATALOAD SWAP1 JUMP JUMPDEST PUSH1 0x20 SWAP1 DUP2 PUSH1 0x40 DUP2 DUP4 ADD SWAP3 DUP3 DUP2 MSTORE DUP6 MLOAD DUP1 SWAP5 MSTORE ADD SWAP4 ADD SWAP2 PUSH1 0x0 JUMPDEST DUP3 DUP2 LT PUSH2 0x116E JUMPI POP POP POP POP SWAP1 JUMP JUMPDEST DUP4 MLOAD DUP6 MSTORE SWAP4 DUP2 ADD SWAP4 SWAP3 DUP2 ADD SWAP3 PUSH1 0x1 ADD PUSH2 0x1160 JUMP JUMPDEST SWAP1 PUSH1 0x40 PUSH1 0x3 NOT DUP4 ADD SLT PUSH2 0x2D9 JUMPI PUSH1 0x4 CALLDATALOAD SWAP2 PUSH1 0x24 CALLDATALOAD SWAP1 PUSH8 0xFFFFFFFFFFFFFFFF DUP3 GT PUSH2 0x2D9 JUMPI PUSH2 0x11B2 SWAP2 PUSH1 0x4 ADD PUSH2 0x10C7 JUMP JUMPDEST SWAP1 SWAP2 JUMP JUMPDEST ISZERO PUSH2 0x11BD JUMPI JUMP JUMPDEST PUSH4 0x4E487B71 PUSH1 0xE0 SHL PUSH1 0x0 MSTORE PUSH1 0x1 PUSH1 0x4 MSTORE PUSH1 0x24 PUSH1 0x0 REVERT JUMPDEST ISZERO PUSH2 0x11DA JUMPI JUMP JUMPDEST PUSH1 0x40 MLOAD PUSH3 0x461BCD PUSH1 0xE5 SHL DUP2 MSTORE PUSH1 0x20 PUSH1 0x4 DUP3 ADD MSTORE PUSH1 0x13 PUSH1 0x24 DUP3 ADD MSTORE PUSH19 0x13DC985A149BDD5D195C8E8811561412549151 PUSH1 0x6A SHL PUSH1 0x44 DUP3 ADD MSTORE PUSH1 0x64 SWAP1 REVERT JUMPDEST PUSH8 0xFFFFFFFFFFFFFFFF DUP2 GT PUSH2 0x1229 JUMPI PUSH1 0x40 MSTORE JUMP JUMPDEST PUSH4 0x4E487B71 PUSH1 0xE0 SHL PUSH1 0x0 MSTORE PUSH1 0x41 PUSH1 0x4 MSTORE PUSH1 0x24 PUSH1 0x0 REVERT JUMPDEST SWAP1 PUSH1 0x1F DUP1 NOT SWAP2 ADD AND DUP2 ADD SWAP1 DUP2 LT PUSH8 0xFFFFFFFFFFFFFFFF DUP3 GT OR PUSH2 0x1229 JUMPI PUSH1 0x40 MSTORE JUMP JUMPDEST PUSH1 0x40 MLOAD PUSH4 0x23B872DD PUSH1 0xE0 SHL PUSH1 0x0 SWAP1 DUP2 MSTORE PUSH1 0x1 PUSH1 0x1 PUSH1 0xA0 SHL SUB SWAP4 DUP5 AND PUSH1 0x4 MSTORE SWAP4 DUP4 AND PUSH1 0x24 MSTORE PUSH1 0x44 SWAP5 SWAP1 SWAP5 MSTORE SWAP1 SWAP2 PUSH1 0x20 SWAP1 PUSH1 0x64 DUP2 DUP1 DUP6 GAS CALL PUSH1 0x1 PUSH1 0x0 MLOAD EQ DUP2 AND ISZERO PUSH2 0x12CE JUMPI JUMPDEST DUP4 PUSH1 0x40 MSTORE PUSH1 0x0 PUSH1 0x60 MSTORE ISZERO PUSH2 0x12B8 JUMPI POP POP POP JUMP JUMPDEST PUSH4 0x5274AFE7 PUSH1 0xE0 SHL DUP4 MSTORE AND PUSH1 0x4 DUP3 ADD MSTORE PUSH1 0x24 SWAP2 POP REVERT JUMPDEST PUSH1 0x1 DUP2 ISZERO AND PUSH2 0x12E4 JUMPI DUP2 EXTCODESIZE ISZERO ISZERO RETURNDATASIZE ISZERO AND AND PUSH2 0x12A5 JUMP JUMPDEST DUP4 RETURNDATASIZE PUSH1 0x0 DUP3 RETURNDATACOPY RETURNDATASIZE SWAP1 REVERT JUMPDEST SWAP1 DUP2 PUSH1 0x20 SWAP2 SUB SLT PUSH2 0x2D9 JUMPI MLOAD PUSH1 0x1 PUSH1 0x1 PUSH1 0xA0 SHL SUB DUP2 AND DUP2 SUB PUSH2 0x2D9 JUMPI SWAP1 JUMP JUMPDEST PUSH1 0x40 MLOAD PUSH4 0xE6A43905 PUSH1 0xE0 SHL DUP2 MSTORE PUSH1 0x1 PUSH1 0x1 PUSH1 0xA0 SHL SUB SWAP2 DUP3 AND PUSH1 0x4 DUP3 ADD MSTORE SWAP2 AND PUSH1 0x24 DUP3 ADD MSTORE PUSH1 0x20 DUP2 DUP1 PUSH1 0x44 DUP2 ADD SUB DUP2 PUSH32 0x0 PUSH1 0x1 PUSH1 0x1 PUSH1 0xA0 SHL SUB AND GAS STATICCALL SWAP1 DUP2 ISZERO PUSH2 0x13A4 JUMPI PUSH1 0x0 SWAP2 PUSH2 0x1379 JUMPI POP SWAP1 JUMP JUMPDEST PUSH2 0x139A SWAP2 POP PUSH1 0x20 RETURNDATASIZE DUP2 GT PUSH2 0x139D JUMPI JUMPDEST PUSH2 0x1392 DUP2 DUP4 PUSH2 0x123F JUMP JUMPDEST DUP2 ADD SWAP1 PUSH2 0x12EE JUMP JUMPDEST SWAP1 JUMP JUMPDEST POP RETURNDATASIZE PUSH2 0x1388 JUMP JUMPDEST PUSH1 0x40 MLOAD RETURNDATASIZE PUSH1 0x0 DUP3 RETURNDATACOPY RETURNDATASIZE SWAP1 REVERT JUMPDEST ISZERO PUSH2 0x13B7 JUMPI JUMP JUMPDEST PUSH1 0x40 MLOAD PUSH3 0x461BCD PUSH1 0xE5 SHL DUP2 MSTORE PUSH1 0x20 PUSH1 0x4 DUP3 ADD MSTORE PUSH1 0x21 PUSH1 0x24 DUP3 ADD MSTORE PUSH32 0x4F726168526F757465723A20494E53554646494349454E545F415F414D4F554E PUSH1 0x44 DUP3 ADD MSTORE PUSH1 0x15 PUSH1 0xFA SHL PUSH1 0x64 DUP3 ADD MSTORE PUSH1 0x84 SWAP1 REVERT JUMPDEST ISZERO PUSH2 0x140D JUMPI JUMP JUMPDEST PUSH1 0x40 MLOAD PUSH3 0x461BCD PUSH1 0xE5 SHL DUP2 MSTORE PUSH1 0x20 PUSH1 0x4 DUP3 ADD MSTORE PUSH1 0x21 PUSH1 0x24 DUP3 ADD MSTORE PUSH32 0x4F726168526F757465723A20494E53554646494349454E545F425F414D4F554E PUSH1 0x44 DUP3 ADD MSTORE PUSH1 0x15 PUSH1 0xFA SHL PUSH1 0x64 DUP3 ADD MSTORE PUSH1 0x84 SWAP1 REVERT JUMPDEST PUSH1 0x40 MLOAD PUSH4 0xE6A43905 PUSH1 0xE0 SHL DUP2 MSTORE PUSH1 0x1 PUSH1 0x1 PUSH1 0xA0 SHL SUB DUP3 DUP2 AND PUSH1 0x4 DUP4 ADD MSTORE DUP4 DUP2 AND PUSH1 0x24 DUP4 ADD MSTORE SWAP4 SWAP7 SWAP5 SWAP6 SWAP5 SWAP4 PUSH32 0x0 DUP2 AND SWAP4 SWAP3 SWAP2 PUSH1 0x20 SWAP2 SWAP1 DUP3 DUP2 PUSH1 0x44 DUP2 DUP10 GAS STATICCALL SWAP1 DUP2 ISZERO PUSH2 0x13A4 JUMPI PUSH1 0x0 SWAP2 PUSH2 0x15B0 JUMPI JUMPDEST POP AND ISZERO PUSH2 0x1549 JUMPI JUMPDEST POP PUSH2 0x14DB SWAP3 POP PUSH2 0x15E1 JUMP JUMPDEST SWAP3 SWAP1 DUP1 ISZERO DUP1 PUSH2 0x1541 JUMPI JUMPDEST ISZERO PUSH2 0x14F2 JUMPI POP POP POP POP SWAP1 SWAP2 JUMP JUMPDEST PUSH2 0x1501 DUP5 DUP3 DUP9 SWAP8 SWAP6 SWAP7 SWAP8 PUSH2 0x1750 JUMP JUMPDEST SWAP5 DUP4 DUP7 GT PUSH2 0x1519 JUMPI POP POP POP POP PUSH2 0x11B2 SWAP1 DUP3 LT ISZERO PUSH2 0x1406 JUMP JUMPDEST DUP4 SWAP6 POP PUSH2 0x11B2 SWAP5 POP SWAP1 PUSH2 0x1530 SWAP2 PUSH2 0x1539 SWAP4 SWAP5 PUSH2 0x1750 JUMP JUMPDEST SWAP5 DUP6 GT ISZERO PUSH2 0x11B6 JUMP JUMPDEST DUP4 LT ISZERO PUSH2 0x13B0 JUMP JUMPDEST POP DUP4 ISZERO PUSH2 0x14E5 JUMP JUMPDEST PUSH1 0x40 MLOAD PUSH4 0x64E329CB PUSH1 0xE1 SHL DUP2 MSTORE PUSH1 0x1 PUSH1 0x1 PUSH1 0xA0 SHL SUB DUP4 DUP2 AND PUSH1 0x4 DUP4 ADD MSTORE DUP5 AND PUSH1 0x24 DUP3 ADD MSTORE SWAP4 DUP2 SWAP1 DUP6 SWAP1 PUSH1 0x44 SWAP1 DUP3 SWAP1 PUSH1 0x0 SWAP1 GAS CALL SWAP4 DUP5 ISZERO PUSH2 0x13A4 JUMPI PUSH2 0x14DB SWAP5 PUSH2 0x1592 JUMPI JUMPDEST POP PUSH2 0x14D0 JUMP JUMPDEST DUP2 PUSH2 0x15A8 SWAP3 SWAP1 RETURNDATASIZE LT PUSH2 0x139D JUMPI PUSH2 0x1392 DUP2 DUP4 PUSH2 0x123F JUMP JUMPDEST POP CODESIZE DUP1 PUSH2 0x158C JUMP JUMPDEST PUSH2 0x15C7 SWAP2 POP DUP4 RETURNDATASIZE DUP6 GT PUSH2 0x139D JUMPI PUSH2 0x1392 DUP2 DUP4 PUSH2 0x123F JUMP JUMPDEST CODESIZE PUSH2 0x14C8 JUMP JUMPDEST MLOAD SWAP1 PUSH1 0x1 PUSH1 0x1 PUSH1 0x70 SHL SUB DUP3 AND DUP3 SUB PUSH2 0x2D9 JUMPI JUMP JUMPDEST SWAP1 PUSH1 0x4 SWAP1 PUSH1 0x1 PUSH1 0x1 PUSH1 0xA0 SHL SUB DUP1 DUP5 AND SWAP2 PUSH1 0x60 SWAP1 DUP3 SWAP1 PUSH2 0x160A SWAP1 DUP3 DUP2 AND DUP7 LT ISZERO PUSH2 0x16A9 JUMPI DUP8 PUSH2 0x130D JUMP JUMPDEST AND PUSH1 0x40 MLOAD SWAP5 DUP6 DUP1 SWAP3 PUSH4 0x240BC6B PUSH1 0xE2 SHL DUP3 MSTORE GAS STATICCALL SWAP4 DUP5 ISZERO PUSH2 0x13A4 JUMPI PUSH1 0x0 SWAP4 DUP5 SWAP6 PUSH2 0x164D JUMPI JUMPDEST POP AND SUB PUSH2 0x1648 JUMPI SWAP1 JUMPDEST PUSH1 0x1 PUSH1 0x1 PUSH1 0x70 SHL SUB DUP1 SWAP2 AND SWAP2 AND SWAP2 JUMP JUMPDEST PUSH2 0x1638 JUMP JUMPDEST SWAP4 SWAP1 SWAP5 POP PUSH1 0x60 DUP5 RETURNDATASIZE DUP3 GT PUSH2 0x16A1 JUMPI JUMPDEST DUP2 PUSH2 0x1669 PUSH1 0x60 SWAP4 DUP4 PUSH2 0x123F JUMP JUMPDEST DUP2 ADD SUB SLT PUSH2 0x553 JUMPI PUSH2 0x167A DUP5 PUSH2 0x15CD JUMP JUMPDEST SWAP1 PUSH1 0x40 PUSH2 0x1689 PUSH1 0x20 DUP8 ADD PUSH2 0x15CD JUMP JUMPDEST SWAP6 ADD MLOAD PUSH4 0xFFFFFFFF DUP2 AND SUB PUSH2 0x553 JUMPI POP SWAP3 SWAP4 CODESIZE PUSH2 0x162F JUMP JUMPDEST RETURNDATASIZE SWAP2 POP PUSH2 0x165C JUMP JUMPDEST DUP1 SWAP8 PUSH2 0x130D JUMP JUMPDEST ISZERO PUSH2 0x16B7 JUMPI JUMP JUMPDEST PUSH1 0x40 MLOAD PUSH3 0x461BCD PUSH1 0xE5 SHL DUP2 MSTORE PUSH1 0x20 PUSH1 0x4 DUP3 ADD MSTORE PUSH1 0x22 PUSH1 0x24 DUP3 ADD MSTORE PUSH32 0x4F726168526F757465723A20494E53554646494349454E545F4C495155494449 PUSH1 0x44 DUP3 ADD MSTORE PUSH2 0x5459 PUSH1 0xF0 SHL PUSH1 0x64 DUP3 ADD MSTORE PUSH1 0x84 SWAP1 REVERT JUMPDEST DUP2 DUP2 MUL SWAP3 SWAP2 DUP2 ISZERO SWAP2 DUP5 DIV EQ OR ISZERO PUSH2 0x171A JUMPI JUMP JUMPDEST PUSH4 0x4E487B71 PUSH1 0xE0 SHL PUSH1 0x0 MSTORE PUSH1 0x11 PUSH1 0x4 MSTORE PUSH1 0x24 PUSH1 0x0 REVERT JUMPDEST DUP2 ISZERO PUSH2 0x173A JUMPI DIV SWAP1 JUMP JUMPDEST PUSH4 0x4E487B71 PUSH1 0xE0 SHL PUSH1 0x0 MSTORE PUSH1 0x12 PUSH1 0x4 MSTORE PUSH1 0x24 PUSH1 0x0 REVERT JUMPDEST DUP1 ISZERO PUSH2 0x1783 JUMPI PUSH2 0x139A SWAP3 PUSH2 0x1775 SWAP2 DUP4 ISZERO ISZERO DUP1 PUSH2 0x177A JUMPI JUMPDEST PUSH2 0x1770 SWAP1 PUSH2 0x16B0 JUMP JUMPDEST PUSH2 0x1707 JUMP JUMPDEST PUSH2 0x1730 JUMP JUMPDEST POP DUP2 ISZERO ISZERO PUSH2 0x1767 JUMP JUMPDEST PUSH1 0x40 MLOAD PUSH3 0x461BCD PUSH1 0xE5 SHL DUP2 MSTORE PUSH1 0x20 PUSH1 0x4 DUP3 ADD MSTORE PUSH1 0x1F PUSH1 0x24 DUP3 ADD MSTORE PUSH32 0x4F726168526F757465723A20494E53554646494349454E545F414D4F554E5400 PUSH1 0x44 DUP3 ADD MSTORE PUSH1 0x64 SWAP1 REVERT JUMPDEST SWAP1 DUP2 PUSH1 0x20 SWAP2 SUB SLT PUSH2 0x2D9 JUMPI MLOAD DUP1 ISZERO ISZERO DUP2 SUB PUSH2 0x2D9 JUMPI SWAP1 JUMP JUMPDEST SWAP2 SWAP1 DUP3 SUB SWAP2 DUP3 GT PUSH2 0x171A JUMPI JUMP JUMPDEST RETURNDATASIZE ISZERO PUSH2 0x1828 JUMPI RETURNDATASIZE SWAP1 PUSH8 0xFFFFFFFFFFFFFFFF DUP3 GT PUSH2 0x1229 JUMPI PUSH1 0x40 MLOAD SWAP2 PUSH2 0x181C PUSH1 0x1F DUP3 ADD PUSH1 0x1F NOT AND PUSH1 0x20 ADD DUP5 PUSH2 0x123F JUMP JUMPDEST DUP3 MSTORE RETURNDATASIZE PUSH1 0x0 PUSH1 0x20 DUP5 ADD RETURNDATACOPY JUMP JUMPDEST PUSH1 0x60 SWAP1 JUMP JUMPDEST ISZERO PUSH2 0x1834 JUMPI JUMP JUMPDEST PUSH1 0x40 MLOAD PUSH3 0x461BCD PUSH1 0xE5 SHL DUP2 MSTORE PUSH1 0x20 PUSH1 0x4 DUP3 ADD MSTORE PUSH1 0x1F PUSH1 0x24 DUP3 ADD MSTORE PUSH32 0x4F726168526F757465723A204554485F5452414E534645525F4641494C454400 PUSH1 0x44 DUP3 ADD MSTORE PUSH1 0x64 SWAP1 REVERT JUMPDEST ISZERO PUSH2 0x1880 JUMPI JUMP JUMPDEST PUSH1 0x40 MLOAD PUSH3 0x461BCD PUSH1 0xE5 SHL DUP2 MSTORE PUSH1 0x20 PUSH1 0x4 DUP3 ADD MSTORE PUSH1 0x18 PUSH1 0x24 DUP3 ADD MSTORE PUSH32 0x4F726168526F757465723A20494E56414C49445F504154480000000000000000 PUSH1 0x44 DUP3 ADD MSTORE PUSH1 0x64 SWAP1 REVERT JUMPDEST PUSH8 0xFFFFFFFFFFFFFFFF DUP2 GT PUSH2 0x1229 JUMPI PUSH1 0x5 SHL PUSH1 0x20 ADD SWAP1 JUMP JUMPDEST SWAP1 PUSH2 0x18E7 DUP3 PUSH2 0x18C5 JUMP JUMPDEST PUSH2 0x18F4 PUSH1 0x40 MLOAD SWAP2 DUP3 PUSH2 0x123F JUMP JUMPDEST DUP3 DUP2 MSTORE DUP1 SWAP3 PUSH2 0x1905 PUSH1 0x1F NOT SWAP2 PUSH2 0x18C5 JUMP JUMPDEST ADD SWAP1 PUSH1 0x20 CALLDATASIZE SWAP2 ADD CALLDATACOPY JUMP JUMPDEST DUP1 MLOAD ISZERO PUSH2 0x191C JUMPI PUSH1 0x20 ADD SWAP1 JUMP JUMPDEST PUSH4 0x4E487B71 PUSH1 0xE0 SHL PUSH1 0x0 MSTORE PUSH1 0x32 PUSH1 0x4 MSTORE PUSH1 0x24 PUSH1 0x0 REVERT JUMPDEST DUP1 MLOAD DUP3 LT ISZERO PUSH2 0x191C JUMPI PUSH1 0x20 SWAP2 PUSH1 0x5 SHL ADD ADD SWAP1 JUMP JUMPDEST PUSH1 0x0 NOT DUP2 EQ PUSH2 0x171A JUMPI PUSH1 0x1 ADD SWAP1 JUMP JUMPDEST SWAP2 SWAP1 DUP2 LT ISZERO PUSH2 0x191C JUMPI PUSH1 0x5 SHL ADD SWAP1 JUMP JUMPDEST CALLDATALOAD PUSH1 0x1 PUSH1 0x1 PUSH1 0xA0 SHL SUB DUP2 AND DUP2 SUB PUSH2 0x2D9 JUMPI SWAP1 JUMP JUMPDEST DUP1 ISZERO PUSH2 0x19D7 JUMPI DUP2 ISZERO SWAP3 DUP4 ISZERO DUP1 PUSH2 0x19CE JUMPI JUMPDEST PUSH2 0x1993 SWAP1 PUSH2 0x16B0 JUMP JUMPDEST PUSH2 0x3E5 DUP1 DUP4 MUL SWAP3 DUP4 DIV SUB PUSH2 0x171A JUMPI PUSH2 0x19AB SWAP1 DUP3 PUSH2 0x1707 JUMP JUMPDEST SWAP3 PUSH2 0x3E8 DUP1 DUP5 MUL SWAP4 DUP5 DIV EQ OR ISZERO PUSH2 0x171A JUMPI DUP2 ADD DUP1 SWAP2 GT PUSH2 0x171A JUMPI PUSH2 0x139A SWAP2 PUSH2 0x1730 JUMP JUMPDEST POP DUP1 ISZERO ISZERO PUSH2 0x198A JUMP JUMPDEST PUSH1 0x40 MLOAD PUSH3 0x461BCD PUSH1 0xE5 SHL DUP2 MSTORE PUSH1 0x20 PUSH1 0x4 DUP3 ADD MSTORE PUSH1 0x25 PUSH1 0x24 DUP3 ADD MSTORE PUSH32 0x4F726168526F757465723A20494E53554646494349454E545F494E5055545F41 PUSH1 0x44 DUP3 ADD MSTORE PUSH5 0x1353D55395 PUSH1 0xDA SHL PUSH1 0x64 DUP3 ADD MSTORE PUSH1 0x84 SWAP1 REVERT JUMPDEST ISZERO PUSH2 0x1A31 JUMPI JUMP JUMPDEST PUSH1 0x40 MLOAD PUSH3 0x461BCD PUSH1 0xE5 SHL DUP2 MSTORE PUSH1 0x20 PUSH1 0x4 DUP3 ADD MSTORE PUSH1 0x26 PUSH1 0x24 DUP3 ADD MSTORE PUSH32 0x4F726168526F757465723A20494E53554646494349454E545F4F55545055545F PUSH1 0x44 DUP3 ADD MSTORE PUSH6 0x105353D55395 PUSH1 0xD2 SHL PUSH1 0x64 DUP3 ADD MSTORE PUSH1 0x84 SWAP1 REVERT JUMPDEST SWAP2 SWAP1 DUP3 PUSH2 0x1AA8 SWAP2 PUSH2 0x1A97 DUP3 ISZERO ISZERO PUSH2 0x1A2A JUMP JUMPDEST DUP1 ISZERO ISZERO DUP1 PUSH2 0x1AF1 JUMPI PUSH2 0x1770 SWAP1 PUSH2 0x16B0 JUMP JUMPDEST SWAP2 PUSH2 0x3E8 SWAP3 DUP4 DUP2 MUL SWAP4 DUP2 DUP6 DIV EQ SWAP1 ISZERO OR ISZERO PUSH2 0x171A JUMPI PUSH2 0x1AC6 SWAP2 PUSH2 0x17E0 JUMP JUMPDEST PUSH2 0x3E5 SWAP1 DUP2 DUP2 MUL SWAP2 DUP2 DUP4 DIV EQ SWAP1 ISZERO OR ISZERO PUSH2 0x171A JUMPI PUSH2 0x1AE3 SWAP2 PUSH2 0x1730 JUMP JUMPDEST PUSH1 0x1 DUP2 ADD DUP1 SWAP2 GT PUSH2 0x171A JUMPI SWAP1 JUMP JUMPDEST POP DUP4 ISZERO ISZERO PUSH2 0x1767 JUMP JUMPDEST PUSH1 0x20 SWAP1 DUP2 DUP2 DUP5 SUB SLT PUSH2 0x2D9 JUMPI DUP1 MLOAD SWAP1 PUSH8 0xFFFFFFFFFFFFFFFF DUP3 GT PUSH2 0x2D9 JUMPI ADD SWAP2 DUP1 PUSH1 0x1F DUP5 ADD SLT ISZERO PUSH2 0x2D9 JUMPI DUP3 MLOAD PUSH2 0x1B30 DUP2 PUSH2 0x18C5 JUMP JUMPDEST SWAP4 PUSH2 0x1B3E PUSH1 0x40 MLOAD SWAP6 DUP7 PUSH2 0x123F JUMP JUMPDEST DUP2 DUP6 MSTORE DUP4 DUP1 DUP7 ADD SWAP3 PUSH1 0x5 SHL DUP3 ADD ADD SWAP3 DUP4 GT PUSH2 0x2D9 JUMPI DUP4 ADD SWAP1 JUMPDEST DUP3 DUP3 LT PUSH2 0x1B65 JUMPI POP POP POP POP SWAP1 JUMP JUMPDEST DUP2 MLOAD DUP2 MSTORE SWAP1 DUP4 ADD SWAP1 DUP4 ADD PUSH2 0x1B57 JUMP JUMPDEST PUSH1 0x60 SWAP1 SWAP4 SWAP2 SWAP3 SWAP4 PUSH1 0x40 DUP2 ADD SWAP4 DUP2 MSTORE DUP3 PUSH1 0x20 SWAP5 PUSH1 0x40 DUP7 DUP5 ADD MSTORE MSTORE ADD SWAP3 SWAP2 PUSH1 0x0 JUMPDEST DUP3 DUP2 LT PUSH2 0x1BA1 JUMPI POP POP POP POP SWAP1 JUMP JUMPDEST SWAP1 SWAP2 SWAP3 SWAP4 DUP3 DUP1 PUSH1 0x1 SWAP3 DUP4 DUP1 PUSH1 0xA0 SHL SUB PUSH2 0x1BB9 DUP10 PUSH2 0x1059 JUMP JUMPDEST AND DUP2 MSTORE ADD SWAP6 ADD SWAP4 SWAP3 SWAP2 ADD PUSH2 0x1B93 JUMP JUMPDEST SWAP3 SWAP2 PUSH2 0x1BD3 DUP3 PUSH2 0x18C5 JUMP JUMPDEST SWAP2 PUSH2 0x1BE1 PUSH1 0x40 MLOAD SWAP4 DUP5 PUSH2 0x123F JUMP JUMPDEST DUP3 SWAP5 DUP2 DUP5 MSTORE PUSH1 0x20 DUP1 SWAP5 ADD SWAP2 PUSH1 0x5 SHL DUP2 ADD SWAP3 DUP4 GT PUSH2 0x2D9 JUMPI SWAP1 JUMPDEST DUP3 DUP3 LT PUSH2 0x1C07 JUMPI POP POP POP POP JUMP JUMPDEST DUP4 DUP1 SWAP2 PUSH2 0x1C13 DUP5 PUSH2 0x1059 JUMP JUMPDEST DUP2 MSTORE ADD SWAP2 ADD SWAP1 PUSH2 0x1BFA JUMP JUMPDEST SWAP1 SWAP3 SWAP2 PUSH1 0x0 JUMPDEST DUP5 MLOAD PUSH1 0x0 NOT DUP2 ADD SWAP1 DUP2 GT PUSH2 0x171A JUMPI DUP2 LT ISZERO PUSH2 0x1DCC JUMPI PUSH1 0x1 PUSH1 0x1 PUSH1 0xA0 SHL SUB DUP1 PUSH2 0x1C4C DUP4 DUP9 PUSH2 0x1932 JUMP JUMPDEST MLOAD AND SWAP1 PUSH1 0x1 DUP4 ADD SWAP2 DUP3 DUP5 GT PUSH2 0x171A JUMPI DUP2 PUSH2 0x1C66 DUP5 DUP11 PUSH2 0x1932 JUMP JUMPDEST MLOAD AND SWAP1 DUP2 DUP2 LT ISZERO PUSH2 0x1DC1 JUMPI DUP3 PUSH2 0x1C7E DUP3 SWAP6 JUMPDEST DUP10 PUSH2 0x1932 JUMP JUMPDEST MLOAD SWAP5 AND DUP2 SUB PUSH2 0x1DB9 JUMPI PUSH1 0x0 SWAP4 SWAP2 JUMPDEST DUP10 MLOAD PUSH1 0x1 NOT DUP2 ADD SWAP1 DUP2 GT PUSH2 0x171A JUMPI DUP5 SWAP1 DUP8 LT ISZERO PUSH2 0x1DAD JUMPI POP PUSH1 0x2 DUP7 ADD DUP1 DUP8 GT PUSH2 0x171A JUMPI DUP5 SWAP2 PUSH2 0x1CCA DUP4 PUSH2 0x1CC2 PUSH2 0x1CD0 SWAP5 DUP16 PUSH2 0x1932 JUMP JUMPDEST MLOAD AND DUP3 PUSH2 0x130D JUMP JUMPDEST SWAP4 PUSH2 0x130D JUMP JUMPDEST AND SWAP2 PUSH1 0x40 SWAP4 DUP5 MLOAD SWAP3 PUSH1 0x20 SWAP3 DUP4 DUP6 ADD DUP6 DUP2 LT PUSH8 0xFFFFFFFFFFFFFFFF DUP3 GT OR PUSH2 0x1229 JUMPI DUP8 MSTORE PUSH1 0x0 DUP6 MSTORE DUP6 EXTCODESIZE ISZERO PUSH2 0x2D9 JUMPI DUP7 MLOAD PUSH4 0x22C0D9F PUSH1 0xE0 SHL DUP2 MSTORE PUSH1 0x4 DUP2 ADD SWAP9 SWAP1 SWAP9 MSTORE PUSH1 0x24 DUP9 ADD MSTORE AND PUSH1 0x44 DUP7 ADD MSTORE PUSH1 0x80 PUSH1 0x64 DUP7 ADD MSTORE DUP2 MLOAD PUSH1 0x84 DUP7 ADD DUP2 SWAP1 MSTORE SWAP2 SWAP3 DUP6 SWAP3 SWAP1 SWAP2 PUSH1 0x0 JUMPDEST DUP3 DUP2 LT PUSH2 0x1D96 JUMPI POP POP PUSH1 0x0 DUP1 SWAP5 POP DUP4 SWAP2 DUP3 PUSH1 0xA4 SWAP2 DUP4 DUP4 DUP3 DUP5 ADD ADD MSTORE PUSH1 0x1F DUP1 NOT SWAP2 ADD AND DUP2 ADD SUB ADD SWAP3 GAS CALL SWAP1 DUP2 ISZERO PUSH2 0x1D8C JUMPI POP SWAP1 PUSH2 0x1D78 SWAP3 SWAP2 PUSH2 0x1D7D JUMPI JUMPDEST POP PUSH2 0x1946 JUMP JUMPDEST PUSH2 0x1C24 JUMP JUMPDEST PUSH2 0x1D86 SWAP1 PUSH2 0x1215 JUMP JUMPDEST CODESIZE PUSH2 0x1D72 JUMP JUMPDEST MLOAD RETURNDATASIZE PUSH1 0x0 DUP3 RETURNDATACOPY RETURNDATASIZE SWAP1 REVERT JUMPDEST DUP1 DUP7 ADD DUP3 ADD MLOAD DUP9 DUP3 ADD PUSH1 0xA4 ADD MSTORE DUP8 SWAP5 POP DUP2 ADD PUSH2 0x1D36 JUMP JUMPDEST SWAP1 PUSH2 0x1CD0 SWAP1 DUP9 SWAP4 PUSH2 0x130D JUMP JUMPDEST PUSH1 0x0 SWAP2 PUSH2 0x1C8C JUMP JUMPDEST DUP3 PUSH2 0x1C7E DUP4 SWAP6 PUSH2 0x1C78 JUMP JUMPDEST POP POP POP SWAP1 POP JUMP INVALID LOG2 PUSH5 0x6970667358 0x22 SLT KECCAK256 PUSH11 0x1AC066CB094301385FE311 DIV 0xD2 SWAP4 SHR INVALID CODESIZE 0xAC PUSH14 0x8DB065518FE809772519D2E06473 PUSH16 0x6C634300081400330000000000000000 "},"methodIdentifiers":{"WETH()":"ad5c4648","addLiquidity(address,address,uint256,uint256,uint256,uint256,address,uint256)":"e8e33700","addLiquidityETH(address,uint256,uint256,uint256,address,uint256)":"f305d719","factory()":"c45a0155","getAmountIn(uint256,uint256,uint256)":"85f8c259","getAmountOut(uint256,uint256,uint256)":"054d50d4","getAmountsIn(uint256,address[])":"1f00ca74","getAmountsOut(uint256,address[])":"d06ca61f","quote(uint256,uint256,uint256)":"ad615dec","removeLiquidity(address,address,uint256,uint256,uint256,address,uint256)":"baa2abde","removeLiquidityETH(address,uint256,uint256,uint256,address,uint256)":"02751cec","swapExactETHForTokens(uint256,address[],address,uint256)":"7ff36ab5","swapExactTokensForETH(uint256,uint256,address[],address,uint256)":"18cbafe5","swapExactTokensForTokens(uint256,uint256,address[],address,uint256)":"38ed1739"}}}}}