{"contracts/OrahPair.sol":{"OrahPair":{"abi":[{"inputs":[],"stateMutability":"nonpayable","type":"constructor"},{"inputs":[{"internalType":"address","name":"spender","type":"address"},{"internalType":"uint256","name":"allowance","type":"uint256"},{"internalType":"uint256","name":"needed","type":"uint256"}],"name":"ERC20InsufficientAllowance","type":"error"},{"inputs":[{"internalType":"address","name":"sender","type":"address"},{"internalType":"uint256","name":"balance","type":"uint256"},{"internalType":"uint256","name":"needed","type":"uint256"}],"name":"ERC20InsufficientBalance","type":"error"},{"inputs":[{"internalType":"address","name":"approver","type":"address"}],"name":"ERC20InvalidApprover","type":"error"},{"inputs":[{"internalType":"address","name":"receiver","type":"address"}],"name":"ERC20InvalidReceiver","type":"error"},{"inputs":[{"internalType":"address","name":"sender","type":"address"}],"name":"ERC20InvalidSender","type":"error"},{"inputs":[{"internalType":"address","name":"spender","type":"address"}],"name":"ERC20InvalidSpender","type":"error"},{"inputs":[],"name":"ReentrancyGuardReentrantCall","type":"error"},{"inputs":[{"internalType":"address","name":"token","type":"address"}],"name":"SafeERC20FailedOperation","type":"error"},{"anonymous":false,"inputs":[{"indexed":true,"internalType":"address","name":"owner","type":"address"},{"indexed":true,"internalType":"address","name":"spender","type":"address"},{"indexed":false,"internalType":"uint256","name":"value","type":"uint256"}],"name":"Approval","type":"event"},{"anonymous":false,"inputs":[{"indexed":true,"internalType":"address","name":"sender","type":"address"},{"indexed":false,"internalType":"uint256","name":"amount0","type":"uint256"},{"indexed":false,"internalType":"uint256","name":"amount1","type":"uint256"},{"indexed":true,"internalType":"address","name":"to","type":"address"}],"name":"Burn","type":"event"},{"anonymous":false,"inputs":[{"indexed":true,"internalType":"address","name":"sender","type":"address"},{"indexed":false,"internalType":"uint256","name":"amount0","type":"uint256"},{"indexed":false,"internalType":"uint256","name":"amount1","type":"uint256"}],"name":"Mint","type":"event"},{"anonymous":false,"inputs":[{"indexed":true,"internalType":"address","name":"sender","type":"address"},{"indexed":false,"internalType":"uint256","name":"amount0In","type":"uint256"},{"indexed":false,"internalType":"uint256","name":"amount1In","type":"uint256"},{"indexed":false,"internalType":"uint256","name":"amount0Out","type":"uint256"},{"indexed":false,"internalType":"uint256","name":"amount1Out","type":"uint256"},{"indexed":true,"internalType":"address","name":"to","type":"address"}],"name":"Swap","type":"event"},{"anonymous":false,"inputs":[{"indexed":false,"internalType":"uint112","name":"reserve0","type":"uint112"},{"indexed":false,"internalType":"uint112","name":"reserve1","type":"uint112"}],"name":"Sync","type":"event"},{"anonymous":false,"inputs":[{"indexed":true,"internalType":"address","name":"from","type":"address"},{"indexed":true,"internalType":"address","name":"to","type":"address"},{"indexed":false,"internalType":"uint256","name":"value","type":"uint256"}],"name":"Transfer","type":"event"},{"inputs":[],"name":"DEAD","outputs":[{"internalType":"address","name":"","type":"address"}],"stateMutability":"view","type":"function"},{"inputs":[],"name":"MINIMUM_LIQUIDITY","outputs":[{"internalType":"uint256","name":"","type":"uint256"}],"stateMutability":"view","type":"function"},{"inputs":[{"internalType":"address","name":"owner","type":"address"},{"internalType":"address","name":"spender","type":"address"}],"name":"allowance","outputs":[{"internalType":"uint256","name":"","type":"uint256"}],"stateMutability":"view","type":"function"},{"inputs":[{"internalType":"address","name":"spender","type":"address"},{"internalType":"uint256","name":"value","type":"uint256"}],"name":"approve","outputs":[{"internalType":"bool","name":"","type":"bool"}],"stateMutability":"nonpayable","type":"function"},{"inputs":[{"internalType":"address","name":"account","type":"address"}],"name":"balanceOf","outputs":[{"internalType":"uint256","name":"","type":"uint256"}],"stateMutability":"view","type":"function"},{"inputs":[{"internalType":"address","name":"to","type":"address"}],"name":"burn","outputs":[{"internalType":"uint256","name":"amount0","type":"uint256"},{"internalType":"uint256","name":"amount1","type":"uint256"}],"stateMutability":"nonpayable","type":"function"},{"inputs":[],"name":"decimals","outputs":[{"internalType":"uint8","name":"","type":"uint8"}],"stateMutability":"pure","type":"function"},{"inputs":[],"name":"factory","outputs":[{"internalType":"address","name":"","type":"address"}],"stateMutability":"view","type":"function"},{"inputs":[],"name":"getReserves","outputs":[{"internalType":"uint112","name":"_reserve0","type":"uint112"},{"internalType":"uint112","name":"_reserve1","type":"uint112"},{"internalType":"uint32","name":"_blockTimestampLast","type":"uint32"}],"stateMutability":"view","type":"function"},{"inputs":[{"internalType":"address","name":"_token0","type":"address"},{"internalType":"address","name":"_token1","type":"address"}],"name":"initialize","outputs":[],"stateMutability":"nonpayable","type":"function"},{"inputs":[{"internalType":"address","name":"to","type":"address"}],"name":"mint","outputs":[{"internalType":"uint256","name":"liquidity","type":"uint256"}],"stateMutability":"nonpayable","type":"function"},{"inputs":[],"name":"name","outputs":[{"internalType":"string","name":"","type":"string"}],"stateMutability":"view","type":"function"},{"inputs":[{"internalType":"uint256","name":"amount0Out","type":"uint256"},{"internalType":"uint256","name":"amount1Out","type":"uint256"},{"internalType":"address","name":"to","type":"address"},{"internalType":"bytes","name":"","type":"bytes"}],"name":"swap","outputs":[],"stateMutability":"nonpayable","type":"function"},{"inputs":[],"name":"symbol","outputs":[{"internalType":"string","name":"","type":"string"}],"stateMutability":"view","type":"function"},{"inputs":[],"name":"sync","outputs":[],"stateMutability":"nonpayable","type":"function"},{"inputs":[],"name":"token0","outputs":[{"internalType":"address","name":"","type":"address"}],"stateMutability":"view","type":"function"},{"inputs":[],"name":"token1","outputs":[{"internalType":"address","name":"","type":"address"}],"stateMutability":"view","type":"function"},{"inputs":[],"name":"totalSupply","outputs":[{"internalType":"uint256","name":"","type":"uint256"}],"stateMutability":"view","type":"function"},{"inputs":[{"internalType":"address","name":"to","type":"address"},{"internalType":"uint256","name":"value","type":"uint256"}],"name":"transfer","outputs":[{"internalType":"bool","name":"","type":"bool"}],"stateMutability":"nonpayable","type":"function"},{"inputs":[{"internalType":"address","name":"from","type":"address"},{"internalType":"address","name":"to","type":"address"},{"internalType":"uint256","name":"value","type":"uint256"}],"name":"transferFrom","outputs":[{"internalType":"bool","name":"","type":"bool"}],"stateMutability":"nonpayable","type":"function"}],"evm":{"bytecode":{"linkReferences":{},"object":"60803462000361576001600160401b03906040908082018381118282101762000261578252601081526020926f27b930b42222ac102628102a37b5b2b760811b848301528251908382018281108282111762000261578452600782526604f5241482d4c560cc1b85830152825181811162000261576003908154906001958683811c9316801562000356575b8984101462000340578190601f93848111620002ea575b508990848311600114620002835760009262000277575b505060001982851b1c191690861b1782555b835192831162000261576004938454978689811c9916801562000256575b818a101462000241578883869798999a11620001e5575b50809285116001146200017757506000936200016b575b505082851b92600019911b1c19161790555b7f9b779b17422d0df92223018b32b4d1fa46e071723d6817e2486d003becc55f0055600580546001600160a01b0319163317905551611a559081620003678239f35b01519150388062000117565b929190879550601f1985168760005284600020946000905b828210620001cb5750508511620001b0575b50505050811b01905562000129565b01519060f884600019921b161c1916905538808080620001a1565b8484015187558a989096019593840193908101906200018f565b90919293945086600052816000208480880160051c82019284891062000237575b918a91899897969594930160051c01915b8281106200022757505062000100565b600081558897508a910162000217565b9250819262000206565b602286634e487b7160e01b6000525260246000fd5b98607f1698620000e9565b634e487b7160e01b600052604160045260246000fd5b015190503880620000b9565b90889350601f19831691866000528b6000209260005b8d828210620002d35750508411620002ba575b505050811b018255620000cb565b015160001983871b60f8161c19169055388080620002ac565b8385015186558c9790950194938401930162000299565b90915084600052896000208480850160051c8201928c861062000336575b918a91869594930160051c01915b82811062000326575050620000a2565b600081558594508a910162000316565b9250819262000308565b634e487b7160e01b600052602260045260246000fd5b92607f16926200008b565b600080fdfe6080604052600436101561001257600080fd5b60003560e01c8063022c0d9f14610f7457806303fd2a4514610f5757806306fdde0314610eb35780630902f1ac14610e5a578063095ea7b314610dd45780630dfe168114610dab57806318160ddd14610d8d57806323b872dd14610c9b578063313ce56714610c7f578063485cc95514610be35780636a627842146107e057806370a08231146107a657806389afcb44146103dd57806395d89b4114610399578063a9059cbb14610368578063ba9a7a561461034b578063c45a015514610322578063d21220a7146102f9578063dd62ed3e146102a85763fff6cae9146100f857600080fd5b3461025f57600036600319011261025f57610111611715565b6006546040516370a0823160e01b808252306004830152916020916001600160a01b039183908290602490829086165afa91821561026b578391600093610277575b50600754169360246040518096819382523060048301525afa92831561026b57600093610237575b506001600160701b0390818111158061022d575b156101f3579181600080516020611a00833981519152949260409416928363ffffffff60e01b4260e01b16916001600160701b0360701b9060701b16171780600855845193845260701c1690820152a160016000805160206119e083398151915255005b60405162461bcd60e51b81526004810184905260126024820152714f726168506169723a204f564552464c4f5760701b6044820152606490fd5b508184111561018f565b9092508181813d8311610264575b61024f81836116b3565b8101031261025f5751913861017b565b600080fd5b503d610245565b6040513d6000823e3d90fd5b8281939294503d83116102a1575b61028f81836116b3565b8101031261025f578290519138610153565b503d610285565b3461025f57604036600319011261025f576102c161152d565b6102c9611543565b9060018060a01b038091166000526001602052604060002091166000526020526020604060002054604051908152f35b3461025f57600036600319011261025f576007546040516001600160a01b039091168152602090f35b3461025f57600036600319011261025f576005546040516001600160a01b039091168152602090f35b3461025f57600036600319011261025f5760206040516103e88152f35b3461025f57604036600319011261025f5761038e61038461152d565b60243590336115a8565b602060405160018152f35b3461025f57600036600319011261025f576103d96040516103b981611681565b600781526604f5241482d4c560cc1b60208201526040519182918261157c565b0390f35b3461025f5760208060031936011261025f576103f761152d565b90610400611715565b60018060a01b03806006541691816007541693604051926370a0823160e01b95868552306004860152602496848689818a5afa95861561026b57600096610777575b506040519681885230600489015285888a81865afa97881561026b57600098610748575b50306000526000865261049a61048e61048e6104936040600020549a6002549384918d6116e2565b6116f5565b9a8a6116e2565b968815158061073f575b156106eb5730156106d35730600052600087526040600020548181106106ab579160008289938d9530845283865203604083205580600254036002556040519081526000805160206119c0833981519152843092a36105048a8883611745565b61050f898887611745565b604051928380928682523060048301525afa91821561026b57869160009361067a575b50896040518095819382523060048301525afa91821561026b5760009261064b575b506001600160701b03908181111580610641575b15610608576040985091818992600080516020611a008339815191529416918263ffffffff60e01b4260e01b16916001600160701b0360701b9060701b16171780600855835192835260701c1686820152a1855191858352848484015216907fdccd412f0b1252819cb1fd330b93224ca42612892bb3f4f789976e6d81936496863392a360016000805160206119e0833981519152558351928352820152f35b60405162461bcd60e51b8152600481018790526012818b0152714f726168506169723a204f564552464c4f5760701b6044820152606490fd5b5081831115610568565b9091508481813d8311610673575b61066381836116b3565b8101031261025f57519088610554565b503d610659565b8281939294503d83116106a4575b61069281836116b3565b8101031261025f57859051918a610532565b503d610688565b60405163391434e360e21b815230600482015260248101919091526044810191909152606490fd5b604051634b637e8f60e11b8152600060048201528a90fd5b60405162461bcd60e51b8152600481018890526027818c01527f4f726168506169723a20494e53554646494349454e545f4c495155494449545960448201526617d0955493915160ca1b6064820152608490fd5b508715156104a4565b9097508581813d8311610770575b61076081836116b3565b8101031261025f57519689610466565b503d610756565b9095508481813d831161079f575b61078f81836116b3565b8101031261025f57519488610442565b503d610785565b3461025f57602036600319011261025f576001600160a01b036107c761152d565b1660005260006020526020604060002054604051908152f35b3461025f5760208060031936011261025f576107fa61152d565b610802611715565b6108216008546001600160701b0391828216928260701c169160e01c90565b50909160018060a01b03928360065416906040518087816370a0823160e01b9586825230600483015260249384915afa91821561026b57600092610bb4575b5087876007541694826040518097819382523060048301525afa93841561026b57600094610b85575b506001600160701b0380931696836108a189856116d5565b9716956108ae87876116d5565b96600254998a15600014610b505750506108c887896116e2565b60006003821115610b4257508060019080821c828101809111610b2d5791905b838310610b0d575050505b6103e7198101908111610af857986103e890818101809111610ae35760025560006000805160206119c08339815191528c61dead9384845283825260408420818154019055604051908152a35b8815610a8f57168015610a785761095988600254611674565b6002558060005260008952604060002088815401905560006000805160206119c08339815191528a6040518b8152a38282111580610a6e575b15610a365750607092831b6dffffffffffffffffffffffffffff60701b169082169081174260e01b6001600160e01b03191617600881905560408051928352931c90911686820152600080516020611a008339815191529190a1604051918252838201527f4c209b5fc8ad50758f13e2e1088ba56a560dff690a1c6fef26394f4c03821c4f60403392a260016000805160206119e083398151915255604051908152f35b8760126064926040519262461bcd60e51b84526004840152820152714f726168506169723a204f564552464c4f5760701b6044820152fd5b5082841115610992565b5060405163ec442f0560e01b815260006004820152fd5b60405162461bcd60e51b8152600481018b90526027818501527f4f726168506169723a20494e53554646494349454e545f4c495155494449545960448201526617d3525395115160ca1b6064820152608490fd5b84634e487b7160e01b60005260116004526000fd5b83634e487b7160e01b60005260116004526000fd5b90919250610b2483610b1f81846116f5565b611674565b821c91906108e8565b86634e487b7160e01b60005260116004526000fd5b90156108f3575060016108f3565b9061048e610b67610b6e9361048e8e969e8e6116e2565b938a6116e2565b80821015610b7e57505b97610940565b9050610b78565b9093508781813d8311610bad575b610b9d81836116b3565b8101031261025f57519288610889565b503d610b93565b9091508781813d8311610bdc575b610bcc81836116b3565b8101031261025f57519088610860565b503d610bc2565b3461025f57604036600319011261025f57610bfc61152d565b610c04611543565b6005546001600160a01b03919082163303610c4457816bffffffffffffffffffffffff60a01b931683600654161760065516906007541617600755600080f35b60405162461bcd60e51b815260206004820152601360248201527227b930b42830b4b91d102327a92124a22222a760691b6044820152606490fd5b3461025f57600036600319011261025f57602060405160128152f35b3461025f57606036600319011261025f57610cb461152d565b610cbc611543565b6001600160a01b03821660008181526001602090815260408083203384529091529020549260443592916000198510610cfb575b5061038e93506115a8565b838510610d67578015610d4e573315610d355761038e94849160005260016020526040600020336000526020520360406000205584610cf0565b604051634a1406b160e11b815260006004820152602490fd5b60405163e602df0560e01b815260006004820152602490fd5b604051637dc7a0d960e11b81523360048201526024810186905260448101859052606490fd5b3461025f57600036600319011261025f576020600254604051908152f35b3461025f57600036600319011261025f576006546040516001600160a01b039091168152602090f35b3461025f57604036600319011261025f57610ded61152d565b602435903315610d4e576001600160a01b0316908115610d3557336000526001602052604060002082600052602052806040600020556040519081527f8c5be1e5ebec7d5bd14f71427d1e84f3dd0314c0f7b2291e5b200ac8c7c3b92560203392a3602060405160018152f35b3461025f57600036600319011261025f57606063ffffffff610e916008546001600160701b0391828216928260701c169160e01c90565b909291604051936001600160701b038092168552166020840152166040820152f35b3461025f57600036600319011261025f576103d960018060a01b03610f4b602d610eed610ee384600654166117c6565b93600754166117c6565b926040519384916b027b930b42222ac1026281d160a51b6020840152610f1d815180926020602c87019101611559565b8201602f60f81b602c820152610f3c8251809360208785019101611559565b0103600d8101845201826116b3565b6040519182918261157c565b3461025f57600036600319011261025f57602060405161dead8152f35b3461025f57608036600319011261025f576001600160a01b036044358181169182820361025f5760643567ffffffffffffffff80821161025f573660238301121561025f57816004013590811161025f573691016024011161025f57610fd8611715565b600435159081158092611522575b156114d15761100a6008546001600160701b0391828216928260701c169160e01c90565b509390926001600160701b03841660043510806114bd575b1561147957826006541690818714158061146b575b1561142f5761141b575b50602435611403575b50806006541690604051906020826024816370a0823160e01b968782523060048301525afa91821561026b576000926113ce575b50602090600754169260246040518095819382523060048301525afa91821561026b5760009261139a575b506110bf6004356001600160701b0385166116d5565b811115611392576110e46110de6004356001600160701b0386166116d5565b826116d5565b935b6110fb6024356001600160701b0383166116d5565b83111561138a5761112061111a6024356001600160701b0384166116d5565b846116d5565b935b8515158615611381575b1561133057826103e88102046103e8148315171561131a57600386028681046003148715171561131a57611164906103e885026116d5565b906103e88502918583046103e8148615171561131a5760038702928784046003148815171561131a576111ad6001600160701b03926111a76111b69685946116d5565b906116e2565b941691166116e2565b906103e88202918083046103e8148115171561131a57620f424002918083046103e8149015171561131a57106112e7576001600160701b03811115806112d6575b1561129c57600080516020611a00833981519152916001600160701b038060409316918263ffffffff60e01b4260e01b16918360701b9060701b16171780600855835192835260701c166020820152a16040519182526020820152600435604082015260243560608201527fd78ad95fa46c994b6551d0da85fc275fe613ce37657fb8d5e3d130840159d82260803392a360016000805160206119e083398151915255005b60405162461bcd60e51b81526020600482015260126024820152714f726168506169723a204f564552464c4f5760701b6044820152606490fd5b506001600160701b038211156111f7565b60405162461bcd60e51b815260206004820152600b60248201526a4f726168506169723a204b60a81b6044820152606490fd5b634e487b7160e01b600052601160045260246000fd5b60405162461bcd60e51b815260206004820152602360248201527f4f726168506169723a20494e53554646494349454e545f494e5055545f414d4f60448201526215539560ea1b6064820152608490fd5b5084151561112c565b600093611122565b6000936110e6565b9091506020813d6020116113c6575b816113b6602093836116b3565b8101031261025f575190856110a9565b3d91506113a9565b9091506020813d6020116113fb575b816113ea602093836116b3565b8101031261025f575190602061107e565b3d91506113dd565b61141590602435908360075416611745565b8461104a565b611429908260043591611745565b85611041565b60405162461bcd60e51b81526020600482015260146024820152734f726168506169723a20494e56414c49445f544f60601b6044820152606490fd5b508360075416871415611037565b606460405162461bcd60e51b815260206004820152602060248201527f4f726168506169723a20494e53554646494349454e545f4c49515549444954596044820152fd5b506001600160701b03851660243510611022565b60405162461bcd60e51b8152602060048201526024808201527f4f726168506169723a20494e53554646494349454e545f4f55545055545f414d60448201526313d5539560e21b6064820152608490fd5b506024351515610fe6565b600435906001600160a01b038216820361025f57565b602435906001600160a01b038216820361025f57565b60005b83811061156c5750506000910152565b818101518382015260200161155c565b6040916020825261159c8151809281602086015260208686019101611559565b601f01601f1916010190565b916001600160a01b0380841692831561165b57169283156116425760009083825281602052604082205490838210611610575091604082826000805160206119c0833981519152958760209652828652038282205586815220818154019055604051908152a3565b60405163391434e360e21b81526001600160a01b03919091166004820152602481019190915260448101839052606490fd5b60405163ec442f0560e01b815260006004820152602490fd5b604051634b637e8f60e11b815260006004820152602490fd5b9190820180921161131a57565b6040810190811067ffffffffffffffff82111761169d57604052565b634e487b7160e01b600052604160045260246000fd5b90601f8019910116810190811067ffffffffffffffff82111761169d57604052565b9190820391821161131a57565b8181029291811591840414171561131a57565b81156116ff570490565b634e487b7160e01b600052601260045260246000fd5b6000805160206119e083398151915260028154146117335760029055565b604051633ee5aeb560e01b8152600490fd5b60405163a9059cbb60e01b60009081526001600160a01b039384166004526024949094529260209060448180855af16001600051148116156117a6575b836040521561179057505050565b635274afe760e01b835216600482015260249150fd5b60018115166117bc57813b15153d151616611782565b833d6000823e3d90fd5b60405160208101916bffffffffffffffffffffffff199060601b168252601481526117f081611681565b604051916117fd83611681565b600883526020830160203682378351156119a957603090538251600110156119a957607860218401538151156119a957805160fc1c91601091828410156119a9578451600210156119a9576f181899199a1a9b1b9c1cb0b131b232b360811b9384901a60228601538151156119a9575160f81c600f16828110156119a9578451600310156119a95783901a60238501538051600110156119a95760218101805160fc1c91838310156119a95785519160049283101561199457856024941a84880153815160011015611980575160f81c600f1684811015611980578651600510156119805785901a6025870153805160021015611958576022810190815160fc1c8581101561196c5787516006101561196c5786901a60268801535160021015611958575160f81c600f1692831015611945578451600710156119455750501a602782015390565b603290634e487b7160e01b600052526000fd5b50603290634e487b7160e01b600052526000fd5b84603285634e487b7160e01b600052526000fd5b83603284634e487b7160e01b600052526000fd5b603283634e487b7160e01b6000525260246000fd5b634e487b7160e01b600052603260045260246000fdfeddf252ad1be2c89b69c2b068fc378daa952ba7f163c4a11628f55a4df523b3ef9b779b17422d0df92223018b32b4d1fa46e071723d6817e2486d003becc55f001c411e9a96e071241c2f21f7726b17ae89e3cab4c78be50e062b03a9fffbbad1a26469706673582212207f9b30bf51459a4657a52d3cf151ca35b5004d34e19a0685fe7996fb52002ce464736f6c63430008140033","opcodes":"PUSH1 0x80 CALLVALUE PUSH3 0x361 JUMPI PUSH1 0x1 PUSH1 0x1 PUSH1 0x40 SHL SUB SWAP1 PUSH1 0x40 SWAP1 DUP1 DUP3 ADD DUP4 DUP2 GT DUP3 DUP3 LT OR PUSH3 0x261 JUMPI DUP3 MSTORE PUSH1 0x10 DUP2 MSTORE PUSH1 0x20 SWAP3 PUSH16 0x27B930B42222AC102628102A37B5B2B7 PUSH1 0x81 SHL DUP5 DUP4 ADD MSTORE DUP3 MLOAD SWAP1 DUP4 DUP3 ADD DUP3 DUP2 LT DUP3 DUP3 GT OR PUSH3 0x261 JUMPI DUP5 MSTORE PUSH1 0x7 DUP3 MSTORE PUSH7 0x4F5241482D4C5 PUSH1 0xCC SHL DUP6 DUP4 ADD MSTORE DUP3 MLOAD DUP2 DUP2 GT PUSH3 0x261 JUMPI PUSH1 0x3 SWAP1 DUP2 SLOAD SWAP1 PUSH1 0x1 SWAP6 DUP7 DUP4 DUP2 SHR SWAP4 AND DUP1 ISZERO PUSH3 0x356 JUMPI JUMPDEST DUP10 DUP5 LT EQ PUSH3 0x340 JUMPI DUP2 SWAP1 PUSH1 0x1F SWAP4 DUP5 DUP2 GT PUSH3 0x2EA JUMPI JUMPDEST POP DUP10 SWAP1 DUP5 DUP4 GT PUSH1 0x1 EQ PUSH3 0x283 JUMPI PUSH1 0x0 SWAP3 PUSH3 0x277 JUMPI JUMPDEST POP POP PUSH1 0x0 NOT DUP3 DUP6 SHL SHR NOT AND SWAP1 DUP7 SHL OR DUP3 SSTORE JUMPDEST DUP4 MLOAD SWAP3 DUP4 GT PUSH3 0x261 JUMPI PUSH1 0x4 SWAP4 DUP5 SLOAD SWAP8 DUP7 DUP10 DUP2 SHR SWAP10 AND DUP1 ISZERO PUSH3 0x256 JUMPI JUMPDEST DUP2 DUP11 LT EQ PUSH3 0x241 JUMPI DUP9 DUP4 DUP7 SWAP8 SWAP9 SWAP10 SWAP11 GT PUSH3 0x1E5 JUMPI JUMPDEST POP DUP1 SWAP3 DUP6 GT PUSH1 0x1 EQ PUSH3 0x177 JUMPI POP PUSH1 0x0 SWAP4 PUSH3 0x16B JUMPI JUMPDEST POP POP DUP3 DUP6 SHL SWAP3 PUSH1 0x0 NOT SWAP2 SHL SHR NOT AND OR SWAP1 SSTORE JUMPDEST PUSH32 0x9B779B17422D0DF92223018B32B4D1FA46E071723D6817E2486D003BECC55F00 SSTORE PUSH1 0x5 DUP1 SLOAD PUSH1 0x1 PUSH1 0x1 PUSH1 0xA0 SHL SUB NOT AND CALLER OR SWAP1 SSTORE MLOAD PUSH2 0x1A55 SWAP1 DUP2 PUSH3 0x367 DUP3 CODECOPY RETURN JUMPDEST ADD MLOAD SWAP2 POP CODESIZE DUP1 PUSH3 0x117 JUMP JUMPDEST SWAP3 SWAP2 SWAP1 DUP8 SWAP6 POP PUSH1 0x1F NOT DUP6 AND DUP8 PUSH1 0x0 MSTORE DUP5 PUSH1 0x0 KECCAK256 SWAP5 PUSH1 0x0 SWAP1 JUMPDEST DUP3 DUP3 LT PUSH3 0x1CB JUMPI POP POP DUP6 GT PUSH3 0x1B0 JUMPI JUMPDEST POP POP POP POP DUP2 SHL ADD SWAP1 SSTORE PUSH3 0x129 JUMP JUMPDEST ADD MLOAD SWAP1 PUSH1 0xF8 DUP5 PUSH1 0x0 NOT SWAP3 SHL AND SHR NOT AND SWAP1 SSTORE CODESIZE DUP1 DUP1 DUP1 PUSH3 0x1A1 JUMP JUMPDEST DUP5 DUP5 ADD MLOAD DUP8 SSTORE DUP11 SWAP9 SWAP1 SWAP7 ADD SWAP6 SWAP4 DUP5 ADD SWAP4 SWAP1 DUP2 ADD SWAP1 PUSH3 0x18F JUMP JUMPDEST SWAP1 SWAP2 SWAP3 SWAP4 SWAP5 POP DUP7 PUSH1 0x0 MSTORE DUP2 PUSH1 0x0 KECCAK256 DUP5 DUP1 DUP9 ADD PUSH1 0x5 SHR DUP3 ADD SWAP3 DUP5 DUP10 LT PUSH3 0x237 JUMPI JUMPDEST SWAP2 DUP11 SWAP2 DUP10 SWAP9 SWAP8 SWAP7 SWAP6 SWAP5 SWAP4 ADD PUSH1 0x5 SHR ADD SWAP2 JUMPDEST DUP3 DUP2 LT PUSH3 0x227 JUMPI POP POP PUSH3 0x100 JUMP JUMPDEST PUSH1 0x0 DUP2 SSTORE DUP9 SWAP8 POP DUP11 SWAP2 ADD PUSH3 0x217 JUMP JUMPDEST SWAP3 POP DUP2 SWAP3 PUSH3 0x206 JUMP JUMPDEST PUSH1 0x22 DUP7 PUSH4 0x4E487B71 PUSH1 0xE0 SHL PUSH1 0x0 MSTORE MSTORE PUSH1 0x24 PUSH1 0x0 REVERT JUMPDEST SWAP9 PUSH1 0x7F AND SWAP9 PUSH3 0xE9 JUMP JUMPDEST PUSH4 0x4E487B71 PUSH1 0xE0 SHL PUSH1 0x0 MSTORE PUSH1 0x41 PUSH1 0x4 MSTORE PUSH1 0x24 PUSH1 0x0 REVERT JUMPDEST ADD MLOAD SWAP1 POP CODESIZE DUP1 PUSH3 0xB9 JUMP JUMPDEST SWAP1 DUP9 SWAP4 POP PUSH1 0x1F NOT DUP4 AND SWAP2 DUP7 PUSH1 0x0 MSTORE DUP12 PUSH1 0x0 KECCAK256 SWAP3 PUSH1 0x0 JUMPDEST DUP14 DUP3 DUP3 LT PUSH3 0x2D3 JUMPI POP POP DUP5 GT PUSH3 0x2BA JUMPI JUMPDEST POP POP POP DUP2 SHL ADD DUP3 SSTORE PUSH3 0xCB JUMP JUMPDEST ADD MLOAD PUSH1 0x0 NOT DUP4 DUP8 SHL PUSH1 0xF8 AND SHR NOT AND SWAP1 SSTORE CODESIZE DUP1 DUP1 PUSH3 0x2AC JUMP JUMPDEST DUP4 DUP6 ADD MLOAD DUP7 SSTORE DUP13 SWAP8 SWAP1 SWAP6 ADD SWAP5 SWAP4 DUP5 ADD SWAP4 ADD PUSH3 0x299 JUMP JUMPDEST SWAP1 SWAP2 POP DUP5 PUSH1 0x0 MSTORE DUP10 PUSH1 0x0 KECCAK256 DUP5 DUP1 DUP6 ADD PUSH1 0x5 SHR DUP3 ADD SWAP3 DUP13 DUP7 LT PUSH3 0x336 JUMPI JUMPDEST SWAP2 DUP11 SWAP2 DUP7 SWAP6 SWAP5 SWAP4 ADD PUSH1 0x5 SHR ADD SWAP2 JUMPDEST DUP3 DUP2 LT PUSH3 0x326 JUMPI POP POP PUSH3 0xA2 JUMP JUMPDEST PUSH1 0x0 DUP2 SSTORE DUP6 SWAP5 POP DUP11 SWAP2 ADD PUSH3 0x316 JUMP JUMPDEST SWAP3 POP DUP2 SWAP3 PUSH3 0x308 JUMP JUMPDEST PUSH4 0x4E487B71 PUSH1 0xE0 SHL PUSH1 0x0 MSTORE PUSH1 0x22 PUSH1 0x4 MSTORE PUSH1 0x24 PUSH1 0x0 REVERT JUMPDEST SWAP3 PUSH1 0x7F AND SWAP3 PUSH3 0x8B JUMP JUMPDEST PUSH1 0x0 DUP1 REVERT INVALID PUSH1 0x80 PUSH1 0x40 MSTORE PUSH1 0x4 CALLDATASIZE LT ISZERO PUSH2 0x12 JUMPI PUSH1 0x0 DUP1 REVERT JUMPDEST PUSH1 0x0 CALLDATALOAD PUSH1 0xE0 SHR DUP1 PUSH4 0x22C0D9F EQ PUSH2 0xF74 JUMPI DUP1 PUSH4 0x3FD2A45 EQ PUSH2 0xF57 JUMPI DUP1 PUSH4 0x6FDDE03 EQ PUSH2 0xEB3 JUMPI DUP1 PUSH4 0x902F1AC EQ PUSH2 0xE5A JUMPI DUP1 PUSH4 0x95EA7B3 EQ PUSH2 0xDD4 JUMPI DUP1 PUSH4 0xDFE1681 EQ PUSH2 0xDAB JUMPI DUP1 PUSH4 0x18160DDD EQ PUSH2 0xD8D JUMPI DUP1 PUSH4 0x23B872DD EQ PUSH2 0xC9B JUMPI DUP1 PUSH4 0x313CE567 EQ PUSH2 0xC7F JUMPI DUP1 PUSH4 0x485CC955 EQ PUSH2 0xBE3 JUMPI DUP1 PUSH4 0x6A627842 EQ PUSH2 0x7E0 JUMPI DUP1 PUSH4 0x70A08231 EQ PUSH2 0x7A6 JUMPI DUP1 PUSH4 0x89AFCB44 EQ PUSH2 0x3DD JUMPI DUP1 PUSH4 0x95D89B41 EQ PUSH2 0x399 JUMPI DUP1 PUSH4 0xA9059CBB EQ PUSH2 0x368 JUMPI DUP1 PUSH4 0xBA9A7A56 EQ PUSH2 0x34B JUMPI DUP1 PUSH4 0xC45A0155 EQ PUSH2 0x322 JUMPI DUP1 PUSH4 0xD21220A7 EQ PUSH2 0x2F9 JUMPI DUP1 PUSH4 0xDD62ED3E EQ PUSH2 0x2A8 JUMPI PUSH4 0xFFF6CAE9 EQ PUSH2 0xF8 JUMPI PUSH1 0x0 DUP1 REVERT JUMPDEST CALLVALUE PUSH2 0x25F JUMPI PUSH1 0x0 CALLDATASIZE PUSH1 0x3 NOT ADD SLT PUSH2 0x25F JUMPI PUSH2 0x111 PUSH2 0x1715 JUMP JUMPDEST PUSH1 0x6 SLOAD PUSH1 0x40 MLOAD PUSH4 0x70A08231 PUSH1 0xE0 SHL DUP1 DUP3 MSTORE ADDRESS PUSH1 0x4 DUP4 ADD MSTORE SWAP2 PUSH1 0x20 SWAP2 PUSH1 0x1 PUSH1 0x1 PUSH1 0xA0 SHL SUB SWAP2 DUP4 SWAP1 DUP3 SWAP1 PUSH1 0x24 SWAP1 DUP3 SWAP1 DUP7 AND GAS STATICCALL SWAP2 DUP3 ISZERO PUSH2 0x26B JUMPI DUP4 SWAP2 PUSH1 0x0 SWAP4 PUSH2 0x277 JUMPI JUMPDEST POP PUSH1 0x7 SLOAD AND SWAP4 PUSH1 0x24 PUSH1 0x40 MLOAD DUP1 SWAP7 DUP2 SWAP4 DUP3 MSTORE ADDRESS PUSH1 0x4 DUP4 ADD MSTORE GAS STATICCALL SWAP3 DUP4 ISZERO PUSH2 0x26B JUMPI PUSH1 0x0 SWAP4 PUSH2 0x237 JUMPI JUMPDEST POP PUSH1 0x1 PUSH1 0x1 PUSH1 0x70 SHL SUB SWAP1 DUP2 DUP2 GT ISZERO DUP1 PUSH2 0x22D JUMPI JUMPDEST ISZERO PUSH2 0x1F3 JUMPI SWAP2 DUP2 PUSH1 0x0 DUP1 MLOAD PUSH1 0x20 PUSH2 0x1A00 DUP4 CODECOPY DUP2 MLOAD SWAP2 MSTORE SWAP5 SWAP3 PUSH1 0x40 SWAP5 AND SWAP3 DUP4 PUSH4 0xFFFFFFFF PUSH1 0xE0 SHL TIMESTAMP PUSH1 0xE0 SHL AND SWAP2 PUSH1 0x1 PUSH1 0x1 PUSH1 0x70 SHL SUB PUSH1 0x70 SHL SWAP1 PUSH1 0x70 SHL AND OR OR DUP1 PUSH1 0x8 SSTORE DUP5 MLOAD SWAP4 DUP5 MSTORE PUSH1 0x70 SHR AND SWAP1 DUP3 ADD MSTORE LOG1 PUSH1 0x1 PUSH1 0x0 DUP1 MLOAD PUSH1 0x20 PUSH2 0x19E0 DUP4 CODECOPY DUP2 MLOAD SWAP2 MSTORE SSTORE STOP JUMPDEST PUSH1 0x40 MLOAD PUSH3 0x461BCD PUSH1 0xE5 SHL DUP2 MSTORE PUSH1 0x4 DUP2 ADD DUP5 SWAP1 MSTORE PUSH1 0x12 PUSH1 0x24 DUP3 ADD MSTORE PUSH18 0x4F726168506169723A204F564552464C4F57 PUSH1 0x70 SHL PUSH1 0x44 DUP3 ADD MSTORE PUSH1 0x64 SWAP1 REVERT JUMPDEST POP DUP2 DUP5 GT ISZERO PUSH2 0x18F JUMP JUMPDEST SWAP1 SWAP3 POP DUP2 DUP2 DUP2 RETURNDATASIZE DUP4 GT PUSH2 0x264 JUMPI JUMPDEST PUSH2 0x24F DUP2 DUP4 PUSH2 0x16B3 JUMP JUMPDEST DUP2 ADD SUB SLT PUSH2 0x25F JUMPI MLOAD SWAP2 CODESIZE PUSH2 0x17B JUMP JUMPDEST PUSH1 0x0 DUP1 REVERT JUMPDEST POP RETURNDATASIZE PUSH2 0x245 JUMP JUMPDEST PUSH1 0x40 MLOAD RETURNDATASIZE PUSH1 0x0 DUP3 RETURNDATACOPY RETURNDATASIZE SWAP1 REVERT JUMPDEST DUP3 DUP2 SWAP4 SWAP3 SWAP5 POP RETURNDATASIZE DUP4 GT PUSH2 0x2A1 JUMPI JUMPDEST PUSH2 0x28F DUP2 DUP4 PUSH2 0x16B3 JUMP JUMPDEST DUP2 ADD SUB SLT PUSH2 0x25F JUMPI DUP3 SWAP1 MLOAD SWAP2 CODESIZE PUSH2 0x153 JUMP JUMPDEST POP RETURNDATASIZE PUSH2 0x285 JUMP JUMPDEST CALLVALUE PUSH2 0x25F JUMPI PUSH1 0x40 CALLDATASIZE PUSH1 0x3 NOT ADD SLT PUSH2 0x25F JUMPI PUSH2 0x2C1 PUSH2 0x152D JUMP JUMPDEST PUSH2 0x2C9 PUSH2 0x1543 JUMP JUMPDEST SWAP1 PUSH1 0x1 DUP1 PUSH1 0xA0 SHL SUB DUP1 SWAP2 AND PUSH1 0x0 MSTORE PUSH1 0x1 PUSH1 0x20 MSTORE PUSH1 0x40 PUSH1 0x0 KECCAK256 SWAP2 AND PUSH1 0x0 MSTORE PUSH1 0x20 MSTORE PUSH1 0x20 PUSH1 0x40 PUSH1 0x0 KECCAK256 SLOAD PUSH1 0x40 MLOAD SWAP1 DUP2 MSTORE RETURN JUMPDEST CALLVALUE PUSH2 0x25F JUMPI PUSH1 0x0 CALLDATASIZE PUSH1 0x3 NOT ADD SLT PUSH2 0x25F JUMPI PUSH1 0x7 SLOAD PUSH1 0x40 MLOAD PUSH1 0x1 PUSH1 0x1 PUSH1 0xA0 SHL SUB SWAP1 SWAP2 AND DUP2 MSTORE PUSH1 0x20 SWAP1 RETURN JUMPDEST CALLVALUE PUSH2 0x25F JUMPI PUSH1 0x0 CALLDATASIZE PUSH1 0x3 NOT ADD SLT PUSH2 0x25F JUMPI PUSH1 0x5 SLOAD PUSH1 0x40 MLOAD PUSH1 0x1 PUSH1 0x1 PUSH1 0xA0 SHL SUB SWAP1 SWAP2 AND DUP2 MSTORE PUSH1 0x20 SWAP1 RETURN JUMPDEST CALLVALUE PUSH2 0x25F JUMPI PUSH1 0x0 CALLDATASIZE PUSH1 0x3 NOT ADD SLT PUSH2 0x25F JUMPI PUSH1 0x20 PUSH1 0x40 MLOAD PUSH2 0x3E8 DUP2 MSTORE RETURN JUMPDEST CALLVALUE PUSH2 0x25F JUMPI PUSH1 0x40 CALLDATASIZE PUSH1 0x3 NOT ADD SLT PUSH2 0x25F JUMPI PUSH2 0x38E PUSH2 0x384 PUSH2 0x152D JUMP JUMPDEST PUSH1 0x24 CALLDATALOAD SWAP1 CALLER PUSH2 0x15A8 JUMP JUMPDEST PUSH1 0x20 PUSH1 0x40 MLOAD PUSH1 0x1 DUP2 MSTORE RETURN JUMPDEST CALLVALUE PUSH2 0x25F JUMPI PUSH1 0x0 CALLDATASIZE PUSH1 0x3 NOT ADD SLT PUSH2 0x25F JUMPI PUSH2 0x3D9 PUSH1 0x40 MLOAD PUSH2 0x3B9 DUP2 PUSH2 0x1681 JUMP JUMPDEST PUSH1 0x7 DUP2 MSTORE PUSH7 0x4F5241482D4C5 PUSH1 0xCC SHL PUSH1 0x20 DUP3 ADD MSTORE PUSH1 0x40 MLOAD SWAP2 DUP3 SWAP2 DUP3 PUSH2 0x157C JUMP JUMPDEST SUB SWAP1 RETURN JUMPDEST CALLVALUE PUSH2 0x25F JUMPI PUSH1 0x20 DUP1 PUSH1 0x3 NOT CALLDATASIZE ADD SLT PUSH2 0x25F JUMPI PUSH2 0x3F7 PUSH2 0x152D JUMP JUMPDEST SWAP1 PUSH2 0x400 PUSH2 0x1715 JUMP JUMPDEST PUSH1 0x1 DUP1 PUSH1 0xA0 SHL SUB DUP1 PUSH1 0x6 SLOAD AND SWAP2 DUP2 PUSH1 0x7 SLOAD AND SWAP4 PUSH1 0x40 MLOAD SWAP3 PUSH4 0x70A08231 PUSH1 0xE0 SHL SWAP6 DUP7 DUP6 MSTORE ADDRESS PUSH1 0x4 DUP7 ADD MSTORE PUSH1 0x24 SWAP7 DUP5 DUP7 DUP10 DUP2 DUP11 GAS STATICCALL SWAP6 DUP7 ISZERO PUSH2 0x26B JUMPI PUSH1 0x0 SWAP7 PUSH2 0x777 JUMPI JUMPDEST POP PUSH1 0x40 MLOAD SWAP7 DUP2 DUP9 MSTORE ADDRESS PUSH1 0x4 DUP10 ADD MSTORE DUP6 DUP9 DUP11 DUP2 DUP7 GAS STATICCALL SWAP8 DUP9 ISZERO PUSH2 0x26B JUMPI PUSH1 0x0 SWAP9 PUSH2 0x748 JUMPI JUMPDEST POP ADDRESS PUSH1 0x0 MSTORE PUSH1 0x0 DUP7 MSTORE PUSH2 0x49A PUSH2 0x48E PUSH2 0x48E PUSH2 0x493 PUSH1 0x40 PUSH1 0x0 KECCAK256 SLOAD SWAP11 PUSH1 0x2 SLOAD SWAP4 DUP5 SWAP2 DUP14 PUSH2 0x16E2 JUMP JUMPDEST PUSH2 0x16F5 JUMP JUMPDEST SWAP11 DUP11 PUSH2 0x16E2 JUMP JUMPDEST SWAP7 DUP9 ISZERO ISZERO DUP1 PUSH2 0x73F JUMPI JUMPDEST ISZERO PUSH2 0x6EB JUMPI ADDRESS ISZERO PUSH2 0x6D3 JUMPI ADDRESS PUSH1 0x0 MSTORE PUSH1 0x0 DUP8 MSTORE PUSH1 0x40 PUSH1 0x0 KECCAK256 SLOAD DUP2 DUP2 LT PUSH2 0x6AB JUMPI SWAP2 PUSH1 0x0 DUP3 DUP10 SWAP4 DUP14 SWAP6 ADDRESS DUP5 MSTORE DUP4 DUP7 MSTORE SUB PUSH1 0x40 DUP4 KECCAK256 SSTORE DUP1 PUSH1 0x2 SLOAD SUB PUSH1 0x2 SSTORE PUSH1 0x40 MLOAD SWAP1 DUP2 MSTORE PUSH1 0x0 DUP1 MLOAD PUSH1 0x20 PUSH2 0x19C0 DUP4 CODECOPY DUP2 MLOAD SWAP2 MSTORE DUP5 ADDRESS SWAP3 LOG3 PUSH2 0x504 DUP11 DUP9 DUP4 PUSH2 0x1745 JUMP JUMPDEST PUSH2 0x50F DUP10 DUP9 DUP8 PUSH2 0x1745 JUMP JUMPDEST PUSH1 0x40 MLOAD SWAP3 DUP4 DUP1 SWAP3 DUP7 DUP3 MSTORE ADDRESS PUSH1 0x4 DUP4 ADD MSTORE GAS STATICCALL SWAP2 DUP3 ISZERO PUSH2 0x26B JUMPI DUP7 SWAP2 PUSH1 0x0 SWAP4 PUSH2 0x67A JUMPI JUMPDEST POP DUP10 PUSH1 0x40 MLOAD DUP1 SWAP6 DUP2 SWAP4 DUP3 MSTORE ADDRESS PUSH1 0x4 DUP4 ADD MSTORE GAS STATICCALL SWAP2 DUP3 ISZERO PUSH2 0x26B JUMPI PUSH1 0x0 SWAP3 PUSH2 0x64B JUMPI JUMPDEST POP PUSH1 0x1 PUSH1 0x1 PUSH1 0x70 SHL SUB SWAP1 DUP2 DUP2 GT ISZERO DUP1 PUSH2 0x641 JUMPI JUMPDEST ISZERO PUSH2 0x608 JUMPI PUSH1 0x40 SWAP9 POP SWAP2 DUP2 DUP10 SWAP3 PUSH1 0x0 DUP1 MLOAD PUSH1 0x20 PUSH2 0x1A00 DUP4 CODECOPY DUP2 MLOAD SWAP2 MSTORE SWAP5 AND SWAP2 DUP3 PUSH4 0xFFFFFFFF PUSH1 0xE0 SHL TIMESTAMP PUSH1 0xE0 SHL AND SWAP2 PUSH1 0x1 PUSH1 0x1 PUSH1 0x70 SHL SUB PUSH1 0x70 SHL SWAP1 PUSH1 0x70 SHL AND OR OR DUP1 PUSH1 0x8 SSTORE DUP4 MLOAD SWAP3 DUP4 MSTORE PUSH1 0x70 SHR AND DUP7 DUP3 ADD MSTORE LOG1 DUP6 MLOAD SWAP2 DUP6 DUP4 MSTORE DUP5 DUP5 DUP5 ADD MSTORE AND SWAP1 PUSH32 0xDCCD412F0B1252819CB1FD330B93224CA42612892BB3F4F789976E6D81936496 DUP7 CALLER SWAP3 LOG3 PUSH1 0x1 PUSH1 0x0 DUP1 MLOAD PUSH1 0x20 PUSH2 0x19E0 DUP4 CODECOPY DUP2 MLOAD SWAP2 MSTORE SSTORE DUP4 MLOAD SWAP3 DUP4 MSTORE DUP3 ADD MSTORE RETURN JUMPDEST PUSH1 0x40 MLOAD PUSH3 0x461BCD PUSH1 0xE5 SHL DUP2 MSTORE PUSH1 0x4 DUP2 ADD DUP8 SWAP1 MSTORE PUSH1 0x12 DUP2 DUP12 ADD MSTORE PUSH18 0x4F726168506169723A204F564552464C4F57 PUSH1 0x70 SHL PUSH1 0x44 DUP3 ADD MSTORE PUSH1 0x64 SWAP1 REVERT JUMPDEST POP DUP2 DUP4 GT ISZERO PUSH2 0x568 JUMP JUMPDEST SWAP1 SWAP2 POP DUP5 DUP2 DUP2 RETURNDATASIZE DUP4 GT PUSH2 0x673 JUMPI JUMPDEST PUSH2 0x663 DUP2 DUP4 PUSH2 0x16B3 JUMP JUMPDEST DUP2 ADD SUB SLT PUSH2 0x25F JUMPI MLOAD SWAP1 DUP9 PUSH2 0x554 JUMP JUMPDEST POP RETURNDATASIZE PUSH2 0x659 JUMP JUMPDEST DUP3 DUP2 SWAP4 SWAP3 SWAP5 POP RETURNDATASIZE DUP4 GT PUSH2 0x6A4 JUMPI JUMPDEST PUSH2 0x692 DUP2 DUP4 PUSH2 0x16B3 JUMP JUMPDEST DUP2 ADD SUB SLT PUSH2 0x25F JUMPI DUP6 SWAP1 MLOAD SWAP2 DUP11 PUSH2 0x532 JUMP JUMPDEST POP RETURNDATASIZE PUSH2 0x688 JUMP JUMPDEST PUSH1 0x40 MLOAD PUSH4 0x391434E3 PUSH1 0xE2 SHL DUP2 MSTORE ADDRESS PUSH1 0x4 DUP3 ADD MSTORE PUSH1 0x24 DUP2 ADD SWAP2 SWAP1 SWAP2 MSTORE PUSH1 0x44 DUP2 ADD SWAP2 SWAP1 SWAP2 MSTORE PUSH1 0x64 SWAP1 REVERT JUMPDEST PUSH1 0x40 MLOAD PUSH4 0x4B637E8F PUSH1 0xE1 SHL DUP2 MSTORE PUSH1 0x0 PUSH1 0x4 DUP3 ADD MSTORE DUP11 SWAP1 REVERT JUMPDEST PUSH1 0x40 MLOAD PUSH3 0x461BCD PUSH1 0xE5 SHL DUP2 MSTORE PUSH1 0x4 DUP2 ADD DUP9 SWAP1 MSTORE PUSH1 0x27 DUP2 DUP13 ADD MSTORE PUSH32 0x4F726168506169723A20494E53554646494349454E545F4C4951554944495459 PUSH1 0x44 DUP3 ADD MSTORE PUSH7 0x17D09554939151 PUSH1 0xCA SHL PUSH1 0x64 DUP3 ADD MSTORE PUSH1 0x84 SWAP1 REVERT JUMPDEST POP DUP8 ISZERO ISZERO PUSH2 0x4A4 JUMP JUMPDEST SWAP1 SWAP8 POP DUP6 DUP2 DUP2 RETURNDATASIZE DUP4 GT PUSH2 0x770 JUMPI JUMPDEST PUSH2 0x760 DUP2 DUP4 PUSH2 0x16B3 JUMP JUMPDEST DUP2 ADD SUB SLT PUSH2 0x25F JUMPI MLOAD SWAP7 DUP10 PUSH2 0x466 JUMP JUMPDEST POP RETURNDATASIZE PUSH2 0x756 JUMP JUMPDEST SWAP1 SWAP6 POP DUP5 DUP2 DUP2 RETURNDATASIZE DUP4 GT PUSH2 0x79F JUMPI JUMPDEST PUSH2 0x78F DUP2 DUP4 PUSH2 0x16B3 JUMP JUMPDEST DUP2 ADD SUB SLT PUSH2 0x25F JUMPI MLOAD SWAP5 DUP9 PUSH2 0x442 JUMP JUMPDEST POP RETURNDATASIZE PUSH2 0x785 JUMP JUMPDEST CALLVALUE PUSH2 0x25F JUMPI PUSH1 0x20 CALLDATASIZE PUSH1 0x3 NOT ADD SLT PUSH2 0x25F JUMPI PUSH1 0x1 PUSH1 0x1 PUSH1 0xA0 SHL SUB PUSH2 0x7C7 PUSH2 0x152D JUMP JUMPDEST AND PUSH1 0x0 MSTORE PUSH1 0x0 PUSH1 0x20 MSTORE PUSH1 0x20 PUSH1 0x40 PUSH1 0x0 KECCAK256 SLOAD PUSH1 0x40 MLOAD SWAP1 DUP2 MSTORE RETURN JUMPDEST CALLVALUE PUSH2 0x25F JUMPI PUSH1 0x20 DUP1 PUSH1 0x3 NOT CALLDATASIZE ADD SLT PUSH2 0x25F JUMPI PUSH2 0x7FA PUSH2 0x152D JUMP JUMPDEST PUSH2 0x802 PUSH2 0x1715 JUMP JUMPDEST PUSH2 0x821 PUSH1 0x8 SLOAD PUSH1 0x1 PUSH1 0x1 PUSH1 0x70 SHL SUB SWAP2 DUP3 DUP3 AND SWAP3 DUP3 PUSH1 0x70 SHR AND SWAP2 PUSH1 0xE0 SHR SWAP1 JUMP JUMPDEST POP SWAP1 SWAP2 PUSH1 0x1 DUP1 PUSH1 0xA0 SHL SUB SWAP3 DUP4 PUSH1 0x6 SLOAD AND SWAP1 PUSH1 0x40 MLOAD DUP1 DUP8 DUP2 PUSH4 0x70A08231 PUSH1 0xE0 SHL SWAP6 DUP7 DUP3 MSTORE ADDRESS PUSH1 0x4 DUP4 ADD MSTORE PUSH1 0x24 SWAP4 DUP5 SWAP2 GAS STATICCALL SWAP2 DUP3 ISZERO PUSH2 0x26B JUMPI PUSH1 0x0 SWAP3 PUSH2 0xBB4 JUMPI JUMPDEST POP DUP8 DUP8 PUSH1 0x7 SLOAD AND SWAP5 DUP3 PUSH1 0x40 MLOAD DUP1 SWAP8 DUP2 SWAP4 DUP3 MSTORE ADDRESS PUSH1 0x4 DUP4 ADD MSTORE GAS STATICCALL SWAP4 DUP5 ISZERO PUSH2 0x26B JUMPI PUSH1 0x0 SWAP5 PUSH2 0xB85 JUMPI JUMPDEST POP PUSH1 0x1 PUSH1 0x1 PUSH1 0x70 SHL SUB DUP1 SWAP4 AND SWAP7 DUP4 PUSH2 0x8A1 DUP10 DUP6 PUSH2 0x16D5 JUMP JUMPDEST SWAP8 AND SWAP6 PUSH2 0x8AE DUP8 DUP8 PUSH2 0x16D5 JUMP JUMPDEST SWAP7 PUSH1 0x2 SLOAD SWAP10 DUP11 ISZERO PUSH1 0x0 EQ PUSH2 0xB50 JUMPI POP POP PUSH2 0x8C8 DUP8 DUP10 PUSH2 0x16E2 JUMP JUMPDEST PUSH1 0x0 PUSH1 0x3 DUP3 GT ISZERO PUSH2 0xB42 JUMPI POP DUP1 PUSH1 0x1 SWAP1 DUP1 DUP3 SHR DUP3 DUP2 ADD DUP1 SWAP2 GT PUSH2 0xB2D JUMPI SWAP2 SWAP1 JUMPDEST DUP4 DUP4 LT PUSH2 0xB0D JUMPI POP POP POP JUMPDEST PUSH2 0x3E7 NOT DUP2 ADD SWAP1 DUP2 GT PUSH2 0xAF8 JUMPI SWAP9 PUSH2 0x3E8 SWAP1 DUP2 DUP2 ADD DUP1 SWAP2 GT PUSH2 0xAE3 JUMPI PUSH1 0x2 SSTORE PUSH1 0x0 PUSH1 0x0 DUP1 MLOAD PUSH1 0x20 PUSH2 0x19C0 DUP4 CODECOPY DUP2 MLOAD SWAP2 MSTORE DUP13 PUSH2 0xDEAD SWAP4 DUP5 DUP5 MSTORE DUP4 DUP3 MSTORE PUSH1 0x40 DUP5 KECCAK256 DUP2 DUP2 SLOAD ADD SWAP1 SSTORE PUSH1 0x40 MLOAD SWAP1 DUP2 MSTORE LOG3 JUMPDEST DUP9 ISZERO PUSH2 0xA8F JUMPI AND DUP1 ISZERO PUSH2 0xA78 JUMPI PUSH2 0x959 DUP9 PUSH1 0x2 SLOAD PUSH2 0x1674 JUMP JUMPDEST PUSH1 0x2 SSTORE DUP1 PUSH1 0x0 MSTORE PUSH1 0x0 DUP10 MSTORE PUSH1 0x40 PUSH1 0x0 KECCAK256 DUP9 DUP2 SLOAD ADD SWAP1 SSTORE PUSH1 0x0 PUSH1 0x0 DUP1 MLOAD PUSH1 0x20 PUSH2 0x19C0 DUP4 CODECOPY DUP2 MLOAD SWAP2 MSTORE DUP11 PUSH1 0x40 MLOAD DUP12 DUP2 MSTORE LOG3 DUP3 DUP3 GT ISZERO DUP1 PUSH2 0xA6E JUMPI JUMPDEST ISZERO PUSH2 0xA36 JUMPI POP PUSH1 0x70 SWAP3 DUP4 SHL PUSH14 0xFFFFFFFFFFFFFFFFFFFFFFFFFFFF PUSH1 0x70 SHL AND SWAP1 DUP3 AND SWAP1 DUP2 OR TIMESTAMP PUSH1 0xE0 SHL PUSH1 0x1 PUSH1 0x1 PUSH1 0xE0 SHL SUB NOT AND OR PUSH1 0x8 DUP2 SWAP1 SSTORE PUSH1 0x40 DUP1 MLOAD SWAP3 DUP4 MSTORE SWAP4 SHR SWAP1 SWAP2 AND DUP7 DUP3 ADD MSTORE PUSH1 0x0 DUP1 MLOAD PUSH1 0x20 PUSH2 0x1A00 DUP4 CODECOPY DUP2 MLOAD SWAP2 MSTORE SWAP2 SWAP1 LOG1 PUSH1 0x40 MLOAD SWAP2 DUP3 MSTORE DUP4 DUP3 ADD MSTORE PUSH32 0x4C209B5FC8AD50758F13E2E1088BA56A560DFF690A1C6FEF26394F4C03821C4F PUSH1 0x40 CALLER SWAP3 LOG2 PUSH1 0x1 PUSH1 0x0 DUP1 MLOAD PUSH1 0x20 PUSH2 0x19E0 DUP4 CODECOPY DUP2 MLOAD SWAP2 MSTORE SSTORE PUSH1 0x40 MLOAD SWAP1 DUP2 MSTORE RETURN JUMPDEST DUP8 PUSH1 0x12 PUSH1 0x64 SWAP3 PUSH1 0x40 MLOAD SWAP3 PUSH3 0x461BCD PUSH1 0xE5 SHL DUP5 MSTORE PUSH1 0x4 DUP5 ADD MSTORE DUP3 ADD MSTORE PUSH18 0x4F726168506169723A204F564552464C4F57 PUSH1 0x70 SHL PUSH1 0x44 DUP3 ADD MSTORE REVERT JUMPDEST POP DUP3 DUP5 GT ISZERO PUSH2 0x992 JUMP JUMPDEST POP PUSH1 0x40 MLOAD PUSH4 0xEC442F05 PUSH1 0xE0 SHL DUP2 MSTORE PUSH1 0x0 PUSH1 0x4 DUP3 ADD MSTORE REVERT JUMPDEST PUSH1 0x40 MLOAD PUSH3 0x461BCD PUSH1 0xE5 SHL DUP2 MSTORE PUSH1 0x4 DUP2 ADD DUP12 SWAP1 MSTORE PUSH1 0x27 DUP2 DUP6 ADD MSTORE PUSH32 0x4F726168506169723A20494E53554646494349454E545F4C4951554944495459 PUSH1 0x44 DUP3 ADD MSTORE PUSH7 0x17D35253951151 PUSH1 0xCA SHL PUSH1 0x64 DUP3 ADD MSTORE PUSH1 0x84 SWAP1 REVERT JUMPDEST DUP5 PUSH4 0x4E487B71 PUSH1 0xE0 SHL PUSH1 0x0 MSTORE PUSH1 0x11 PUSH1 0x4 MSTORE PUSH1 0x0 REVERT JUMPDEST DUP4 PUSH4 0x4E487B71 PUSH1 0xE0 SHL PUSH1 0x0 MSTORE PUSH1 0x11 PUSH1 0x4 MSTORE PUSH1 0x0 REVERT JUMPDEST SWAP1 SWAP2 SWAP3 POP PUSH2 0xB24 DUP4 PUSH2 0xB1F DUP2 DUP5 PUSH2 0x16F5 JUMP JUMPDEST PUSH2 0x1674 JUMP JUMPDEST DUP3 SHR SWAP2 SWAP1 PUSH2 0x8E8 JUMP JUMPDEST DUP7 PUSH4 0x4E487B71 PUSH1 0xE0 SHL PUSH1 0x0 MSTORE PUSH1 0x11 PUSH1 0x4 MSTORE PUSH1 0x0 REVERT JUMPDEST SWAP1 ISZERO PUSH2 0x8F3 JUMPI POP PUSH1 0x1 PUSH2 0x8F3 JUMP JUMPDEST SWAP1 PUSH2 0x48E PUSH2 0xB67 PUSH2 0xB6E SWAP4 PUSH2 0x48E DUP15 SWAP7 SWAP15 DUP15 PUSH2 0x16E2 JUMP JUMPDEST SWAP4 DUP11 PUSH2 0x16E2 JUMP JUMPDEST DUP1 DUP3 LT ISZERO PUSH2 0xB7E JUMPI POP JUMPDEST SWAP8 PUSH2 0x940 JUMP JUMPDEST SWAP1 POP PUSH2 0xB78 JUMP JUMPDEST SWAP1 SWAP4 POP DUP8 DUP2 DUP2 RETURNDATASIZE DUP4 GT PUSH2 0xBAD JUMPI JUMPDEST PUSH2 0xB9D DUP2 DUP4 PUSH2 0x16B3 JUMP JUMPDEST DUP2 ADD SUB SLT PUSH2 0x25F JUMPI MLOAD SWAP3 DUP9 PUSH2 0x889 JUMP JUMPDEST POP RETURNDATASIZE PUSH2 0xB93 JUMP JUMPDEST SWAP1 SWAP2 POP DUP8 DUP2 DUP2 RETURNDATASIZE DUP4 GT PUSH2 0xBDC JUMPI JUMPDEST PUSH2 0xBCC DUP2 DUP4 PUSH2 0x16B3 JUMP JUMPDEST DUP2 ADD SUB SLT PUSH2 0x25F JUMPI MLOAD SWAP1 DUP9 PUSH2 0x860 JUMP JUMPDEST POP RETURNDATASIZE PUSH2 0xBC2 JUMP JUMPDEST CALLVALUE PUSH2 0x25F JUMPI PUSH1 0x40 CALLDATASIZE PUSH1 0x3 NOT ADD SLT PUSH2 0x25F JUMPI PUSH2 0xBFC PUSH2 0x152D JUMP JUMPDEST PUSH2 0xC04 PUSH2 0x1543 JUMP JUMPDEST PUSH1 0x5 SLOAD PUSH1 0x1 PUSH1 0x1 PUSH1 0xA0 SHL SUB SWAP2 SWAP1 DUP3 AND CALLER SUB PUSH2 0xC44 JUMPI DUP2 PUSH12 0xFFFFFFFFFFFFFFFFFFFFFFFF PUSH1 0xA0 SHL SWAP4 AND DUP4 PUSH1 0x6 SLOAD AND OR PUSH1 0x6 SSTORE AND SWAP1 PUSH1 0x7 SLOAD AND OR PUSH1 0x7 SSTORE PUSH1 0x0 DUP1 RETURN JUMPDEST PUSH1 0x40 MLOAD PUSH3 0x461BCD PUSH1 0xE5 SHL DUP2 MSTORE PUSH1 0x20 PUSH1 0x4 DUP3 ADD MSTORE PUSH1 0x13 PUSH1 0x24 DUP3 ADD MSTORE PUSH19 0x27B930B42830B4B91D102327A92124A22222A7 PUSH1 0x69 SHL PUSH1 0x44 DUP3 ADD MSTORE PUSH1 0x64 SWAP1 REVERT JUMPDEST CALLVALUE PUSH2 0x25F JUMPI PUSH1 0x0 CALLDATASIZE PUSH1 0x3 NOT ADD SLT PUSH2 0x25F JUMPI PUSH1 0x20 PUSH1 0x40 MLOAD PUSH1 0x12 DUP2 MSTORE RETURN JUMPDEST CALLVALUE PUSH2 0x25F JUMPI PUSH1 0x60 CALLDATASIZE PUSH1 0x3 NOT ADD SLT PUSH2 0x25F JUMPI PUSH2 0xCB4 PUSH2 0x152D JUMP JUMPDEST PUSH2 0xCBC PUSH2 0x1543 JUMP JUMPDEST PUSH1 0x1 PUSH1 0x1 PUSH1 0xA0 SHL SUB DUP3 AND PUSH1 0x0 DUP2 DUP2 MSTORE PUSH1 0x1 PUSH1 0x20 SWAP1 DUP2 MSTORE PUSH1 0x40 DUP1 DUP4 KECCAK256 CALLER DUP5 MSTORE SWAP1 SWAP2 MSTORE SWAP1 KECCAK256 SLOAD SWAP3 PUSH1 0x44 CALLDATALOAD SWAP3 SWAP2 PUSH1 0x0 NOT DUP6 LT PUSH2 0xCFB JUMPI JUMPDEST POP PUSH2 0x38E SWAP4 POP PUSH2 0x15A8 JUMP JUMPDEST DUP4 DUP6 LT PUSH2 0xD67 JUMPI DUP1 ISZERO PUSH2 0xD4E JUMPI CALLER ISZERO PUSH2 0xD35 JUMPI PUSH2 0x38E SWAP5 DUP5 SWAP2 PUSH1 0x0 MSTORE PUSH1 0x1 PUSH1 0x20 MSTORE PUSH1 0x40 PUSH1 0x0 KECCAK256 CALLER PUSH1 0x0 MSTORE PUSH1 0x20 MSTORE SUB PUSH1 0x40 PUSH1 0x0 KECCAK256 SSTORE DUP5 PUSH2 0xCF0 JUMP JUMPDEST PUSH1 0x40 MLOAD PUSH4 0x4A1406B1 PUSH1 0xE1 SHL DUP2 MSTORE PUSH1 0x0 PUSH1 0x4 DUP3 ADD MSTORE PUSH1 0x24 SWAP1 REVERT JUMPDEST PUSH1 0x40 MLOAD PUSH4 0xE602DF05 PUSH1 0xE0 SHL DUP2 MSTORE PUSH1 0x0 PUSH1 0x4 DUP3 ADD MSTORE PUSH1 0x24 SWAP1 REVERT JUMPDEST PUSH1 0x40 MLOAD PUSH4 0x7DC7A0D9 PUSH1 0xE1 SHL DUP2 MSTORE CALLER PUSH1 0x4 DUP3 ADD MSTORE PUSH1 0x24 DUP2 ADD DUP7 SWAP1 MSTORE PUSH1 0x44 DUP2 ADD DUP6 SWAP1 MSTORE PUSH1 0x64 SWAP1 REVERT JUMPDEST CALLVALUE PUSH2 0x25F JUMPI PUSH1 0x0 CALLDATASIZE PUSH1 0x3 NOT ADD SLT PUSH2 0x25F JUMPI PUSH1 0x20 PUSH1 0x2 SLOAD PUSH1 0x40 MLOAD SWAP1 DUP2 MSTORE RETURN JUMPDEST CALLVALUE PUSH2 0x25F JUMPI PUSH1 0x0 CALLDATASIZE PUSH1 0x3 NOT ADD SLT PUSH2 0x25F JUMPI PUSH1 0x6 SLOAD PUSH1 0x40 MLOAD PUSH1 0x1 PUSH1 0x1 PUSH1 0xA0 SHL SUB SWAP1 SWAP2 AND DUP2 MSTORE PUSH1 0x20 SWAP1 RETURN JUMPDEST CALLVALUE PUSH2 0x25F JUMPI PUSH1 0x40 CALLDATASIZE PUSH1 0x3 NOT ADD SLT PUSH2 0x25F JUMPI PUSH2 0xDED PUSH2 0x152D JUMP JUMPDEST PUSH1 0x24 CALLDATALOAD SWAP1 CALLER ISZERO PUSH2 0xD4E JUMPI PUSH1 0x1 PUSH1 0x1 PUSH1 0xA0 SHL SUB AND SWAP1 DUP2 ISZERO PUSH2 0xD35 JUMPI CALLER PUSH1 0x0 MSTORE PUSH1 0x1 PUSH1 0x20 MSTORE PUSH1 0x40 PUSH1 0x0 KECCAK256 DUP3 PUSH1 0x0 MSTORE PUSH1 0x20 MSTORE DUP1 PUSH1 0x40 PUSH1 0x0 KECCAK256 SSTORE PUSH1 0x40 MLOAD SWAP1 DUP2 MSTORE PUSH32 0x8C5BE1E5EBEC7D5BD14F71427D1E84F3DD0314C0F7B2291E5B200AC8C7C3B925 PUSH1 0x20 CALLER SWAP3 LOG3 PUSH1 0x20 PUSH1 0x40 MLOAD PUSH1 0x1 DUP2 MSTORE RETURN JUMPDEST CALLVALUE PUSH2 0x25F JUMPI PUSH1 0x0 CALLDATASIZE PUSH1 0x3 NOT ADD SLT PUSH2 0x25F JUMPI PUSH1 0x60 PUSH4 0xFFFFFFFF PUSH2 0xE91 PUSH1 0x8 SLOAD PUSH1 0x1 PUSH1 0x1 PUSH1 0x70 SHL SUB SWAP2 DUP3 DUP3 AND SWAP3 DUP3 PUSH1 0x70 SHR AND SWAP2 PUSH1 0xE0 SHR SWAP1 JUMP JUMPDEST SWAP1 SWAP3 SWAP2 PUSH1 0x40 MLOAD SWAP4 PUSH1 0x1 PUSH1 0x1 PUSH1 0x70 SHL SUB DUP1 SWAP3 AND DUP6 MSTORE AND PUSH1 0x20 DUP5 ADD MSTORE AND PUSH1 0x40 DUP3 ADD MSTORE RETURN JUMPDEST CALLVALUE PUSH2 0x25F JUMPI PUSH1 0x0 CALLDATASIZE PUSH1 0x3 NOT ADD SLT PUSH2 0x25F JUMPI PUSH2 0x3D9 PUSH1 0x1 DUP1 PUSH1 0xA0 SHL SUB PUSH2 0xF4B PUSH1 0x2D PUSH2 0xEED PUSH2 0xEE3 DUP5 PUSH1 0x6 SLOAD AND PUSH2 0x17C6 JUMP JUMPDEST SWAP4 PUSH1 0x7 SLOAD AND PUSH2 0x17C6 JUMP JUMPDEST SWAP3 PUSH1 0x40 MLOAD SWAP4 DUP5 SWAP2 PUSH12 0x27B930B42222AC1026281D1 PUSH1 0xA5 SHL PUSH1 0x20 DUP5 ADD MSTORE PUSH2 0xF1D DUP2 MLOAD DUP1 SWAP3 PUSH1 0x20 PUSH1 0x2C DUP8 ADD SWAP2 ADD PUSH2 0x1559 JUMP JUMPDEST DUP3 ADD PUSH1 0x2F PUSH1 0xF8 SHL PUSH1 0x2C DUP3 ADD MSTORE PUSH2 0xF3C DUP3 MLOAD DUP1 SWAP4 PUSH1 0x20 DUP8 DUP6 ADD SWAP2 ADD PUSH2 0x1559 JUMP JUMPDEST ADD SUB PUSH1 0xD DUP2 ADD DUP5 MSTORE ADD DUP3 PUSH2 0x16B3 JUMP JUMPDEST PUSH1 0x40 MLOAD SWAP2 DUP3 SWAP2 DUP3 PUSH2 0x157C JUMP JUMPDEST CALLVALUE PUSH2 0x25F JUMPI PUSH1 0x0 CALLDATASIZE PUSH1 0x3 NOT ADD SLT PUSH2 0x25F JUMPI PUSH1 0x20 PUSH1 0x40 MLOAD PUSH2 0xDEAD DUP2 MSTORE RETURN JUMPDEST CALLVALUE PUSH2 0x25F JUMPI PUSH1 0x80 CALLDATASIZE PUSH1 0x3 NOT ADD SLT PUSH2 0x25F JUMPI PUSH1 0x1 PUSH1 0x1 PUSH1 0xA0 SHL SUB PUSH1 0x44 CALLDATALOAD DUP2 DUP2 AND SWAP2 DUP3 DUP3 SUB PUSH2 0x25F JUMPI PUSH1 0x64 CALLDATALOAD PUSH8 0xFFFFFFFFFFFFFFFF DUP1 DUP3 GT PUSH2 0x25F JUMPI CALLDATASIZE PUSH1 0x23 DUP4 ADD SLT ISZERO PUSH2 0x25F JUMPI DUP2 PUSH1 0x4 ADD CALLDATALOAD SWAP1 DUP2 GT PUSH2 0x25F JUMPI CALLDATASIZE SWAP2 ADD PUSH1 0x24 ADD GT PUSH2 0x25F JUMPI PUSH2 0xFD8 PUSH2 0x1715 JUMP JUMPDEST PUSH1 0x4 CALLDATALOAD ISZERO SWAP1 DUP2 ISZERO DUP1 SWAP3 PUSH2 0x1522 JUMPI JUMPDEST ISZERO PUSH2 0x14D1 JUMPI PUSH2 0x100A PUSH1 0x8 SLOAD PUSH1 0x1 PUSH1 0x1 PUSH1 0x70 SHL SUB SWAP2 DUP3 DUP3 AND SWAP3 DUP3 PUSH1 0x70 SHR AND SWAP2 PUSH1 0xE0 SHR SWAP1 JUMP JUMPDEST POP SWAP4 SWAP1 SWAP3 PUSH1 0x1 PUSH1 0x1 PUSH1 0x70 SHL SUB DUP5 AND PUSH1 0x4 CALLDATALOAD LT DUP1 PUSH2 0x14BD JUMPI JUMPDEST ISZERO PUSH2 0x1479 JUMPI DUP3 PUSH1 0x6 SLOAD AND SWAP1 DUP2 DUP8 EQ ISZERO DUP1 PUSH2 0x146B JUMPI JUMPDEST ISZERO PUSH2 0x142F JUMPI PUSH2 0x141B JUMPI JUMPDEST POP PUSH1 0x24 CALLDATALOAD PUSH2 0x1403 JUMPI JUMPDEST POP DUP1 PUSH1 0x6 SLOAD AND SWAP1 PUSH1 0x40 MLOAD SWAP1 PUSH1 0x20 DUP3 PUSH1 0x24 DUP2 PUSH4 0x70A08231 PUSH1 0xE0 SHL SWAP7 DUP8 DUP3 MSTORE ADDRESS PUSH1 0x4 DUP4 ADD MSTORE GAS STATICCALL SWAP2 DUP3 ISZERO PUSH2 0x26B JUMPI PUSH1 0x0 SWAP3 PUSH2 0x13CE JUMPI JUMPDEST POP PUSH1 0x20 SWAP1 PUSH1 0x7 SLOAD AND SWAP3 PUSH1 0x24 PUSH1 0x40 MLOAD DUP1 SWAP6 DUP2 SWAP4 DUP3 MSTORE ADDRESS PUSH1 0x4 DUP4 ADD MSTORE GAS STATICCALL SWAP2 DUP3 ISZERO PUSH2 0x26B JUMPI PUSH1 0x0 SWAP3 PUSH2 0x139A JUMPI JUMPDEST POP PUSH2 0x10BF PUSH1 0x4 CALLDATALOAD PUSH1 0x1 PUSH1 0x1 PUSH1 0x70 SHL SUB DUP6 AND PUSH2 0x16D5 JUMP JUMPDEST DUP2 GT ISZERO PUSH2 0x1392 JUMPI PUSH2 0x10E4 PUSH2 0x10DE PUSH1 0x4 CALLDATALOAD PUSH1 0x1 PUSH1 0x1 PUSH1 0x70 SHL SUB DUP7 AND PUSH2 0x16D5 JUMP JUMPDEST DUP3 PUSH2 0x16D5 JUMP JUMPDEST SWAP4 JUMPDEST PUSH2 0x10FB PUSH1 0x24 CALLDATALOAD PUSH1 0x1 PUSH1 0x1 PUSH1 0x70 SHL SUB DUP4 AND PUSH2 0x16D5 JUMP JUMPDEST DUP4 GT ISZERO PUSH2 0x138A JUMPI PUSH2 0x1120 PUSH2 0x111A PUSH1 0x24 CALLDATALOAD PUSH1 0x1 PUSH1 0x1 PUSH1 0x70 SHL SUB DUP5 AND PUSH2 0x16D5 JUMP JUMPDEST DUP5 PUSH2 0x16D5 JUMP JUMPDEST SWAP4 JUMPDEST DUP6 ISZERO ISZERO DUP7 ISZERO PUSH2 0x1381 JUMPI JUMPDEST ISZERO PUSH2 0x1330 JUMPI DUP3 PUSH2 0x3E8 DUP2 MUL DIV PUSH2 0x3E8 EQ DUP4 ISZERO OR ISZERO PUSH2 0x131A JUMPI PUSH1 0x3 DUP7 MUL DUP7 DUP2 DIV PUSH1 0x3 EQ DUP8 ISZERO OR ISZERO PUSH2 0x131A JUMPI PUSH2 0x1164 SWAP1 PUSH2 0x3E8 DUP6 MUL PUSH2 0x16D5 JUMP JUMPDEST SWAP1 PUSH2 0x3E8 DUP6 MUL SWAP2 DUP6 DUP4 DIV PUSH2 0x3E8 EQ DUP7 ISZERO OR ISZERO PUSH2 0x131A JUMPI PUSH1 0x3 DUP8 MUL SWAP3 DUP8 DUP5 DIV PUSH1 0x3 EQ DUP9 ISZERO OR ISZERO PUSH2 0x131A JUMPI PUSH2 0x11AD PUSH1 0x1 PUSH1 0x1 PUSH1 0x70 SHL SUB SWAP3 PUSH2 0x11A7 PUSH2 0x11B6 SWAP7 DUP6 SWAP5 PUSH2 0x16D5 JUMP JUMPDEST SWAP1 PUSH2 0x16E2 JUMP JUMPDEST SWAP5 AND SWAP2 AND PUSH2 0x16E2 JUMP JUMPDEST SWAP1 PUSH2 0x3E8 DUP3 MUL SWAP2 DUP1 DUP4 DIV PUSH2 0x3E8 EQ DUP2 ISZERO OR ISZERO PUSH2 0x131A JUMPI PUSH3 0xF4240 MUL SWAP2 DUP1 DUP4 DIV PUSH2 0x3E8 EQ SWAP1 ISZERO OR ISZERO PUSH2 0x131A JUMPI LT PUSH2 0x12E7 JUMPI PUSH1 0x1 PUSH1 0x1 PUSH1 0x70 SHL SUB DUP2 GT ISZERO DUP1 PUSH2 0x12D6 JUMPI JUMPDEST ISZERO PUSH2 0x129C JUMPI PUSH1 0x0 DUP1 MLOAD PUSH1 0x20 PUSH2 0x1A00 DUP4 CODECOPY DUP2 MLOAD SWAP2 MSTORE SWAP2 PUSH1 0x1 PUSH1 0x1 PUSH1 0x70 SHL SUB DUP1 PUSH1 0x40 SWAP4 AND SWAP2 DUP3 PUSH4 0xFFFFFFFF PUSH1 0xE0 SHL TIMESTAMP PUSH1 0xE0 SHL AND SWAP2 DUP4 PUSH1 0x70 SHL SWAP1 PUSH1 0x70 SHL AND OR OR DUP1 PUSH1 0x8 SSTORE DUP4 MLOAD SWAP3 DUP4 MSTORE PUSH1 0x70 SHR AND PUSH1 0x20 DUP3 ADD MSTORE LOG1 PUSH1 0x40 MLOAD SWAP2 DUP3 MSTORE PUSH1 0x20 DUP3 ADD MSTORE PUSH1 0x4 CALLDATALOAD PUSH1 0x40 DUP3 ADD MSTORE PUSH1 0x24 CALLDATALOAD PUSH1 0x60 DUP3 ADD MSTORE PUSH32 0xD78AD95FA46C994B6551D0DA85FC275FE613CE37657FB8D5E3D130840159D822 PUSH1 0x80 CALLER SWAP3 LOG3 PUSH1 0x1 PUSH1 0x0 DUP1 MLOAD PUSH1 0x20 PUSH2 0x19E0 DUP4 CODECOPY DUP2 MLOAD SWAP2 MSTORE SSTORE STOP JUMPDEST PUSH1 0x40 MLOAD PUSH3 0x461BCD PUSH1 0xE5 SHL DUP2 MSTORE PUSH1 0x20 PUSH1 0x4 DUP3 ADD MSTORE PUSH1 0x12 PUSH1 0x24 DUP3 ADD MSTORE PUSH18 0x4F726168506169723A204F564552464C4F57 PUSH1 0x70 SHL PUSH1 0x44 DUP3 ADD MSTORE PUSH1 0x64 SWAP1 REVERT JUMPDEST POP PUSH1 0x1 PUSH1 0x1 PUSH1 0x70 SHL SUB DUP3 GT ISZERO PUSH2 0x11F7 JUMP JUMPDEST PUSH1 0x40 MLOAD PUSH3 0x461BCD PUSH1 0xE5 SHL DUP2 MSTORE PUSH1 0x20 PUSH1 0x4 DUP3 ADD MSTORE PUSH1 0xB PUSH1 0x24 DUP3 ADD MSTORE PUSH11 0x4F726168506169723A204B PUSH1 0xA8 SHL PUSH1 0x44 DUP3 ADD MSTORE PUSH1 0x64 SWAP1 REVERT JUMPDEST PUSH4 0x4E487B71 PUSH1 0xE0 SHL PUSH1 0x0 MSTORE PUSH1 0x11 PUSH1 0x4 MSTORE PUSH1 0x24 PUSH1 0x0 REVERT JUMPDEST PUSH1 0x40 MLOAD PUSH3 0x461BCD PUSH1 0xE5 SHL DUP2 MSTORE PUSH1 0x20 PUSH1 0x4 DUP3 ADD MSTORE PUSH1 0x23 PUSH1 0x24 DUP3 ADD MSTORE PUSH32 0x4F726168506169723A20494E53554646494349454E545F494E5055545F414D4F PUSH1 0x44 DUP3 ADD MSTORE PUSH3 0x155395 PUSH1 0xEA SHL PUSH1 0x64 DUP3 ADD MSTORE PUSH1 0x84 SWAP1 REVERT JUMPDEST POP DUP5 ISZERO ISZERO PUSH2 0x112C JUMP JUMPDEST PUSH1 0x0 SWAP4 PUSH2 0x1122 JUMP JUMPDEST PUSH1 0x0 SWAP4 PUSH2 0x10E6 JUMP JUMPDEST SWAP1 SWAP2 POP PUSH1 0x20 DUP2 RETURNDATASIZE PUSH1 0x20 GT PUSH2 0x13C6 JUMPI JUMPDEST DUP2 PUSH2 0x13B6 PUSH1 0x20 SWAP4 DUP4 PUSH2 0x16B3 JUMP JUMPDEST DUP2 ADD SUB SLT PUSH2 0x25F JUMPI MLOAD SWAP1 DUP6 PUSH2 0x10A9 JUMP JUMPDEST RETURNDATASIZE SWAP2 POP PUSH2 0x13A9 JUMP JUMPDEST SWAP1 SWAP2 POP PUSH1 0x20 DUP2 RETURNDATASIZE PUSH1 0x20 GT PUSH2 0x13FB JUMPI JUMPDEST DUP2 PUSH2 0x13EA PUSH1 0x20 SWAP4 DUP4 PUSH2 0x16B3 JUMP JUMPDEST DUP2 ADD SUB SLT PUSH2 0x25F JUMPI MLOAD SWAP1 PUSH1 0x20 PUSH2 0x107E JUMP JUMPDEST RETURNDATASIZE SWAP2 POP PUSH2 0x13DD JUMP JUMPDEST PUSH2 0x1415 SWAP1 PUSH1 0x24 CALLDATALOAD SWAP1 DUP4 PUSH1 0x7 SLOAD AND PUSH2 0x1745 JUMP JUMPDEST DUP5 PUSH2 0x104A JUMP JUMPDEST PUSH2 0x1429 SWAP1 DUP3 PUSH1 0x4 CALLDATALOAD SWAP2 PUSH2 0x1745 JUMP JUMPDEST DUP6 PUSH2 0x1041 JUMP JUMPDEST PUSH1 0x40 MLOAD PUSH3 0x461BCD PUSH1 0xE5 SHL DUP2 MSTORE PUSH1 0x20 PUSH1 0x4 DUP3 ADD MSTORE PUSH1 0x14 PUSH1 0x24 DUP3 ADD MSTORE PUSH20 0x4F726168506169723A20494E56414C49445F544F PUSH1 0x60 SHL PUSH1 0x44 DUP3 ADD MSTORE PUSH1 0x64 SWAP1 REVERT JUMPDEST POP DUP4 PUSH1 0x7 SLOAD AND DUP8 EQ ISZERO PUSH2 0x1037 JUMP JUMPDEST PUSH1 0x64 PUSH1 0x40 MLOAD PUSH3 0x461BCD PUSH1 0xE5 SHL DUP2 MSTORE PUSH1 0x20 PUSH1 0x4 DUP3 ADD MSTORE PUSH1 0x20 PUSH1 0x24 DUP3 ADD MSTORE PUSH32 0x4F726168506169723A20494E53554646494349454E545F4C4951554944495459 PUSH1 0x44 DUP3 ADD MSTORE REVERT JUMPDEST POP PUSH1 0x1 PUSH1 0x1 PUSH1 0x70 SHL SUB DUP6 AND PUSH1 0x24 CALLDATALOAD LT PUSH2 0x1022 JUMP JUMPDEST PUSH1 0x40 MLOAD PUSH3 0x461BCD PUSH1 0xE5 SHL DUP2 MSTORE PUSH1 0x20 PUSH1 0x4 DUP3 ADD MSTORE PUSH1 0x24 DUP1 DUP3 ADD MSTORE PUSH32 0x4F726168506169723A20494E53554646494349454E545F4F55545055545F414D PUSH1 0x44 DUP3 ADD MSTORE PUSH4 0x13D55395 PUSH1 0xE2 SHL PUSH1 0x64 DUP3 ADD MSTORE PUSH1 0x84 SWAP1 REVERT JUMPDEST POP PUSH1 0x24 CALLDATALOAD ISZERO ISZERO PUSH2 0xFE6 JUMP JUMPDEST PUSH1 0x4 CALLDATALOAD SWAP1 PUSH1 0x1 PUSH1 0x1 PUSH1 0xA0 SHL SUB DUP3 AND DUP3 SUB PUSH2 0x25F JUMPI JUMP JUMPDEST PUSH1 0x24 CALLDATALOAD SWAP1 PUSH1 0x1 PUSH1 0x1 PUSH1 0xA0 SHL SUB DUP3 AND DUP3 SUB PUSH2 0x25F JUMPI JUMP JUMPDEST PUSH1 0x0 JUMPDEST DUP4 DUP2 LT PUSH2 0x156C JUMPI POP POP PUSH1 0x0 SWAP2 ADD MSTORE JUMP JUMPDEST DUP2 DUP2 ADD MLOAD DUP4 DUP3 ADD MSTORE PUSH1 0x20 ADD PUSH2 0x155C JUMP JUMPDEST PUSH1 0x40 SWAP2 PUSH1 0x20 DUP3 MSTORE PUSH2 0x159C DUP2 MLOAD DUP1 SWAP3 DUP2 PUSH1 0x20 DUP7 ADD MSTORE PUSH1 0x20 DUP7 DUP7 ADD SWAP2 ADD PUSH2 0x1559 JUMP JUMPDEST PUSH1 0x1F ADD PUSH1 0x1F NOT AND ADD ADD SWAP1 JUMP JUMPDEST SWAP2 PUSH1 0x1 PUSH1 0x1 PUSH1 0xA0 SHL SUB DUP1 DUP5 AND SWAP3 DUP4 ISZERO PUSH2 0x165B JUMPI AND SWAP3 DUP4 ISZERO PUSH2 0x1642 JUMPI PUSH1 0x0 SWAP1 DUP4 DUP3 MSTORE DUP2 PUSH1 0x20 MSTORE PUSH1 0x40 DUP3 KECCAK256 SLOAD SWAP1 DUP4 DUP3 LT PUSH2 0x1610 JUMPI POP SWAP2 PUSH1 0x40 DUP3 DUP3 PUSH1 0x0 DUP1 MLOAD PUSH1 0x20 PUSH2 0x19C0 DUP4 CODECOPY DUP2 MLOAD SWAP2 MSTORE SWAP6 DUP8 PUSH1 0x20 SWAP7 MSTORE DUP3 DUP7 MSTORE SUB DUP3 DUP3 KECCAK256 SSTORE DUP7 DUP2 MSTORE KECCAK256 DUP2 DUP2 SLOAD ADD SWAP1 SSTORE PUSH1 0x40 MLOAD SWAP1 DUP2 MSTORE LOG3 JUMP JUMPDEST PUSH1 0x40 MLOAD PUSH4 0x391434E3 PUSH1 0xE2 SHL DUP2 MSTORE PUSH1 0x1 PUSH1 0x1 PUSH1 0xA0 SHL SUB SWAP2 SWAP1 SWAP2 AND PUSH1 0x4 DUP3 ADD MSTORE PUSH1 0x24 DUP2 ADD SWAP2 SWAP1 SWAP2 MSTORE PUSH1 0x44 DUP2 ADD DUP4 SWAP1 MSTORE PUSH1 0x64 SWAP1 REVERT JUMPDEST PUSH1 0x40 MLOAD PUSH4 0xEC442F05 PUSH1 0xE0 SHL DUP2 MSTORE PUSH1 0x0 PUSH1 0x4 DUP3 ADD MSTORE PUSH1 0x24 SWAP1 REVERT JUMPDEST PUSH1 0x40 MLOAD PUSH4 0x4B637E8F PUSH1 0xE1 SHL DUP2 MSTORE PUSH1 0x0 PUSH1 0x4 DUP3 ADD MSTORE PUSH1 0x24 SWAP1 REVERT JUMPDEST SWAP2 SWAP1 DUP3 ADD DUP1 SWAP3 GT PUSH2 0x131A JUMPI JUMP JUMPDEST PUSH1 0x40 DUP2 ADD SWAP1 DUP2 LT PUSH8 0xFFFFFFFFFFFFFFFF DUP3 GT OR PUSH2 0x169D JUMPI PUSH1 0x40 MSTORE JUMP JUMPDEST PUSH4 0x4E487B71 PUSH1 0xE0 SHL PUSH1 0x0 MSTORE PUSH1 0x41 PUSH1 0x4 MSTORE PUSH1 0x24 PUSH1 0x0 REVERT JUMPDEST SWAP1 PUSH1 0x1F DUP1 NOT SWAP2 ADD AND DUP2 ADD SWAP1 DUP2 LT PUSH8 0xFFFFFFFFFFFFFFFF DUP3 GT OR PUSH2 0x169D JUMPI PUSH1 0x40 MSTORE JUMP JUMPDEST SWAP2 SWAP1 DUP3 SUB SWAP2 DUP3 GT PUSH2 0x131A JUMPI JUMP JUMPDEST DUP2 DUP2 MUL SWAP3 SWAP2 DUP2 ISZERO SWAP2 DUP5 DIV EQ OR ISZERO PUSH2 0x131A JUMPI JUMP JUMPDEST DUP2 ISZERO PUSH2 0x16FF JUMPI DIV SWAP1 JUMP JUMPDEST PUSH4 0x4E487B71 PUSH1 0xE0 SHL PUSH1 0x0 MSTORE PUSH1 0x12 PUSH1 0x4 MSTORE PUSH1 0x24 PUSH1 0x0 REVERT JUMPDEST PUSH1 0x0 DUP1 MLOAD PUSH1 0x20 PUSH2 0x19E0 DUP4 CODECOPY DUP2 MLOAD SWAP2 MSTORE PUSH1 0x2 DUP2 SLOAD EQ PUSH2 0x1733 JUMPI PUSH1 0x2 SWAP1 SSTORE JUMP JUMPDEST PUSH1 0x40 MLOAD PUSH4 0x3EE5AEB5 PUSH1 0xE0 SHL DUP2 MSTORE PUSH1 0x4 SWAP1 REVERT JUMPDEST PUSH1 0x40 MLOAD PUSH4 0xA9059CBB PUSH1 0xE0 SHL PUSH1 0x0 SWAP1 DUP2 MSTORE PUSH1 0x1 PUSH1 0x1 PUSH1 0xA0 SHL SUB SWAP4 DUP5 AND PUSH1 0x4 MSTORE PUSH1 0x24 SWAP5 SWAP1 SWAP5 MSTORE SWAP3 PUSH1 0x20 SWAP1 PUSH1 0x44 DUP2 DUP1 DUP6 GAS CALL PUSH1 0x1 PUSH1 0x0 MLOAD EQ DUP2 AND ISZERO PUSH2 0x17A6 JUMPI JUMPDEST DUP4 PUSH1 0x40 MSTORE ISZERO PUSH2 0x1790 JUMPI POP POP POP JUMP JUMPDEST PUSH4 0x5274AFE7 PUSH1 0xE0 SHL DUP4 MSTORE AND PUSH1 0x4 DUP3 ADD MSTORE PUSH1 0x24 SWAP2 POP REVERT JUMPDEST PUSH1 0x1 DUP2 ISZERO AND PUSH2 0x17BC JUMPI DUP2 EXTCODESIZE ISZERO ISZERO RETURNDATASIZE ISZERO AND AND PUSH2 0x1782 JUMP JUMPDEST DUP4 RETURNDATASIZE PUSH1 0x0 DUP3 RETURNDATACOPY RETURNDATASIZE SWAP1 REVERT JUMPDEST PUSH1 0x40 MLOAD PUSH1 0x20 DUP2 ADD SWAP2 PUSH12 0xFFFFFFFFFFFFFFFFFFFFFFFF NOT SWAP1 PUSH1 0x60 SHL AND DUP3 MSTORE PUSH1 0x14 DUP2 MSTORE PUSH2 0x17F0 DUP2 PUSH2 0x1681 JUMP JUMPDEST PUSH1 0x40 MLOAD SWAP2 PUSH2 0x17FD DUP4 PUSH2 0x1681 JUMP JUMPDEST PUSH1 0x8 DUP4 MSTORE PUSH1 0x20 DUP4 ADD PUSH1 0x20 CALLDATASIZE DUP3 CALLDATACOPY DUP4 MLOAD ISZERO PUSH2 0x19A9 JUMPI PUSH1 0x30 SWAP1 MSTORE8 DUP3 MLOAD PUSH1 0x1 LT ISZERO PUSH2 0x19A9 JUMPI PUSH1 0x78 PUSH1 0x21 DUP5 ADD MSTORE8 DUP2 MLOAD ISZERO PUSH2 0x19A9 JUMPI DUP1 MLOAD PUSH1 0xFC SHR SWAP2 PUSH1 0x10 SWAP2 DUP3 DUP5 LT ISZERO PUSH2 0x19A9 JUMPI DUP5 MLOAD PUSH1 0x2 LT ISZERO PUSH2 0x19A9 JUMPI PUSH16 0x181899199A1A9B1B9C1CB0B131B232B3 PUSH1 0x81 SHL SWAP4 DUP5 SWAP1 BYTE PUSH1 0x22 DUP7 ADD MSTORE8 DUP2 MLOAD ISZERO PUSH2 0x19A9 JUMPI MLOAD PUSH1 0xF8 SHR PUSH1 0xF AND DUP3 DUP2 LT ISZERO PUSH2 0x19A9 JUMPI DUP5 MLOAD PUSH1 0x3 LT ISZERO PUSH2 0x19A9 JUMPI DUP4 SWAP1 BYTE PUSH1 0x23 DUP6 ADD MSTORE8 DUP1 MLOAD PUSH1 0x1 LT ISZERO PUSH2 0x19A9 JUMPI PUSH1 0x21 DUP2 ADD DUP1 MLOAD PUSH1 0xFC SHR SWAP2 DUP4 DUP4 LT ISZERO PUSH2 0x19A9 JUMPI DUP6 MLOAD SWAP2 PUSH1 0x4 SWAP3 DUP4 LT ISZERO PUSH2 0x1994 JUMPI DUP6 PUSH1 0x24 SWAP5 BYTE DUP5 DUP9 ADD MSTORE8 DUP2 MLOAD PUSH1 0x1 LT ISZERO PUSH2 0x1980 JUMPI MLOAD PUSH1 0xF8 SHR PUSH1 0xF AND DUP5 DUP2 LT ISZERO PUSH2 0x1980 JUMPI DUP7 MLOAD PUSH1 0x5 LT ISZERO PUSH2 0x1980 JUMPI DUP6 SWAP1 BYTE PUSH1 0x25 DUP8 ADD MSTORE8 DUP1 MLOAD PUSH1 0x2 LT ISZERO PUSH2 0x1958 JUMPI PUSH1 0x22 DUP2 ADD SWAP1 DUP2 MLOAD PUSH1 0xFC SHR DUP6 DUP2 LT ISZERO PUSH2 0x196C JUMPI DUP8 MLOAD PUSH1 0x6 LT ISZERO PUSH2 0x196C JUMPI DUP7 SWAP1 BYTE PUSH1 0x26 DUP9 ADD MSTORE8 MLOAD PUSH1 0x2 LT ISZERO PUSH2 0x1958 JUMPI MLOAD PUSH1 0xF8 SHR PUSH1 0xF AND SWAP3 DUP4 LT ISZERO PUSH2 0x1945 JUMPI DUP5 MLOAD PUSH1 0x7 LT ISZERO PUSH2 0x1945 JUMPI POP POP BYTE PUSH1 0x27 DUP3 ADD MSTORE8 SWAP1 JUMP JUMPDEST PUSH1 0x32 SWAP1 PUSH4 0x4E487B71 PUSH1 0xE0 SHL PUSH1 0x0 MSTORE MSTORE PUSH1 0x0 REVERT JUMPDEST POP PUSH1 0x32 SWAP1 PUSH4 0x4E487B71 PUSH1 0xE0 SHL PUSH1 0x0 MSTORE MSTORE PUSH1 0x0 REVERT JUMPDEST DUP5 PUSH1 0x32 DUP6 PUSH4 0x4E487B71 PUSH1 0xE0 SHL PUSH1 0x0 MSTORE MSTORE PUSH1 0x0 REVERT JUMPDEST DUP4 PUSH1 0x32 DUP5 PUSH4 0x4E487B71 PUSH1 0xE0 SHL PUSH1 0x0 MSTORE MSTORE PUSH1 0x0 REVERT JUMPDEST PUSH1 0x32 DUP4 PUSH4 0x4E487B71 PUSH1 0xE0 SHL PUSH1 0x0 MSTORE MSTORE PUSH1 0x24 PUSH1 0x0 REVERT JUMPDEST PUSH4 0x4E487B71 PUSH1 0xE0 SHL PUSH1 0x0 MSTORE PUSH1 0x32 PUSH1 0x4 MSTORE PUSH1 0x24 PUSH1 0x0 REVERT INVALID 0xDD CALLCODE MSTORE 0xAD SHL 0xE2 0xC8 SWAP12 PUSH10 0xC2B068FC378DAA952BA7 CALL PUSH4 0xC4A11628 CREATE2 GAS 0x4D CREATE2 0x23 0xB3 0xEF SWAP12 PUSH24 0x9B17422D0DF92223018B32B4D1FA46E071723D6817E2486D STOP EXTCODESIZE 0xEC 0xC5 PUSH0 STOP SHR COINBASE 0x1E SWAP11 SWAP7 0xE0 PUSH18 0x241C2F21F7726B17AE89E3CAB4C78BE50E06 0x2B SUB 0xA9 SELFDESTRUCT 0xFB 0xBA 0xD1 LOG2 PUSH5 0x6970667358 0x22 SLT KECCAK256 PUSH32 0x9B30BF51459A4657A52D3CF151CA35B5004D34E19A0685FE7996FB52002CE464 PUSH20 0x6F6C634300081400330000000000000000000000 "},"methodIdentifiers":{"DEAD()":"03fd2a45","MINIMUM_LIQUIDITY()":"ba9a7a56","allowance(address,address)":"dd62ed3e","approve(address,uint256)":"095ea7b3","balanceOf(address)":"70a08231","burn(address)":"89afcb44","decimals()":"313ce567","factory()":"c45a0155","getReserves()":"0902f1ac","initialize(address,address)":"485cc955","mint(address)":"6a627842","name()":"06fdde03","swap(uint256,uint256,address,bytes)":"022c0d9f","symbol()":"95d89b41","sync()":"fff6cae9","token0()":"0dfe1681","token1()":"d21220a7","totalSupply()":"18160ddd","transfer(address,uint256)":"a9059cbb","transferFrom(address,address,uint256)":"23b872dd"}}}}}