{"contracts/OrahDEXEscrow.sol":{"OrahDEXEscrow":{"abi":[{"inputs":[{"internalType":"address","name":"_relayer","type":"address"}],"stateMutability":"nonpayable","type":"constructor"},{"inputs":[],"name":"ReentrancyGuardReentrantCall","type":"error"},{"inputs":[{"internalType":"address","name":"token","type":"address"}],"name":"SafeERC20FailedOperation","type":"error"},{"anonymous":false,"inputs":[{"indexed":true,"internalType":"bytes32","name":"orderId","type":"bytes32"},{"indexed":true,"internalType":"address","name":"depositor","type":"address"},{"indexed":false,"internalType":"address","name":"token","type":"address"},{"indexed":false,"internalType":"uint256","name":"amount","type":"uint256"}],"name":"OrderCancelled","type":"event"},{"anonymous":false,"inputs":[{"indexed":true,"internalType":"bytes32","name":"orderId","type":"bytes32"},{"indexed":true,"internalType":"address","name":"depositor","type":"address"},{"indexed":true,"internalType":"address","name":"token","type":"address"},{"indexed":false,"internalType":"uint256","name":"amount","type":"uint256"}],"name":"OrderLocked","type":"event"},{"anonymous":false,"inputs":[{"indexed":true,"internalType":"bytes32","name":"orderId","type":"bytes32"},{"indexed":true,"internalType":"address","name":"recipient","type":"address"},{"indexed":false,"internalType":"address","name":"token","type":"address"},{"indexed":false,"internalType":"uint256","name":"amount","type":"uint256"}],"name":"OrderReleased","type":"event"},{"inputs":[{"internalType":"bytes32","name":"orderId","type":"bytes32"}],"name":"cancel","outputs":[],"stateMutability":"nonpayable","type":"function"},{"inputs":[{"internalType":"address","name":"","type":"address"},{"internalType":"uint256","name":"","type":"uint256"}],"name":"depositorOrders","outputs":[{"internalType":"bytes32","name":"","type":"bytes32"}],"stateMutability":"view","type":"function"},{"inputs":[{"internalType":"bytes32","name":"","type":"bytes32"}],"name":"deposits","outputs":[{"internalType":"address","name":"depositor","type":"address"},{"internalType":"address","name":"token","type":"address"},{"internalType":"uint256","name":"amount","type":"uint256"},{"internalType":"uint64","name":"lockedAt","type":"uint64"},{"internalType":"bool","name":"released","type":"bool"}],"stateMutability":"view","type":"function"},{"inputs":[{"internalType":"bytes32","name":"orderId","type":"bytes32"}],"name":"getDeposit","outputs":[{"components":[{"internalType":"address","name":"depositor","type":"address"},{"internalType":"address","name":"token","type":"address"},{"internalType":"uint256","name":"amount","type":"uint256"},{"internalType":"uint64","name":"lockedAt","type":"uint64"},{"internalType":"bool","name":"released","type":"bool"}],"internalType":"struct OrahDEXEscrow.Deposit","name":"","type":"tuple"}],"stateMutability":"view","type":"function"},{"inputs":[{"internalType":"address","name":"depositor","type":"address"}],"name":"getDepositorOrders","outputs":[{"internalType":"bytes32[]","name":"","type":"bytes32[]"}],"stateMutability":"view","type":"function"},{"inputs":[{"internalType":"bytes32","name":"orderId","type":"bytes32"},{"internalType":"address","name":"token","type":"address"},{"internalType":"uint256","name":"amount","type":"uint256"}],"name":"lockERC20","outputs":[],"stateMutability":"nonpayable","type":"function"},{"inputs":[{"internalType":"bytes32","name":"orderId","type":"bytes32"}],"name":"lockETH","outputs":[],"stateMutability":"payable","type":"function"},{"inputs":[],"name":"relayer","outputs":[{"internalType":"address","name":"","type":"address"}],"stateMutability":"view","type":"function"},{"inputs":[{"internalType":"bytes32","name":"orderId","type":"bytes32"},{"internalType":"address","name":"recipient","type":"address"}],"name":"release","outputs":[],"stateMutability":"nonpayable","type":"function"},{"stateMutability":"payable","type":"receive"}],"evm":{"bytecode":{"linkReferences":{},"object":"60a0346100e757601f610def38819003918201601f19168301916001600160401b038311848410176100ec578084926020946040528339810103126100e757516001600160a01b0381168082036100e75760017f9b779b17422d0df92223018b32b4d1fa46e071723d6817e2486d003becc55f0055156100a257608052604051610cec908161010382396080518181816101ca0152818161020a015261085e0152f35b60405162461bcd60e51b815260206004820152601b60248201527f4f726168444558457363726f773a207a65726f2072656c6179657200000000006044820152606490fd5b600080fd5b634e487b7160e01b600052604160045260246000fdfe60406080815260048036101561001f575b5050361561001d57600080fd5b005b600091823560e01c80631bbdcfd31461082e5780633d4dff7b146107c557806353ecf12a1461057a578063618c509f1461052157806377ffd451146103a35780637a86983f146102e25780637fdf71bf1461023d5780638406c079146101f55763c4d252f51461008f5750610010565b346101f15760203660031901126101f1578135906100ab610a9e565b818452602084905280842080546001600160a01b03908116946100cf861515610ace565b60038301908154906100e660ff83881c1615610b1a565b87331480156101c6575b1561018357509161016b91600160401b7f5f46c4ce46da7d829236b80ea83db87bd8709fb1cef773930d1f56b25df7518a96959460ff60401b19161790556001830161014760028383541695019489865491610b66565b549254935192166001600160a01b0316825260208201929092529081906040820190565b0390a36001600080516020610c978339815191525580f35b606490602087519162461bcd60e51b8352820152601d60248201527f4f726168444558457363726f773a206e6f7420617574686f72697a65640000006044820152fd5b50837f00000000000000000000000000000000000000000000000000000000000000001633146100f0565b8280fd5b838234610239578160031936011261023957517f00000000000000000000000000000000000000000000000000000000000000006001600160a01b03168152602090f35b5080fd5b838234610239576020806003193601126101f157916001600160a01b03610262610985565b16815260019081845282812093835190818187549182815201908197855282852090855b8181106102cf575050508261029c910383610a47565b8451948186019282875251809352850195925b8281106102bc5785870386f35b83518752958101959281019284016102af565b8254845292840192918701918701610286565b5090346101f15760203660031901126101f15782829160a0946080845161030881610a15565b828152826020820152828682015282606082015201523581528060205220815161033181610a15565b600180851b039182815416938483528360018301541691602084019283526003600282015491838601928352015494606085019360ff608067ffffffffffffffff97888a1688520197851c16151587528351978852511660208701525190850152511660608301525115156080820152f35b509190602090816003193601126101f1578035906103bf610a9e565b34156104de57507f043ab3c8d864bae5ef4cb6250fe663aee57932253ddbc775d1a7334252c7714383948285528484526104ae858486600360018060a01b0361040d818887205416156109c9565b86519061041982610a15565b33825283820186815288830191348352808a60608601998067ffffffffffffffff998a42168d52608089019b828d5282525220945116906bffffffffffffffffffffffff60a01b918286541617855560018501925116908254161790555160028201550192511667ffffffffffffffff1983541617825551151560ff60401b825491151560401b169060ff60401b1916179055565b338552600184526104c183828720610a69565b51923484523393a46001600080516020610c978339815191525580f35b845162461bcd60e51b8152908101839052601760248201527f4f726168444558457363726f773a207a65726f204554480000000000000000006044820152606490fd5b83823461023957806003193601126102395761053b610985565b6001600160a01b0316825260016020528082208054602435939084101561057757506020926105699161099b565b91905490519160031b1c8152f35b80fd5b50346101f15760603660031901126101f157813561059661096a565b92604435926105a3610a9e565b8315610782576001600160a01b0394851694851561073f578387526020928784526105d382848a205416156109c9565b82516323b872dd60e01b8952338252306024526044879052908489606481808c5af160018a5114811615610720575b828552896060521561070c575050906106dd87858560037f043ab3c8d864bae5ef4cb6250fe663aee57932253ddbc775d1a7334252c77143979686519061064882610a15565b3382528382018d8152888301918d8352808a60608601998067ffffffffffffffff998a42168d52608089019b828d5282525220945116906bffffffffffffffffffffffff60a01b918286541617855560018501925116908254161790555160028201550192511667ffffffffffffffff1983541617825551151560ff60401b825491151560401b169060ff60401b1916179055565b338752600182526106f084828920610a69565b519384523393a46001600080516020610c978339815191525580f35b635274afe760e01b82528101879052602490fd5b600181151661073657883b15153d151616610602565b823d8b823e3d90fd5b815162461bcd60e51b8152602081850152601c60248201527f4f726168444558457363726f773a20696e76616c696420746f6b656e000000006044820152606490fd5b906020606492519162461bcd60e51b8352820152601a60248201527f4f726168444558457363726f773a207a65726f20616d6f756e740000000000006044820152fd5b5090346101f15760203660031901126101f1578160a09360ff923581528060205220600180851b03928382541693600183015416916003600282015491015492825195865260208601528185015267ffffffffffffffff821660608501521c1615156080820152f35b5090346101f157816003193601126101f15780359061084b61096a565b610853610a9e565b6001600160a01b03917f0000000000000000000000000000000000000000000000000000000000000000831633036109275750907fd858d688b73aa3c93226e18a62ff4ca8c7597c7576628c54170311d9b00ac48b918386528560205261016b858720956108c5848854161515610ace565b60038701600160401b81546108df60ff82861c1615610b1a565b60ff60401b191617905583600188016109036002838354169a0199868b5491610b66565b549754915197166001600160a01b0316875260208701529116939081906040820190565b606490602086519162461bcd60e51b8352820152601a60248201527f4f726168444558457363726f773a206e6f742072656c617965720000000000006044820152fd5b602435906001600160a01b038216820361098057565b600080fd5b600435906001600160a01b038216820361098057565b80548210156109b35760005260206000200190600090565b634e487b7160e01b600052603260045260246000fd5b156109d057565b60405162461bcd60e51b815260206004820152601d60248201527f4f726168444558457363726f773a20616c7265616479206c6f636b65640000006044820152606490fd5b60a0810190811067ffffffffffffffff821117610a3157604052565b634e487b7160e01b600052604160045260246000fd5b90601f8019910116810190811067ffffffffffffffff821117610a3157604052565b8054600160401b811015610a3157610a869160018201815561099b565b819291549060031b91821b91600019901b1916179055565b600080516020610c978339815191526002815414610abc5760029055565b604051633ee5aeb560e01b8152600490fd5b15610ad557565b60405162461bcd60e51b815260206004820152601960248201527f4f726168444558457363726f773a206e6f206465706f736974000000000000006044820152606490fd5b15610b2157565b60405162461bcd60e51b815260206004820152601e60248201527f4f726168444558457363726f773a20616c726561647920736574746c656400006044820152606490fd5b6001600160a01b039081169081610c2257505060008080809481945af1903d15610c1c573d9067ffffffffffffffff8211610c085760405191610bb3601f8201601f191660200184610a47565b825260203d92013e5b15610bc357565b60405162461bcd60e51b815260206004820152601e60248201527f4f726168444558457363726f773a204554482073656e64206661696c656400006044820152606490fd5b634e487b7160e01b81526041600452602490fd5b50610bbc565b60209192936000916040519563a9059cbb60e01b84521660045260245260448180855af1600160005114811615610c76575b8260405215610c61575050565b635274afe760e01b8252600482015260249150fd5b6001811516610c8c57813b15153d151616610c54565b823d6000823e3d90fdfe9b779b17422d0df92223018b32b4d1fa46e071723d6817e2486d003becc55f00a264697066735822122040b03a0233fb5da91e5efb1a69bf8bc26528eee69f13e308f30e4c63d657f05d64736f6c63430008140033","opcodes":"PUSH1 0xA0 CALLVALUE PUSH2 0xE7 JUMPI PUSH1 0x1F PUSH2 0xDEF CODESIZE DUP2 SWAP1 SUB SWAP2 DUP3 ADD PUSH1 0x1F NOT AND DUP4 ADD SWAP2 PUSH1 0x1 PUSH1 0x1 PUSH1 0x40 SHL SUB DUP4 GT DUP5 DUP5 LT OR PUSH2 0xEC JUMPI DUP1 DUP5 SWAP3 PUSH1 0x20 SWAP5 PUSH1 0x40 MSTORE DUP4 CODECOPY DUP2 ADD SUB SLT PUSH2 0xE7 JUMPI MLOAD PUSH1 0x1 PUSH1 0x1 PUSH1 0xA0 SHL SUB DUP2 AND DUP1 DUP3 SUB PUSH2 0xE7 JUMPI PUSH1 0x1 PUSH32 0x9B779B17422D0DF92223018B32B4D1FA46E071723D6817E2486D003BECC55F00 SSTORE ISZERO PUSH2 0xA2 JUMPI PUSH1 0x80 MSTORE PUSH1 0x40 MLOAD PUSH2 0xCEC SWAP1 DUP2 PUSH2 0x103 DUP3 CODECOPY PUSH1 0x80 MLOAD DUP2 DUP2 DUP2 PUSH2 0x1CA ADD MSTORE DUP2 DUP2 PUSH2 0x20A ADD MSTORE PUSH2 0x85E ADD MSTORE RETURN JUMPDEST PUSH1 0x40 MLOAD PUSH3 0x461BCD PUSH1 0xE5 SHL DUP2 MSTORE PUSH1 0x20 PUSH1 0x4 DUP3 ADD MSTORE PUSH1 0x1B PUSH1 0x24 DUP3 ADD MSTORE PUSH32 0x4F726168444558457363726F773A207A65726F2072656C617965720000000000 PUSH1 0x44 DUP3 ADD MSTORE PUSH1 0x64 SWAP1 REVERT JUMPDEST PUSH1 0x0 DUP1 REVERT JUMPDEST PUSH4 0x4E487B71 PUSH1 0xE0 SHL PUSH1 0x0 MSTORE PUSH1 0x41 PUSH1 0x4 MSTORE PUSH1 0x24 PUSH1 0x0 REVERT INVALID PUSH1 0x40 PUSH1 0x80 DUP2 MSTORE PUSH1 0x4 DUP1 CALLDATASIZE LT ISZERO PUSH2 0x1F JUMPI JUMPDEST POP POP CALLDATASIZE ISZERO PUSH2 0x1D JUMPI PUSH1 0x0 DUP1 REVERT JUMPDEST STOP JUMPDEST PUSH1 0x0 SWAP2 DUP3 CALLDATALOAD PUSH1 0xE0 SHR DUP1 PUSH4 0x1BBDCFD3 EQ PUSH2 0x82E JUMPI DUP1 PUSH4 0x3D4DFF7B EQ PUSH2 0x7C5 JUMPI DUP1 PUSH4 0x53ECF12A EQ PUSH2 0x57A JUMPI DUP1 PUSH4 0x618C509F EQ PUSH2 0x521 JUMPI DUP1 PUSH4 0x77FFD451 EQ PUSH2 0x3A3 JUMPI DUP1 PUSH4 0x7A86983F EQ PUSH2 0x2E2 JUMPI DUP1 PUSH4 0x7FDF71BF EQ PUSH2 0x23D JUMPI DUP1 PUSH4 0x8406C079 EQ PUSH2 0x1F5 JUMPI PUSH4 0xC4D252F5 EQ PUSH2 0x8F JUMPI POP PUSH2 0x10 JUMP JUMPDEST CALLVALUE PUSH2 0x1F1 JUMPI PUSH1 0x20 CALLDATASIZE PUSH1 0x3 NOT ADD SLT PUSH2 0x1F1 JUMPI DUP2 CALLDATALOAD SWAP1 PUSH2 0xAB PUSH2 0xA9E JUMP JUMPDEST DUP2 DUP5 MSTORE PUSH1 0x20 DUP5 SWAP1 MSTORE DUP1 DUP5 KECCAK256 DUP1 SLOAD PUSH1 0x1 PUSH1 0x1 PUSH1 0xA0 SHL SUB SWAP1 DUP2 AND SWAP5 PUSH2 0xCF DUP7 ISZERO ISZERO PUSH2 0xACE JUMP JUMPDEST PUSH1 0x3 DUP4 ADD SWAP1 DUP2 SLOAD SWAP1 PUSH2 0xE6 PUSH1 0xFF DUP4 DUP9 SHR AND ISZERO PUSH2 0xB1A JUMP JUMPDEST DUP8 CALLER EQ DUP1 ISZERO PUSH2 0x1C6 JUMPI JUMPDEST ISZERO PUSH2 0x183 JUMPI POP SWAP2 PUSH2 0x16B SWAP2 PUSH1 0x1 PUSH1 0x40 SHL PUSH32 0x5F46C4CE46DA7D829236B80EA83DB87BD8709FB1CEF773930D1F56B25DF7518A SWAP7 SWAP6 SWAP5 PUSH1 0xFF PUSH1 0x40 SHL NOT AND OR SWAP1 SSTORE PUSH1 0x1 DUP4 ADD PUSH2 0x147 PUSH1 0x2 DUP4 DUP4 SLOAD AND SWAP6 ADD SWAP5 DUP10 DUP7 SLOAD SWAP2 PUSH2 0xB66 JUMP JUMPDEST SLOAD SWAP3 SLOAD SWAP4 MLOAD SWAP3 AND PUSH1 0x1 PUSH1 0x1 PUSH1 0xA0 SHL SUB AND DUP3 MSTORE PUSH1 0x20 DUP3 ADD SWAP3 SWAP1 SWAP3 MSTORE SWAP1 DUP2 SWAP1 PUSH1 0x40 DUP3 ADD SWAP1 JUMP JUMPDEST SUB SWAP1 LOG3 PUSH1 0x1 PUSH1 0x0 DUP1 MLOAD PUSH1 0x20 PUSH2 0xC97 DUP4 CODECOPY DUP2 MLOAD SWAP2 MSTORE SSTORE DUP1 RETURN JUMPDEST PUSH1 0x64 SWAP1 PUSH1 0x20 DUP8 MLOAD SWAP2 PUSH3 0x461BCD PUSH1 0xE5 SHL DUP4 MSTORE DUP3 ADD MSTORE PUSH1 0x1D PUSH1 0x24 DUP3 ADD MSTORE PUSH32 0x4F726168444558457363726F773A206E6F7420617574686F72697A6564000000 PUSH1 0x44 DUP3 ADD MSTORE REVERT JUMPDEST POP DUP4 PUSH32 0x0 AND CALLER EQ PUSH2 0xF0 JUMP JUMPDEST DUP3 DUP1 REVERT JUMPDEST DUP4 DUP3 CALLVALUE PUSH2 0x239 JUMPI DUP2 PUSH1 0x3 NOT CALLDATASIZE ADD SLT PUSH2 0x239 JUMPI MLOAD PUSH32 0x0 PUSH1 0x1 PUSH1 0x1 PUSH1 0xA0 SHL SUB AND DUP2 MSTORE PUSH1 0x20 SWAP1 RETURN JUMPDEST POP DUP1 REVERT JUMPDEST DUP4 DUP3 CALLVALUE PUSH2 0x239 JUMPI PUSH1 0x20 DUP1 PUSH1 0x3 NOT CALLDATASIZE ADD SLT PUSH2 0x1F1 JUMPI SWAP2 PUSH1 0x1 PUSH1 0x1 PUSH1 0xA0 SHL SUB PUSH2 0x262 PUSH2 0x985 JUMP JUMPDEST AND DUP2 MSTORE PUSH1 0x1 SWAP1 DUP2 DUP5 MSTORE DUP3 DUP2 KECCAK256 SWAP4 DUP4 MLOAD SWAP1 DUP2 DUP2 DUP8 SLOAD SWAP2 DUP3 DUP2 MSTORE ADD SWAP1 DUP2 SWAP8 DUP6 MSTORE DUP3 DUP6 KECCAK256 SWAP1 DUP6 JUMPDEST DUP2 DUP2 LT PUSH2 0x2CF JUMPI POP POP POP DUP3 PUSH2 0x29C SWAP2 SUB DUP4 PUSH2 0xA47 JUMP JUMPDEST DUP5 MLOAD SWAP5 DUP2 DUP7 ADD SWAP3 DUP3 DUP8 MSTORE MLOAD DUP1 SWAP4 MSTORE DUP6 ADD SWAP6 SWAP3 JUMPDEST DUP3 DUP2 LT PUSH2 0x2BC JUMPI DUP6 DUP8 SUB DUP7 RETURN JUMPDEST DUP4 MLOAD DUP8 MSTORE SWAP6 DUP2 ADD SWAP6 SWAP3 DUP2 ADD SWAP3 DUP5 ADD PUSH2 0x2AF JUMP JUMPDEST DUP3 SLOAD DUP5 MSTORE SWAP3 DUP5 ADD SWAP3 SWAP2 DUP8 ADD SWAP2 DUP8 ADD PUSH2 0x286 JUMP JUMPDEST POP SWAP1 CALLVALUE PUSH2 0x1F1 JUMPI PUSH1 0x20 CALLDATASIZE PUSH1 0x3 NOT ADD SLT PUSH2 0x1F1 JUMPI DUP3 DUP3 SWAP2 PUSH1 0xA0 SWAP5 PUSH1 0x80 DUP5 MLOAD PUSH2 0x308 DUP2 PUSH2 0xA15 JUMP JUMPDEST DUP3 DUP2 MSTORE DUP3 PUSH1 0x20 DUP3 ADD MSTORE DUP3 DUP7 DUP3 ADD MSTORE DUP3 PUSH1 0x60 DUP3 ADD MSTORE ADD MSTORE CALLDATALOAD DUP2 MSTORE DUP1 PUSH1 0x20 MSTORE KECCAK256 DUP2 MLOAD PUSH2 0x331 DUP2 PUSH2 0xA15 JUMP JUMPDEST PUSH1 0x1 DUP1 DUP6 SHL SUB SWAP2 DUP3 DUP2 SLOAD AND SWAP4 DUP5 DUP4 MSTORE DUP4 PUSH1 0x1 DUP4 ADD SLOAD AND SWAP2 PUSH1 0x20 DUP5 ADD SWAP3 DUP4 MSTORE PUSH1 0x3 PUSH1 0x2 DUP3 ADD SLOAD SWAP2 DUP4 DUP7 ADD SWAP3 DUP4 MSTORE ADD SLOAD SWAP5 PUSH1 0x60 DUP6 ADD SWAP4 PUSH1 0xFF PUSH1 0x80 PUSH8 0xFFFFFFFFFFFFFFFF SWAP8 DUP9 DUP11 AND DUP9 MSTORE ADD SWAP8 DUP6 SHR AND ISZERO ISZERO DUP8 MSTORE DUP4 MLOAD SWAP8 DUP9 MSTORE MLOAD AND PUSH1 0x20 DUP8 ADD MSTORE MLOAD SWAP1 DUP6 ADD MSTORE MLOAD AND PUSH1 0x60 DUP4 ADD MSTORE MLOAD ISZERO ISZERO PUSH1 0x80 DUP3 ADD MSTORE RETURN JUMPDEST POP SWAP2 SWAP1 PUSH1 0x20 SWAP1 DUP2 PUSH1 0x3 NOT CALLDATASIZE ADD SLT PUSH2 0x1F1 JUMPI DUP1 CALLDATALOAD SWAP1 PUSH2 0x3BF PUSH2 0xA9E JUMP JUMPDEST CALLVALUE ISZERO PUSH2 0x4DE JUMPI POP PUSH32 0x43AB3C8D864BAE5EF4CB6250FE663AEE57932253DDBC775D1A7334252C77143 DUP4 SWAP5 DUP3 DUP6 MSTORE DUP5 DUP5 MSTORE PUSH2 0x4AE DUP6 DUP5 DUP7 PUSH1 0x3 PUSH1 0x1 DUP1 PUSH1 0xA0 SHL SUB PUSH2 0x40D DUP2 DUP9 DUP8 KECCAK256 SLOAD AND ISZERO PUSH2 0x9C9 JUMP JUMPDEST DUP7 MLOAD SWAP1 PUSH2 0x419 DUP3 PUSH2 0xA15 JUMP JUMPDEST CALLER DUP3 MSTORE DUP4 DUP3 ADD DUP7 DUP2 MSTORE DUP9 DUP4 ADD SWAP2 CALLVALUE DUP4 MSTORE DUP1 DUP11 PUSH1 0x60 DUP7 ADD SWAP10 DUP1 PUSH8 0xFFFFFFFFFFFFFFFF SWAP10 DUP11 TIMESTAMP AND DUP14 MSTORE PUSH1 0x80 DUP10 ADD SWAP12 DUP3 DUP14 MSTORE DUP3 MSTORE MSTORE KECCAK256 SWAP5 MLOAD AND SWAP1 PUSH12 0xFFFFFFFFFFFFFFFFFFFFFFFF PUSH1 0xA0 SHL SWAP2 DUP3 DUP7 SLOAD AND OR DUP6 SSTORE PUSH1 0x1 DUP6 ADD SWAP3 MLOAD AND SWAP1 DUP3 SLOAD AND OR SWAP1 SSTORE MLOAD PUSH1 0x2 DUP3 ADD SSTORE ADD SWAP3 MLOAD AND PUSH8 0xFFFFFFFFFFFFFFFF NOT DUP4 SLOAD AND OR DUP3 SSTORE MLOAD ISZERO ISZERO PUSH1 0xFF PUSH1 0x40 SHL DUP3 SLOAD SWAP2 ISZERO ISZERO PUSH1 0x40 SHL AND SWAP1 PUSH1 0xFF PUSH1 0x40 SHL NOT AND OR SWAP1 SSTORE JUMP JUMPDEST CALLER DUP6 MSTORE PUSH1 0x1 DUP5 MSTORE PUSH2 0x4C1 DUP4 DUP3 DUP8 KECCAK256 PUSH2 0xA69 JUMP JUMPDEST MLOAD SWAP3 CALLVALUE DUP5 MSTORE CALLER SWAP4 LOG4 PUSH1 0x1 PUSH1 0x0 DUP1 MLOAD PUSH1 0x20 PUSH2 0xC97 DUP4 CODECOPY DUP2 MLOAD SWAP2 MSTORE SSTORE DUP1 RETURN JUMPDEST DUP5 MLOAD PUSH3 0x461BCD PUSH1 0xE5 SHL DUP2 MSTORE SWAP1 DUP2 ADD DUP4 SWAP1 MSTORE PUSH1 0x17 PUSH1 0x24 DUP3 ADD MSTORE PUSH32 0x4F726168444558457363726F773A207A65726F20455448000000000000000000 PUSH1 0x44 DUP3 ADD MSTORE PUSH1 0x64 SWAP1 REVERT JUMPDEST DUP4 DUP3 CALLVALUE PUSH2 0x239 JUMPI DUP1 PUSH1 0x3 NOT CALLDATASIZE ADD SLT PUSH2 0x239 JUMPI PUSH2 0x53B PUSH2 0x985 JUMP JUMPDEST PUSH1 0x1 PUSH1 0x1 PUSH1 0xA0 SHL SUB AND DUP3 MSTORE PUSH1 0x1 PUSH1 0x20 MSTORE DUP1 DUP3 KECCAK256 DUP1 SLOAD PUSH1 0x24 CALLDATALOAD SWAP4 SWAP1 DUP5 LT ISZERO PUSH2 0x577 JUMPI POP PUSH1 0x20 SWAP3 PUSH2 0x569 SWAP2 PUSH2 0x99B JUMP JUMPDEST SWAP2 SWAP1 SLOAD SWAP1 MLOAD SWAP2 PUSH1 0x3 SHL SHR DUP2 MSTORE RETURN JUMPDEST DUP1 REVERT JUMPDEST POP CALLVALUE PUSH2 0x1F1 JUMPI PUSH1 0x60 CALLDATASIZE PUSH1 0x3 NOT ADD SLT PUSH2 0x1F1 JUMPI DUP2 CALLDATALOAD PUSH2 0x596 PUSH2 0x96A JUMP JUMPDEST SWAP3 PUSH1 0x44 CALLDATALOAD SWAP3 PUSH2 0x5A3 PUSH2 0xA9E JUMP JUMPDEST DUP4 ISZERO PUSH2 0x782 JUMPI PUSH1 0x1 PUSH1 0x1 PUSH1 0xA0 SHL SUB SWAP5 DUP6 AND SWAP5 DUP6 ISZERO PUSH2 0x73F JUMPI DUP4 DUP8 MSTORE PUSH1 0x20 SWAP3 DUP8 DUP5 MSTORE PUSH2 0x5D3 DUP3 DUP5 DUP11 KECCAK256 SLOAD AND ISZERO PUSH2 0x9C9 JUMP JUMPDEST DUP3 MLOAD PUSH4 0x23B872DD PUSH1 0xE0 SHL DUP10 MSTORE CALLER DUP3 MSTORE ADDRESS PUSH1 0x24 MSTORE PUSH1 0x44 DUP8 SWAP1 MSTORE SWAP1 DUP5 DUP10 PUSH1 0x64 DUP2 DUP1 DUP13 GAS CALL PUSH1 0x1 DUP11 MLOAD EQ DUP2 AND ISZERO PUSH2 0x720 JUMPI JUMPDEST DUP3 DUP6 MSTORE DUP10 PUSH1 0x60 MSTORE ISZERO PUSH2 0x70C JUMPI POP POP SWAP1 PUSH2 0x6DD DUP8 DUP6 DUP6 PUSH1 0x3 PUSH32 0x43AB3C8D864BAE5EF4CB6250FE663AEE57932253DDBC775D1A7334252C77143 SWAP8 SWAP7 DUP7 MLOAD SWAP1 PUSH2 0x648 DUP3 PUSH2 0xA15 JUMP JUMPDEST CALLER DUP3 MSTORE DUP4 DUP3 ADD DUP14 DUP2 MSTORE DUP9 DUP4 ADD SWAP2 DUP14 DUP4 MSTORE DUP1 DUP11 PUSH1 0x60 DUP7 ADD SWAP10 DUP1 PUSH8 0xFFFFFFFFFFFFFFFF SWAP10 DUP11 TIMESTAMP AND DUP14 MSTORE PUSH1 0x80 DUP10 ADD SWAP12 DUP3 DUP14 MSTORE DUP3 MSTORE MSTORE KECCAK256 SWAP5 MLOAD AND SWAP1 PUSH12 0xFFFFFFFFFFFFFFFFFFFFFFFF PUSH1 0xA0 SHL SWAP2 DUP3 DUP7 SLOAD AND OR DUP6 SSTORE PUSH1 0x1 DUP6 ADD SWAP3 MLOAD AND SWAP1 DUP3 SLOAD AND OR SWAP1 SSTORE MLOAD PUSH1 0x2 DUP3 ADD SSTORE ADD SWAP3 MLOAD AND PUSH8 0xFFFFFFFFFFFFFFFF NOT DUP4 SLOAD AND OR DUP3 SSTORE MLOAD ISZERO ISZERO PUSH1 0xFF PUSH1 0x40 SHL DUP3 SLOAD SWAP2 ISZERO ISZERO PUSH1 0x40 SHL AND SWAP1 PUSH1 0xFF PUSH1 0x40 SHL NOT AND OR SWAP1 SSTORE JUMP JUMPDEST CALLER DUP8 MSTORE PUSH1 0x1 DUP3 MSTORE PUSH2 0x6F0 DUP5 DUP3 DUP10 KECCAK256 PUSH2 0xA69 JUMP JUMPDEST MLOAD SWAP4 DUP5 MSTORE CALLER SWAP4 LOG4 PUSH1 0x1 PUSH1 0x0 DUP1 MLOAD PUSH1 0x20 PUSH2 0xC97 DUP4 CODECOPY DUP2 MLOAD SWAP2 MSTORE SSTORE DUP1 RETURN JUMPDEST PUSH4 0x5274AFE7 PUSH1 0xE0 SHL DUP3 MSTORE DUP2 ADD DUP8 SWAP1 MSTORE PUSH1 0x24 SWAP1 REVERT JUMPDEST PUSH1 0x1 DUP2 ISZERO AND PUSH2 0x736 JUMPI DUP9 EXTCODESIZE ISZERO ISZERO RETURNDATASIZE ISZERO AND AND PUSH2 0x602 JUMP JUMPDEST DUP3 RETURNDATASIZE DUP12 DUP3 RETURNDATACOPY RETURNDATASIZE SWAP1 REVERT JUMPDEST DUP2 MLOAD PUSH3 0x461BCD PUSH1 0xE5 SHL DUP2 MSTORE PUSH1 0x20 DUP2 DUP6 ADD MSTORE PUSH1 0x1C PUSH1 0x24 DUP3 ADD MSTORE PUSH32 0x4F726168444558457363726F773A20696E76616C696420746F6B656E00000000 PUSH1 0x44 DUP3 ADD MSTORE PUSH1 0x64 SWAP1 REVERT JUMPDEST SWAP1 PUSH1 0x20 PUSH1 0x64 SWAP3 MLOAD SWAP2 PUSH3 0x461BCD PUSH1 0xE5 SHL DUP4 MSTORE DUP3 ADD MSTORE PUSH1 0x1A PUSH1 0x24 DUP3 ADD MSTORE PUSH32 0x4F726168444558457363726F773A207A65726F20616D6F756E74000000000000 PUSH1 0x44 DUP3 ADD MSTORE REVERT JUMPDEST POP SWAP1 CALLVALUE PUSH2 0x1F1 JUMPI PUSH1 0x20 CALLDATASIZE PUSH1 0x3 NOT ADD SLT PUSH2 0x1F1 JUMPI DUP2 PUSH1 0xA0 SWAP4 PUSH1 0xFF SWAP3 CALLDATALOAD DUP2 MSTORE DUP1 PUSH1 0x20 MSTORE KECCAK256 PUSH1 0x1 DUP1 DUP6 SHL SUB SWAP3 DUP4 DUP3 SLOAD AND SWAP4 PUSH1 0x1 DUP4 ADD SLOAD AND SWAP2 PUSH1 0x3 PUSH1 0x2 DUP3 ADD SLOAD SWAP2 ADD SLOAD SWAP3 DUP3 MLOAD SWAP6 DUP7 MSTORE PUSH1 0x20 DUP7 ADD MSTORE DUP2 DUP6 ADD MSTORE PUSH8 0xFFFFFFFFFFFFFFFF DUP3 AND PUSH1 0x60 DUP6 ADD MSTORE SHR AND ISZERO ISZERO PUSH1 0x80 DUP3 ADD MSTORE RETURN JUMPDEST POP SWAP1 CALLVALUE PUSH2 0x1F1 JUMPI DUP2 PUSH1 0x3 NOT CALLDATASIZE ADD SLT PUSH2 0x1F1 JUMPI DUP1 CALLDATALOAD SWAP1 PUSH2 0x84B PUSH2 0x96A JUMP JUMPDEST PUSH2 0x853 PUSH2 0xA9E JUMP JUMPDEST PUSH1 0x1 PUSH1 0x1 PUSH1 0xA0 SHL SUB SWAP2 PUSH32 0x0 DUP4 AND CALLER SUB PUSH2 0x927 JUMPI POP SWAP1 PUSH32 0xD858D688B73AA3C93226E18A62FF4CA8C7597C7576628C54170311D9B00AC48B SWAP2 DUP4 DUP7 MSTORE DUP6 PUSH1 0x20 MSTORE PUSH2 0x16B DUP6 DUP8 KECCAK256 SWAP6 PUSH2 0x8C5 DUP5 DUP9 SLOAD AND ISZERO ISZERO PUSH2 0xACE JUMP JUMPDEST PUSH1 0x3 DUP8 ADD PUSH1 0x1 PUSH1 0x40 SHL DUP2 SLOAD PUSH2 0x8DF PUSH1 0xFF DUP3 DUP7 SHR AND ISZERO PUSH2 0xB1A JUMP JUMPDEST PUSH1 0xFF PUSH1 0x40 SHL NOT AND OR SWAP1 SSTORE DUP4 PUSH1 0x1 DUP9 ADD PUSH2 0x903 PUSH1 0x2 DUP4 DUP4 SLOAD AND SWAP11 ADD SWAP10 DUP7 DUP12 SLOAD SWAP2 PUSH2 0xB66 JUMP JUMPDEST SLOAD SWAP8 SLOAD SWAP2 MLOAD SWAP8 AND PUSH1 0x1 PUSH1 0x1 PUSH1 0xA0 SHL SUB AND DUP8 MSTORE PUSH1 0x20 DUP8 ADD MSTORE SWAP2 AND SWAP4 SWAP1 DUP2 SWAP1 PUSH1 0x40 DUP3 ADD SWAP1 JUMP JUMPDEST PUSH1 0x64 SWAP1 PUSH1 0x20 DUP7 MLOAD SWAP2 PUSH3 0x461BCD PUSH1 0xE5 SHL DUP4 MSTORE DUP3 ADD MSTORE PUSH1 0x1A PUSH1 0x24 DUP3 ADD MSTORE PUSH32 0x4F726168444558457363726F773A206E6F742072656C61796572000000000000 PUSH1 0x44 DUP3 ADD MSTORE REVERT JUMPDEST PUSH1 0x24 CALLDATALOAD SWAP1 PUSH1 0x1 PUSH1 0x1 PUSH1 0xA0 SHL SUB DUP3 AND DUP3 SUB PUSH2 0x980 JUMPI JUMP JUMPDEST PUSH1 0x0 DUP1 REVERT JUMPDEST PUSH1 0x4 CALLDATALOAD SWAP1 PUSH1 0x1 PUSH1 0x1 PUSH1 0xA0 SHL SUB DUP3 AND DUP3 SUB PUSH2 0x980 JUMPI JUMP JUMPDEST DUP1 SLOAD DUP3 LT ISZERO PUSH2 0x9B3 JUMPI PUSH1 0x0 MSTORE PUSH1 0x20 PUSH1 0x0 KECCAK256 ADD SWAP1 PUSH1 0x0 SWAP1 JUMP JUMPDEST PUSH4 0x4E487B71 PUSH1 0xE0 SHL PUSH1 0x0 MSTORE PUSH1 0x32 PUSH1 0x4 MSTORE PUSH1 0x24 PUSH1 0x0 REVERT JUMPDEST ISZERO PUSH2 0x9D0 JUMPI JUMP JUMPDEST PUSH1 0x40 MLOAD PUSH3 0x461BCD PUSH1 0xE5 SHL DUP2 MSTORE PUSH1 0x20 PUSH1 0x4 DUP3 ADD MSTORE PUSH1 0x1D PUSH1 0x24 DUP3 ADD MSTORE PUSH32 0x4F726168444558457363726F773A20616C7265616479206C6F636B6564000000 PUSH1 0x44 DUP3 ADD MSTORE PUSH1 0x64 SWAP1 REVERT JUMPDEST PUSH1 0xA0 DUP2 ADD SWAP1 DUP2 LT PUSH8 0xFFFFFFFFFFFFFFFF DUP3 GT OR PUSH2 0xA31 JUMPI PUSH1 0x40 MSTORE JUMP JUMPDEST PUSH4 0x4E487B71 PUSH1 0xE0 SHL PUSH1 0x0 MSTORE PUSH1 0x41 PUSH1 0x4 MSTORE PUSH1 0x24 PUSH1 0x0 REVERT JUMPDEST SWAP1 PUSH1 0x1F DUP1 NOT SWAP2 ADD AND DUP2 ADD SWAP1 DUP2 LT PUSH8 0xFFFFFFFFFFFFFFFF DUP3 GT OR PUSH2 0xA31 JUMPI PUSH1 0x40 MSTORE JUMP JUMPDEST DUP1 SLOAD PUSH1 0x1 PUSH1 0x40 SHL DUP2 LT ISZERO PUSH2 0xA31 JUMPI PUSH2 0xA86 SWAP2 PUSH1 0x1 DUP3 ADD DUP2 SSTORE PUSH2 0x99B JUMP JUMPDEST DUP2 SWAP3 SWAP2 SLOAD SWAP1 PUSH1 0x3 SHL SWAP2 DUP3 SHL SWAP2 PUSH1 0x0 NOT SWAP1 SHL NOT AND OR SWAP1 SSTORE JUMP JUMPDEST PUSH1 0x0 DUP1 MLOAD PUSH1 0x20 PUSH2 0xC97 DUP4 CODECOPY DUP2 MLOAD SWAP2 MSTORE PUSH1 0x2 DUP2 SLOAD EQ PUSH2 0xABC JUMPI PUSH1 0x2 SWAP1 SSTORE JUMP JUMPDEST PUSH1 0x40 MLOAD PUSH4 0x3EE5AEB5 PUSH1 0xE0 SHL DUP2 MSTORE PUSH1 0x4 SWAP1 REVERT JUMPDEST ISZERO PUSH2 0xAD5 JUMPI JUMP JUMPDEST PUSH1 0x40 MLOAD PUSH3 0x461BCD PUSH1 0xE5 SHL DUP2 MSTORE PUSH1 0x20 PUSH1 0x4 DUP3 ADD MSTORE PUSH1 0x19 PUSH1 0x24 DUP3 ADD MSTORE PUSH32 0x4F726168444558457363726F773A206E6F206465706F73697400000000000000 PUSH1 0x44 DUP3 ADD MSTORE PUSH1 0x64 SWAP1 REVERT JUMPDEST ISZERO PUSH2 0xB21 JUMPI JUMP JUMPDEST PUSH1 0x40 MLOAD PUSH3 0x461BCD PUSH1 0xE5 SHL DUP2 MSTORE PUSH1 0x20 PUSH1 0x4 DUP3 ADD MSTORE PUSH1 0x1E PUSH1 0x24 DUP3 ADD MSTORE PUSH32 0x4F726168444558457363726F773A20616C726561647920736574746C65640000 PUSH1 0x44 DUP3 ADD MSTORE PUSH1 0x64 SWAP1 REVERT JUMPDEST PUSH1 0x1 PUSH1 0x1 PUSH1 0xA0 SHL SUB SWAP1 DUP2 AND SWAP1 DUP2 PUSH2 0xC22 JUMPI POP POP PUSH1 0x0 DUP1 DUP1 DUP1 SWAP5 DUP2 SWAP5 GAS CALL SWAP1 RETURNDATASIZE ISZERO PUSH2 0xC1C JUMPI RETURNDATASIZE SWAP1 PUSH8 0xFFFFFFFFFFFFFFFF DUP3 GT PUSH2 0xC08 JUMPI PUSH1 0x40 MLOAD SWAP2 PUSH2 0xBB3 PUSH1 0x1F DUP3 ADD PUSH1 0x1F NOT AND PUSH1 0x20 ADD DUP5 PUSH2 0xA47 JUMP JUMPDEST DUP3 MSTORE PUSH1 0x20 RETURNDATASIZE SWAP3 ADD RETURNDATACOPY JUMPDEST ISZERO PUSH2 0xBC3 JUMPI JUMP JUMPDEST PUSH1 0x40 MLOAD PUSH3 0x461BCD PUSH1 0xE5 SHL DUP2 MSTORE PUSH1 0x20 PUSH1 0x4 DUP3 ADD MSTORE PUSH1 0x1E PUSH1 0x24 DUP3 ADD MSTORE PUSH32 0x4F726168444558457363726F773A204554482073656E64206661696C65640000 PUSH1 0x44 DUP3 ADD MSTORE PUSH1 0x64 SWAP1 REVERT JUMPDEST PUSH4 0x4E487B71 PUSH1 0xE0 SHL DUP2 MSTORE PUSH1 0x41 PUSH1 0x4 MSTORE PUSH1 0x24 SWAP1 REVERT JUMPDEST POP PUSH2 0xBBC JUMP JUMPDEST PUSH1 0x20 SWAP2 SWAP3 SWAP4 PUSH1 0x0 SWAP2 PUSH1 0x40 MLOAD SWAP6 PUSH4 0xA9059CBB PUSH1 0xE0 SHL DUP5 MSTORE AND PUSH1 0x4 MSTORE PUSH1 0x24 MSTORE PUSH1 0x44 DUP2 DUP1 DUP6 GAS CALL PUSH1 0x1 PUSH1 0x0 MLOAD EQ DUP2 AND ISZERO PUSH2 0xC76 JUMPI JUMPDEST DUP3 PUSH1 0x40 MSTORE ISZERO PUSH2 0xC61 JUMPI POP POP JUMP JUMPDEST PUSH4 0x5274AFE7 PUSH1 0xE0 SHL DUP3 MSTORE PUSH1 0x4 DUP3 ADD MSTORE PUSH1 0x24 SWAP2 POP REVERT JUMPDEST PUSH1 0x1 DUP2 ISZERO AND PUSH2 0xC8C JUMPI DUP2 EXTCODESIZE ISZERO ISZERO RETURNDATASIZE ISZERO AND AND PUSH2 0xC54 JUMP JUMPDEST DUP3 RETURNDATASIZE PUSH1 0x0 DUP3 RETURNDATACOPY RETURNDATASIZE SWAP1 REVERT INVALID SWAP12 PUSH24 0x9B17422D0DF92223018B32B4D1FA46E071723D6817E2486D STOP EXTCODESIZE 0xEC 0xC5 PUSH0 STOP LOG2 PUSH5 0x6970667358 0x22 SLT KECCAK256 BLOCKHASH 0xB0 GASPRICE MUL CALLER 0xFB 0x5D 0xA9 0x1E 0x5E 0xFB BYTE PUSH10 0xBF8BC26528EEE69F13E3 ADDMOD RETURN 0xE 0x4C PUSH4 0xD657F05D PUSH5 0x736F6C6343 STOP ADDMOD EQ STOP CALLER "},"methodIdentifiers":{"cancel(bytes32)":"c4d252f5","depositorOrders(address,uint256)":"618c509f","deposits(bytes32)":"3d4dff7b","getDeposit(bytes32)":"7a86983f","getDepositorOrders(address)":"7fdf71bf","lockERC20(bytes32,address,uint256)":"53ecf12a","lockETH(bytes32)":"77ffd451","relayer()":"8406c079","release(bytes32,address)":"1bbdcfd3"}}}}}