{
  "_format": "hh-sol-artifact-1",
  "contractName": "OrahDEXEscrow",
  "sourceName": "contracts/OrahDEXEscrow.sol",
  "abi": [
    {
      "inputs": [
        {
          "internalType": "address",
          "name": "_relayer",
          "type": "address"
        }
      ],
      "stateMutability": "nonpayable",
      "type": "constructor"
    },
    {
      "inputs": [],
      "name": "ReentrancyGuardReentrantCall",
      "type": "error"
    },
    {
      "inputs": [
        {
          "internalType": "address",
          "name": "token",
          "type": "address"
        }
      ],
      "name": "SafeERC20FailedOperation",
      "type": "error"
    },
    {
      "anonymous": false,
      "inputs": [
        {
          "indexed": true,
          "internalType": "bytes32",
          "name": "orderId",
          "type": "bytes32"
        },
        {
          "indexed": true,
          "internalType": "address",
          "name": "depositor",
          "type": "address"
        },
        {
          "indexed": false,
          "internalType": "address",
          "name": "token",
          "type": "address"
        },
        {
          "indexed": false,
          "internalType": "uint256",
          "name": "amount",
          "type": "uint256"
        }
      ],
      "name": "OrderCancelled",
      "type": "event"
    },
    {
      "anonymous": false,
      "inputs": [
        {
          "indexed": true,
          "internalType": "bytes32",
          "name": "orderId",
          "type": "bytes32"
        },
        {
          "indexed": true,
          "internalType": "address",
          "name": "depositor",
          "type": "address"
        },
        {
          "indexed": true,
          "internalType": "address",
          "name": "token",
          "type": "address"
        },
        {
          "indexed": false,
          "internalType": "uint256",
          "name": "amount",
          "type": "uint256"
        }
      ],
      "name": "OrderLocked",
      "type": "event"
    },
    {
      "anonymous": false,
      "inputs": [
        {
          "indexed": true,
          "internalType": "bytes32",
          "name": "orderId",
          "type": "bytes32"
        },
        {
          "indexed": true,
          "internalType": "address",
          "name": "recipient",
          "type": "address"
        },
        {
          "indexed": false,
          "internalType": "address",
          "name": "token",
          "type": "address"
        },
        {
          "indexed": false,
          "internalType": "uint256",
          "name": "amount",
          "type": "uint256"
        }
      ],
      "name": "OrderReleased",
      "type": "event"
    },
    {
      "inputs": [
        {
          "internalType": "bytes32",
          "name": "orderId",
          "type": "bytes32"
        }
      ],
      "name": "cancel",
      "outputs": [],
      "stateMutability": "nonpayable",
      "type": "function"
    },
    {
      "inputs": [
        {
          "internalType": "address",
          "name": "",
          "type": "address"
        },
        {
          "internalType": "uint256",
          "name": "",
          "type": "uint256"
        }
      ],
      "name": "depositorOrders",
      "outputs": [
        {
          "internalType": "bytes32",
          "name": "",
          "type": "bytes32"
        }
      ],
      "stateMutability": "view",
      "type": "function"
    },
    {
      "inputs": [
        {
          "internalType": "bytes32",
          "name": "",
          "type": "bytes32"
        }
      ],
      "name": "deposits",
      "outputs": [
        {
          "internalType": "address",
          "name": "depositor",
          "type": "address"
        },
        {
          "internalType": "address",
          "name": "token",
          "type": "address"
        },
        {
          "internalType": "uint256",
          "name": "amount",
          "type": "uint256"
        },
        {
          "internalType": "uint64",
          "name": "lockedAt",
          "type": "uint64"
        },
        {
          "internalType": "bool",
          "name": "released",
          "type": "bool"
        }
      ],
      "stateMutability": "view",
      "type": "function"
    },
    {
      "inputs": [
        {
          "internalType": "bytes32",
          "name": "orderId",
          "type": "bytes32"
        }
      ],
      "name": "getDeposit",
      "outputs": [
        {
          "components": [
            {
              "internalType": "address",
              "name": "depositor",
              "type": "address"
            },
            {
              "internalType": "address",
              "name": "token",
              "type": "address"
            },
            {
              "internalType": "uint256",
              "name": "amount",
              "type": "uint256"
            },
            {
              "internalType": "uint64",
              "name": "lockedAt",
              "type": "uint64"
            },
            {
              "internalType": "bool",
              "name": "released",
              "type": "bool"
            }
          ],
          "internalType": "struct OrahDEXEscrow.Deposit",
          "name": "",
          "type": "tuple"
        }
      ],
      "stateMutability": "view",
      "type": "function"
    },
    {
      "inputs": [
        {
          "internalType": "address",
          "name": "depositor",
          "type": "address"
        }
      ],
      "name": "getDepositorOrders",
      "outputs": [
        {
          "internalType": "bytes32[]",
          "name": "",
          "type": "bytes32[]"
        }
      ],
      "stateMutability": "view",
      "type": "function"
    },
    {
      "inputs": [
        {
          "internalType": "bytes32",
          "name": "orderId",
          "type": "bytes32"
        },
        {
          "internalType": "address",
          "name": "token",
          "type": "address"
        },
        {
          "internalType": "uint256",
          "name": "amount",
          "type": "uint256"
        }
      ],
      "name": "lockERC20",
      "outputs": [],
      "stateMutability": "nonpayable",
      "type": "function"
    },
    {
      "inputs": [
        {
          "internalType": "bytes32",
          "name": "orderId",
          "type": "bytes32"
        }
      ],
      "name": "lockETH",
      "outputs": [],
      "stateMutability": "payable",
      "type": "function"
    },
    {
      "inputs": [],
      "name": "relayer",
      "outputs": [
        {
          "internalType": "address",
          "name": "",
          "type": "address"
        }
      ],
      "stateMutability": "view",
      "type": "function"
    },
    {
      "inputs": [
        {
          "internalType": "bytes32",
          "name": "orderId",
          "type": "bytes32"
        },
        {
          "internalType": "address",
          "name": "recipient",
          "type": "address"
        }
      ],
      "name": "release",
      "outputs": [],
      "stateMutability": "nonpayable",
      "type": "function"
    },
    {
      "stateMutability": "payable",
      "type": "receive"
    }
  ],
  "bytecode": "0x60a0346100e757601f610def38819003918201601f19168301916001600160401b038311848410176100ec578084926020946040528339810103126100e757516001600160a01b0381168082036100e75760017f9b779b17422d0df92223018b32b4d1fa46e071723d6817e2486d003becc55f0055156100a257608052604051610cec908161010382396080518181816101ca0152818161020a015261085e0152f35b60405162461bcd60e51b815260206004820152601b60248201527f4f726168444558457363726f773a207a65726f2072656c6179657200000000006044820152606490fd5b600080fd5b634e487b7160e01b600052604160045260246000fdfe60406080815260048036101561001f575b5050361561001d57600080fd5b005b600091823560e01c80631bbdcfd31461082e5780633d4dff7b146107c557806353ecf12a1461057a578063618c509f1461052157806377ffd451146103a35780637a86983f146102e25780637fdf71bf1461023d5780638406c079146101f55763c4d252f51461008f5750610010565b346101f15760203660031901126101f1578135906100ab610a9e565b818452602084905280842080546001600160a01b03908116946100cf861515610ace565b60038301908154906100e660ff83881c1615610b1a565b87331480156101c6575b1561018357509161016b91600160401b7f5f46c4ce46da7d829236b80ea83db87bd8709fb1cef773930d1f56b25df7518a96959460ff60401b19161790556001830161014760028383541695019489865491610b66565b549254935192166001600160a01b0316825260208201929092529081906040820190565b0390a36001600080516020610c978339815191525580f35b606490602087519162461bcd60e51b8352820152601d60248201527f4f726168444558457363726f773a206e6f7420617574686f72697a65640000006044820152fd5b50837f00000000000000000000000000000000000000000000000000000000000000001633146100f0565b8280fd5b838234610239578160031936011261023957517f00000000000000000000000000000000000000000000000000000000000000006001600160a01b03168152602090f35b5080fd5b838234610239576020806003193601126101f157916001600160a01b03610262610985565b16815260019081845282812093835190818187549182815201908197855282852090855b8181106102cf575050508261029c910383610a47565b8451948186019282875251809352850195925b8281106102bc5785870386f35b83518752958101959281019284016102af565b8254845292840192918701918701610286565b5090346101f15760203660031901126101f15782829160a0946080845161030881610a15565b828152826020820152828682015282606082015201523581528060205220815161033181610a15565b600180851b039182815416938483528360018301541691602084019283526003600282015491838601928352015494606085019360ff608067ffffffffffffffff97888a1688520197851c16151587528351978852511660208701525190850152511660608301525115156080820152f35b509190602090816003193601126101f1578035906103bf610a9e565b34156104de57507f043ab3c8d864bae5ef4cb6250fe663aee57932253ddbc775d1a7334252c7714383948285528484526104ae858486600360018060a01b0361040d818887205416156109c9565b86519061041982610a15565b33825283820186815288830191348352808a60608601998067ffffffffffffffff998a42168d52608089019b828d5282525220945116906bffffffffffffffffffffffff60a01b918286541617855560018501925116908254161790555160028201550192511667ffffffffffffffff1983541617825551151560ff60401b825491151560401b169060ff60401b1916179055565b338552600184526104c183828720610a69565b51923484523393a46001600080516020610c978339815191525580f35b845162461bcd60e51b8152908101839052601760248201527f4f726168444558457363726f773a207a65726f204554480000000000000000006044820152606490fd5b83823461023957806003193601126102395761053b610985565b6001600160a01b0316825260016020528082208054602435939084101561057757506020926105699161099b565b91905490519160031b1c8152f35b80fd5b50346101f15760603660031901126101f157813561059661096a565b92604435926105a3610a9e565b8315610782576001600160a01b0394851694851561073f578387526020928784526105d382848a205416156109c9565b82516323b872dd60e01b8952338252306024526044879052908489606481808c5af160018a5114811615610720575b828552896060521561070c575050906106dd87858560037f043ab3c8d864bae5ef4cb6250fe663aee57932253ddbc775d1a7334252c77143979686519061064882610a15565b3382528382018d8152888301918d8352808a60608601998067ffffffffffffffff998a42168d52608089019b828d5282525220945116906bffffffffffffffffffffffff60a01b918286541617855560018501925116908254161790555160028201550192511667ffffffffffffffff1983541617825551151560ff60401b825491151560401b169060ff60401b1916179055565b338752600182526106f084828920610a69565b519384523393a46001600080516020610c978339815191525580f35b635274afe760e01b82528101879052602490fd5b600181151661073657883b15153d151616610602565b823d8b823e3d90fd5b815162461bcd60e51b8152602081850152601c60248201527f4f726168444558457363726f773a20696e76616c696420746f6b656e000000006044820152606490fd5b906020606492519162461bcd60e51b8352820152601a60248201527f4f726168444558457363726f773a207a65726f20616d6f756e740000000000006044820152fd5b5090346101f15760203660031901126101f1578160a09360ff923581528060205220600180851b03928382541693600183015416916003600282015491015492825195865260208601528185015267ffffffffffffffff821660608501521c1615156080820152f35b5090346101f157816003193601126101f15780359061084b61096a565b610853610a9e565b6001600160a01b03917f0000000000000000000000000000000000000000000000000000000000000000831633036109275750907fd858d688b73aa3c93226e18a62ff4ca8c7597c7576628c54170311d9b00ac48b918386528560205261016b858720956108c5848854161515610ace565b60038701600160401b81546108df60ff82861c1615610b1a565b60ff60401b191617905583600188016109036002838354169a0199868b5491610b66565b549754915197166001600160a01b0316875260208701529116939081906040820190565b606490602086519162461bcd60e51b8352820152601a60248201527f4f726168444558457363726f773a206e6f742072656c617965720000000000006044820152fd5b602435906001600160a01b038216820361098057565b600080fd5b600435906001600160a01b038216820361098057565b80548210156109b35760005260206000200190600090565b634e487b7160e01b600052603260045260246000fd5b156109d057565b60405162461bcd60e51b815260206004820152601d60248201527f4f726168444558457363726f773a20616c7265616479206c6f636b65640000006044820152606490fd5b60a0810190811067ffffffffffffffff821117610a3157604052565b634e487b7160e01b600052604160045260246000fd5b90601f8019910116810190811067ffffffffffffffff821117610a3157604052565b8054600160401b811015610a3157610a869160018201815561099b565b819291549060031b91821b91600019901b1916179055565b600080516020610c978339815191526002815414610abc5760029055565b604051633ee5aeb560e01b8152600490fd5b15610ad557565b60405162461bcd60e51b815260206004820152601960248201527f4f726168444558457363726f773a206e6f206465706f736974000000000000006044820152606490fd5b15610b2157565b60405162461bcd60e51b815260206004820152601e60248201527f4f726168444558457363726f773a20616c726561647920736574746c656400006044820152606490fd5b6001600160a01b039081169081610c2257505060008080809481945af1903d15610c1c573d9067ffffffffffffffff8211610c085760405191610bb3601f8201601f191660200184610a47565b825260203d92013e5b15610bc357565b60405162461bcd60e51b815260206004820152601e60248201527f4f726168444558457363726f773a204554482073656e64206661696c656400006044820152606490fd5b634e487b7160e01b81526041600452602490fd5b50610bbc565b60209192936000916040519563a9059cbb60e01b84521660045260245260448180855af1600160005114811615610c76575b8260405215610c61575050565b635274afe760e01b8252600482015260249150fd5b6001811516610c8c57813b15153d151616610c54565b823d6000823e3d90fdfe9b779b17422d0df92223018b32b4d1fa46e071723d6817e2486d003becc55f00a264697066735822122040b03a0233fb5da91e5efb1a69bf8bc26528eee69f13e308f30e4c63d657f05d64736f6c63430008140033",
  "linkReferences": {},
  "deployedLinkReferences": {}
}