{
  "_format": "hh-sol-artifact-1",
  "contractName": "OrahRouter02",
  "sourceName": "contracts/OrahRouter02.sol",
  "abi": [
    {
      "inputs": [
        {
          "internalType": "address",
          "name": "_factory",
          "type": "address"
        },
        {
          "internalType": "address",
          "name": "_weth",
          "type": "address"
        }
      ],
      "stateMutability": "nonpayable",
      "type": "constructor"
    },
    {
      "inputs": [
        {
          "internalType": "address",
          "name": "token",
          "type": "address"
        }
      ],
      "name": "SafeERC20FailedOperation",
      "type": "error"
    },
    {
      "inputs": [],
      "name": "WETH",
      "outputs": [
        {
          "internalType": "address",
          "name": "",
          "type": "address"
        }
      ],
      "stateMutability": "view",
      "type": "function"
    },
    {
      "inputs": [
        {
          "internalType": "address",
          "name": "tokenA",
          "type": "address"
        },
        {
          "internalType": "address",
          "name": "tokenB",
          "type": "address"
        },
        {
          "internalType": "uint256",
          "name": "amountADesired",
          "type": "uint256"
        },
        {
          "internalType": "uint256",
          "name": "amountBDesired",
          "type": "uint256"
        },
        {
          "internalType": "uint256",
          "name": "amountAMin",
          "type": "uint256"
        },
        {
          "internalType": "uint256",
          "name": "amountBMin",
          "type": "uint256"
        },
        {
          "internalType": "address",
          "name": "to",
          "type": "address"
        },
        {
          "internalType": "uint256",
          "name": "deadline",
          "type": "uint256"
        }
      ],
      "name": "addLiquidity",
      "outputs": [
        {
          "internalType": "uint256",
          "name": "amountA",
          "type": "uint256"
        },
        {
          "internalType": "uint256",
          "name": "amountB",
          "type": "uint256"
        },
        {
          "internalType": "uint256",
          "name": "liquidity",
          "type": "uint256"
        }
      ],
      "stateMutability": "nonpayable",
      "type": "function"
    },
    {
      "inputs": [
        {
          "internalType": "address",
          "name": "token",
          "type": "address"
        },
        {
          "internalType": "uint256",
          "name": "amountTokenDesired",
          "type": "uint256"
        },
        {
          "internalType": "uint256",
          "name": "amountTokenMin",
          "type": "uint256"
        },
        {
          "internalType": "uint256",
          "name": "amountETHMin",
          "type": "uint256"
        },
        {
          "internalType": "address",
          "name": "to",
          "type": "address"
        },
        {
          "internalType": "uint256",
          "name": "deadline",
          "type": "uint256"
        }
      ],
      "name": "addLiquidityETH",
      "outputs": [
        {
          "internalType": "uint256",
          "name": "amountToken",
          "type": "uint256"
        },
        {
          "internalType": "uint256",
          "name": "amountETH",
          "type": "uint256"
        },
        {
          "internalType": "uint256",
          "name": "liquidity",
          "type": "uint256"
        }
      ],
      "stateMutability": "payable",
      "type": "function"
    },
    {
      "inputs": [],
      "name": "factory",
      "outputs": [
        {
          "internalType": "address",
          "name": "",
          "type": "address"
        }
      ],
      "stateMutability": "view",
      "type": "function"
    },
    {
      "inputs": [
        {
          "internalType": "uint256",
          "name": "amountOut",
          "type": "uint256"
        },
        {
          "internalType": "uint256",
          "name": "reserveIn",
          "type": "uint256"
        },
        {
          "internalType": "uint256",
          "name": "reserveOut",
          "type": "uint256"
        }
      ],
      "name": "getAmountIn",
      "outputs": [
        {
          "internalType": "uint256",
          "name": "",
          "type": "uint256"
        }
      ],
      "stateMutability": "pure",
      "type": "function"
    },
    {
      "inputs": [
        {
          "internalType": "uint256",
          "name": "amountIn",
          "type": "uint256"
        },
        {
          "internalType": "uint256",
          "name": "reserveIn",
          "type": "uint256"
        },
        {
          "internalType": "uint256",
          "name": "reserveOut",
          "type": "uint256"
        }
      ],
      "name": "getAmountOut",
      "outputs": [
        {
          "internalType": "uint256",
          "name": "",
          "type": "uint256"
        }
      ],
      "stateMutability": "pure",
      "type": "function"
    },
    {
      "inputs": [
        {
          "internalType": "uint256",
          "name": "amountOut",
          "type": "uint256"
        },
        {
          "internalType": "address[]",
          "name": "path",
          "type": "address[]"
        }
      ],
      "name": "getAmountsIn",
      "outputs": [
        {
          "internalType": "uint256[]",
          "name": "amounts",
          "type": "uint256[]"
        }
      ],
      "stateMutability": "view",
      "type": "function"
    },
    {
      "inputs": [
        {
          "internalType": "uint256",
          "name": "amountIn",
          "type": "uint256"
        },
        {
          "internalType": "address[]",
          "name": "path",
          "type": "address[]"
        }
      ],
      "name": "getAmountsOut",
      "outputs": [
        {
          "internalType": "uint256[]",
          "name": "amounts",
          "type": "uint256[]"
        }
      ],
      "stateMutability": "view",
      "type": "function"
    },
    {
      "inputs": [
        {
          "internalType": "uint256",
          "name": "amountA",
          "type": "uint256"
        },
        {
          "internalType": "uint256",
          "name": "reserveA",
          "type": "uint256"
        },
        {
          "internalType": "uint256",
          "name": "reserveB",
          "type": "uint256"
        }
      ],
      "name": "quote",
      "outputs": [
        {
          "internalType": "uint256",
          "name": "",
          "type": "uint256"
        }
      ],
      "stateMutability": "pure",
      "type": "function"
    },
    {
      "inputs": [
        {
          "internalType": "address",
          "name": "tokenA",
          "type": "address"
        },
        {
          "internalType": "address",
          "name": "tokenB",
          "type": "address"
        },
        {
          "internalType": "uint256",
          "name": "liquidity",
          "type": "uint256"
        },
        {
          "internalType": "uint256",
          "name": "amountAMin",
          "type": "uint256"
        },
        {
          "internalType": "uint256",
          "name": "amountBMin",
          "type": "uint256"
        },
        {
          "internalType": "address",
          "name": "to",
          "type": "address"
        },
        {
          "internalType": "uint256",
          "name": "deadline",
          "type": "uint256"
        }
      ],
      "name": "removeLiquidity",
      "outputs": [
        {
          "internalType": "uint256",
          "name": "amountA",
          "type": "uint256"
        },
        {
          "internalType": "uint256",
          "name": "amountB",
          "type": "uint256"
        }
      ],
      "stateMutability": "nonpayable",
      "type": "function"
    },
    {
      "inputs": [
        {
          "internalType": "address",
          "name": "token",
          "type": "address"
        },
        {
          "internalType": "uint256",
          "name": "liquidity",
          "type": "uint256"
        },
        {
          "internalType": "uint256",
          "name": "amountTokenMin",
          "type": "uint256"
        },
        {
          "internalType": "uint256",
          "name": "amountETHMin",
          "type": "uint256"
        },
        {
          "internalType": "address",
          "name": "to",
          "type": "address"
        },
        {
          "internalType": "uint256",
          "name": "deadline",
          "type": "uint256"
        }
      ],
      "name": "removeLiquidityETH",
      "outputs": [
        {
          "internalType": "uint256",
          "name": "amountToken",
          "type": "uint256"
        },
        {
          "internalType": "uint256",
          "name": "amountETH",
          "type": "uint256"
        }
      ],
      "stateMutability": "nonpayable",
      "type": "function"
    },
    {
      "inputs": [
        {
          "internalType": "uint256",
          "name": "amountOutMin",
          "type": "uint256"
        },
        {
          "internalType": "address[]",
          "name": "path",
          "type": "address[]"
        },
        {
          "internalType": "address",
          "name": "to",
          "type": "address"
        },
        {
          "internalType": "uint256",
          "name": "deadline",
          "type": "uint256"
        }
      ],
      "name": "swapExactETHForTokens",
      "outputs": [
        {
          "internalType": "uint256[]",
          "name": "amounts",
          "type": "uint256[]"
        }
      ],
      "stateMutability": "payable",
      "type": "function"
    },
    {
      "inputs": [
        {
          "internalType": "uint256",
          "name": "amountIn",
          "type": "uint256"
        },
        {
          "internalType": "uint256",
          "name": "amountOutMin",
          "type": "uint256"
        },
        {
          "internalType": "address[]",
          "name": "path",
          "type": "address[]"
        },
        {
          "internalType": "address",
          "name": "to",
          "type": "address"
        },
        {
          "internalType": "uint256",
          "name": "deadline",
          "type": "uint256"
        }
      ],
      "name": "swapExactTokensForETH",
      "outputs": [
        {
          "internalType": "uint256[]",
          "name": "amounts",
          "type": "uint256[]"
        }
      ],
      "stateMutability": "nonpayable",
      "type": "function"
    },
    {
      "inputs": [
        {
          "internalType": "uint256",
          "name": "amountIn",
          "type": "uint256"
        },
        {
          "internalType": "uint256",
          "name": "amountOutMin",
          "type": "uint256"
        },
        {
          "internalType": "address[]",
          "name": "path",
          "type": "address[]"
        },
        {
          "internalType": "address",
          "name": "to",
          "type": "address"
        },
        {
          "internalType": "uint256",
          "name": "deadline",
          "type": "uint256"
        }
      ],
      "name": "swapExactTokensForTokens",
      "outputs": [
        {
          "internalType": "uint256[]",
          "name": "amounts",
          "type": "uint256[]"
        }
      ],
      "stateMutability": "nonpayable",
      "type": "function"
    },
    {
      "stateMutability": "payable",
      "type": "receive"
    }
  ],
  "bytecode": "0x60c034620000b357601f62001eed38819003918201601f19168301916001600160401b03831184841017620000b8578084926040948552833981010312620000b3576200005a60206200005283620000ce565b9201620000ce565b9060805260a052604051611e099081620000e4823960805181818161056b0152818161133d0152611489015260a051818181602401528181610121015281816106fc015281816107ae01528181610c200152610e5e0152f35b600080fd5b634e487b7160e01b600052604160045260246000fd5b51906001600160a01b0382168203620000b35756fe60406080815260049081361015610054575b5050361561001e57600080fd5b610052337f00000000000000000000000000000000000000000000000000000000000000006001600160a01b0316146111b6565b005b600091823560e01c806302751cec14610e32578063054d50d414610e1657806318cbafe514610bcf5780631f00ca7414610aee57806338ed1739146109b95780637ff36ab51461074757806385f8c2591461072b578063ad5c4648146106e7578063ad615dec146106c4578063baa2abde1461059e578063c45a015514610556578063d06ca61f14610472578063e8e33700146103575763f305d719146100fb5750610011565b61011f9161014a9161010c3661106d565b99949793999890989291924211156111d3565b7f00000000000000000000000000000000000000000000000000000000000000009834908a8961145c565b969095610157828761130d565b956001600160a01b03928391610174908a908a9033908616611261565b16803b15610349578551630d0e30db60e41b8152848187818d865af1801561034d579186918996959493610328575b50875163a9059cbb60e01b81526001600160a01b0390961691860191825260208281018c905295918691839182908890829060400103925af190811561031e57916101fa60249287959487916102f1575b506111b6565b848389519a8b9586946335313c2160e11b8652168a850152165af19485156102e55781956102b1575b5086341161024d575b505090519283525060208201929092526040810191909152606090f35b0390f35b80808061025a8a346117e0565b335af16102656117ed565b5015610271578061022c565b606492519162461bcd60e51b8352820152601d60248201527f4f726168526f757465723a204554485f524546554e445f4641494c45440000006044820152fd5b9094508181813d83116102de575b6102c9818361123f565b810103126102d957519338610223565b600080fd5b503d6102bf565b508351903d90823e3d90fd5b6103119150863d8811610317575b610309818361123f565b8101906117c8565b386101f4565b503d6102ff565b87513d86823e3d90fd5b859650610339919394959250611215565b61034957908487949392386101a3565b8380fd5b87513d87823e3d90fd5b50903461046e5761010036600319011261046e5761037361102d565b9261037c611043565b6001600160a01b039390929060c435858116908190036102d9576024602092856103f0986103ae4260e43510156111d3565b6103c660a4356084358d606435908d6044359161145c565b8c8b6103e7839f859f959e6103da9161130d565b9d8e809488339116611261565b84339116611261565b865198899586946335313c2160e11b8652850152165af1918215610463579161042e575b519283526020830193909352506040810191909152606090f35b90506020823d821161045b575b816104486020938361123f565b810103126102d957610249915190610414565b3d915061043b565b9051903d90823e3d90fd5b8280fd5b5091346105535761048236611182565b6104926002829594951015611879565b61049b816118dd565b936104a58561190f565b52825b600019820182811161054057811015610533576104ce6104c9828486611955565b611965565b6001820190818311610520579061051561050e6104fd61051b95946104f76104c9868a8c611955565b906115e1565b90610508868c611932565b51611979565b9188611932565b52611946565b6104a8565b634e487b7160e01b865260118952602486fd5b8551806102498782611147565b634e487b7160e01b855260118852602485fd5b80fd5b50503461059a578160031936011261059a57517f00000000000000000000000000000000000000000000000000000000000000006001600160a01b03168152602090f35b5080fd5b5082903461059a5760e036600319011261059a576105ba61102d565b916105c3611043565b906001600160a01b039060a435828116908190036102d95786906105eb4260c43510156111d3565b60246105f7868961130d565b9661060a8689169860443590338b611261565b848451988994859363226bf2d160e21b85528401525af19485156106b85781948296610681575b50808316938084168510156106795750905b50160361067457905b61065a6064358310156113b0565b610668608435821015611406565b82519182526020820152f35b61064c565b905090610643565b87809297508196503d83116106b1575b61069b818361123f565b8101031261055357602084519401519487610631565b503d610691565b508551903d90823e3d90fd5b50503461059a576020906106e06106da366110ad565b91611750565b9051908152f35b50503461059a578160031936011261059a57517f00000000000000000000000000000000000000000000000000000000000000006001600160a01b03168152602090f35b50503461059a576020906106e0610741366110ad565b91611a85565b5090608036600319011261046e5760243567ffffffffffffffff81116103495761077490369084016110c7565b6001600160a01b039360443592919085841684036102d95761079a4260643510156111d3565b81156109a6576107d86107ac84611965565b7f0000000000000000000000000000000000000000000000000000000000000000881697168714611879565b845163d06ca61f60e01b8152958787806107f6868834888501611b74565b0381305afa96871561099c578897610978575b508651600019810190811161096557610830906108288435918a611932565b511015611a2a565b8761083a8861190f565b51823b1561059a57818491895192838092630d0e30db60e41b8252875af1801561095b57610943575b505061086e84611965565b836001101561093057916020916108936108cf9461088d858901611965565b9061130d565b8a61089d8b61190f565b518a5163a9059cbb60e01b81526001600160a01b03909316948301948552602085015290948593849291839160400190565b03925af190811561092657916108f76109049594926108fe946102499a9161090e57506111b6565b3691611bc8565b84611c1e565b5191829182611147565b610311915060203d811161031757610309818361123f565b85513d89823e3d90fd5b634e487b7160e01b895260328352602489fd5b61094c90611215565b610957578738610863565b8780fd5b88513d84823e3d90fd5b634e487b7160e01b895260118352602489fd5b6109959197503d808a833e61098d818361123f565b810190611afa565b9538610809565b86513d8a823e3d90fd5b634e487b7160e01b875260329052602486fd5b50903461046e57826109e292936109cf366110f8565b98839997949396929591974211156111d3565b896109ff868a519b8c94859463d06ca61f60e01b86528501611b74565b0381305afa968715610ae4578297610ac8575b5086516000198101908111610ab55790610828610a2f9289611932565b8115610aa2576001600160a01b03610a4684611965565b1690610a5184611965565b908360011015610a8f576102498888610904896108fe8a8a6108f78b610a7d8c61088d60208701611965565b610a868a61190f565b51913390611261565b634e487b7160e01b815260328952602490fd5b634e487b7160e01b815260328752602490fd5b634e487b7160e01b835260118952602483fd5b610add9197503d8084833e61098d818361123f565b9538610a12565b86513d84823e3d90fd5b5091903461059a57610aff36611182565b93909194610b106002861015611879565b610b19856118dd565b9485519660001997888101908111610bbc57610b359088611932565b52868101818111610ba957805b610b53578551806102498982611147565b878101818111610bbc57610b9a610b93610b82610b746104c985888c611955565b6104f76104c987898d611955565b90610b8d868d611932565b51611a85565b9189611932565b528015610ba957870180610b42565b634e487b7160e01b845260118352602484fd5b634e487b7160e01b855260118452602485fd5b50903461046e57610bf29192610be4366110f8565b9790949192974211156111d3565b60001992828401838111610e035791889187610c166104c98796610c4e9887611955565b6001600160a01b037f000000000000000000000000000000000000000000000000000000000000000081169790949185168814611879565b8c610c6b878d519e8f94859463d06ca61f60e01b86528501611b74565b0381305afa998a15610df957889a610ddd575b508951868101908111610dca5790610828610c99928c611932565b8215610db757610ca882611965565b16610cb282611965565b8360011015610da45791610ce0610ce992610cd7610cef969561088d60208601611965565b610a868d61190f565b30923691611bc8565b88611c1e565b855182810190811161054057610d059087611932565b51813b15610da05784916024839288519485938492632e1a7d4d60e01b84528d8401525af18015610d9657908491610d82575b50508451908101908111610d6f5761024995509180808093610d5d6109049689611932565b51905af1610d696117ed565b5061182d565b634e487b7160e01b835260118652602483fd5b610d8b90611215565b61046e578238610d38565b85513d86823e3d90fd5b8480fd5b634e487b7160e01b885260328b52602488fd5b634e487b7160e01b875260328a52602487fd5b634e487b7160e01b895260118c52602489fd5b610df2919a503d808a833e61098d818361123f565b9838610c7e565b89513d8a823e3d90fd5b634e487b7160e01b875260118a52602487fd5b50503461059a576020906106e0610e2c366110ad565b91611979565b5082903461059a5781610e443661106d565b969296949391909442111590610e59826111d3565b610e837f0000000000000000000000000000000000000000000000000000000000000000926111d3565b89610e8e838761130d565b6001600160a01b039481861691610ea791903384611261565b60248251809c819363226bf2d160e21b8352308a8401525af1988915611023578790889a610fe9575b50838084169681811694888610600014610fe257505b168303610fd35790610f00610f08929a995b8b10156113b0565b881015611406565b885163a9059cbb60e01b87529185168352602488905260208660448180855af16001875114811615610fb4575b828a5215610fa2575050813b15610349578460248592838a519586948593632e1a7d4d60e01b85528401525af18015610f98579161066893918593610f85575b5081809381925af1610d696117ed565b610f9190929192611215565b9087610f75565b86513d85823e3d90fd5b602492635274afe760e01b8352820152fd5b6001811516610fca57813b15153d151616610f35565b823d88823e3d90fd5b97610f089190610f0090610ef8565b9050610ee6565b809a508b8092503d831161101c575b611002818361123f565b810103126110185760208951990151988b610ed0565b8680fd5b503d610ff8565b8a513d89823e3d90fd5b600435906001600160a01b03821682036102d957565b602435906001600160a01b03821682036102d957565b35906001600160a01b03821682036102d957565b60c09060031901126102d9576001600160a01b0360043581811681036102d9579160243591604435916064359160843590811681036102d9579060a43590565b60609060031901126102d957600435906024359060443590565b9181601f840112156102d95782359167ffffffffffffffff83116102d9576020808501948460051b0101116102d957565b60a06003198201126102d95760043591602435916044359067ffffffffffffffff82116102d95761112b916004016110c7565b90916064356001600160a01b03811681036102d9579060843590565b6020908160408183019282815285518094520193019160005b82811061116e575050505090565b835185529381019392810192600101611160565b9060406003198301126102d957600435916024359067ffffffffffffffff82116102d9576111b2916004016110c7565b9091565b156111bd57565b634e487b7160e01b600052600160045260246000fd5b156111da57565b60405162461bcd60e51b815260206004820152601360248201527213dc985a149bdd5d195c8e8811561412549151606a1b6044820152606490fd5b67ffffffffffffffff811161122957604052565b634e487b7160e01b600052604160045260246000fd5b90601f8019910116810190811067ffffffffffffffff82111761122957604052565b6040516323b872dd60e01b60009081526001600160a01b03938416600452938316602452604494909452909160209060648180855af16001600051148116156112ce575b836040526000606052156112b857505050565b635274afe760e01b835216600482015260249150fd5b60018115166112e457813b15153d1516166112a5565b833d6000823e3d90fd5b908160209103126102d957516001600160a01b03811681036102d95790565b60405163e6a4390560e01b81526001600160a01b03918216600482015291166024820152602081806044810103817f00000000000000000000000000000000000000000000000000000000000000006001600160a01b03165afa9081156113a457600091611379575090565b61139a915060203d811161139d575b611392818361123f565b8101906112ee565b90565b503d611388565b6040513d6000823e3d90fd5b156113b757565b60405162461bcd60e51b815260206004820152602160248201527f4f726168526f757465723a20494e53554646494349454e545f415f414d4f554e6044820152601560fa1b6064820152608490fd5b1561140d57565b60405162461bcd60e51b815260206004820152602160248201527f4f726168526f757465723a20494e53554646494349454e545f425f414d4f554e6044820152601560fa1b6064820152608490fd5b60405163e6a4390560e01b81526001600160a01b03828116600483015283811660248301529396949594937f00000000000000000000000000000000000000000000000000000000000000008116939291602091908281604481895afa9081156113a4576000916115b0575b501615611549575b506114db92506115e1565b9290801580611541575b156114f257505050509091565b61150184828897959697611750565b9483861161151957505050506111b290821015611406565b8395506111b2945090611530916115399394611750565b948511156111b6565b8310156113b0565b5083156114e5565b6040516364e329cb60e11b81526001600160a01b03838116600483015284166024820152938190859060449082906000905af19384156113a4576114db94611592575b506114d0565b816115a892903d1061139d57611392818361123f565b50388061158c565b6115c79150833d851161139d57611392818361123f565b386114c8565b51906001600160701b03821682036102d957565b906004906001600160a01b0380841691606090829061160a908281168610156116a9578761130d565b1660405194858092630240bc6b60e21b82525afa9384156113a457600093849561164d575b50160361164857905b6001600160701b03809116911691565b611638565b939094506060843d82116116a1575b816116696060938361123f565b810103126105535761167a846115cd565b906040611689602087016115cd565b95015163ffffffff811603610553575092933861162f565b3d915061165c565b809761130d565b156116b757565b60405162461bcd60e51b815260206004820152602260248201527f4f726168526f757465723a20494e53554646494349454e545f4c495155494449604482015261545960f01b6064820152608490fd5b8181029291811591840414171561171a57565b634e487b7160e01b600052601160045260246000fd5b811561173a570490565b634e487b7160e01b600052601260045260246000fd5b80156117835761139a92611775918315158061177a575b611770906116b0565b611707565b611730565b50811515611767565b60405162461bcd60e51b815260206004820152601f60248201527f4f726168526f757465723a20494e53554646494349454e545f414d4f554e54006044820152606490fd5b908160209103126102d9575180151581036102d95790565b9190820391821161171a57565b3d15611828573d9067ffffffffffffffff8211611229576040519161181c601f8201601f19166020018461123f565b82523d6000602084013e565b606090565b1561183457565b60405162461bcd60e51b815260206004820152601f60248201527f4f726168526f757465723a204554485f5452414e534645525f4641494c4544006044820152606490fd5b1561188057565b60405162461bcd60e51b815260206004820152601860248201527f4f726168526f757465723a20494e56414c49445f5041544800000000000000006044820152606490fd5b67ffffffffffffffff81116112295760051b60200190565b906118e7826118c5565b6118f4604051918261123f565b8281528092611905601f19916118c5565b0190602036910137565b80511561191c5760200190565b634e487b7160e01b600052603260045260246000fd5b805182101561191c5760209160051b010190565b600019811461171a5760010190565b919081101561191c5760051b0190565b356001600160a01b03811681036102d95790565b80156119d7578115928315806119ce575b611993906116b0565b6103e58083029283040361171a576119ab9082611707565b926103e880840293840414171561171a57810180911161171a5761139a91611730565b5080151561198a565b60405162461bcd60e51b815260206004820152602560248201527f4f726168526f757465723a20494e53554646494349454e545f494e5055545f416044820152641353d5539560da1b6064820152608490fd5b15611a3157565b60405162461bcd60e51b815260206004820152602660248201527f4f726168526f757465723a20494e53554646494349454e545f4f55545055545f604482015265105353d5539560d21b6064820152608490fd5b919082611aa891611a97821515611a2a565b80151580611af157611770906116b0565b916103e89283810293818504149015171561171a57611ac6916117e0565b6103e59081810291818304149015171561171a57611ae391611730565b6001810180911161171a5790565b50831515611767565b60209081818403126102d95780519067ffffffffffffffff82116102d957019180601f840112156102d9578251611b30816118c5565b93611b3e604051958661123f565b818552838086019260051b8201019283116102d9578301905b828210611b65575050505090565b81518152908301908301611b57565b6060909391929360408101938152826020946040868401525201929160005b828110611ba1575050505090565b909192938280600192838060a01b03611bb989611059565b16815201950193929101611b93565b9291611bd3826118c5565b91611be1604051938461123f565b829481845260208094019160051b81019283116102d957905b828210611c075750505050565b838091611c1384611059565b815201910190611bfa565b90929160005b8451600019810190811161171a57811015611dcc576001600160a01b0380611c4c8388611932565b511690600183019182841161171a5781611c66848a611932565b51169081811015611dc15782611c7e82955b89611932565b5194168103611db957600093915b8951600119810190811161171a578490871015611dad57506002860180871161171a578491611cca83611cc2611cd0948f611932565b51168261130d565b9361130d565b169160409384519260209283850185811067ffffffffffffffff82111761122957875260008552853b156102d957865163022c0d9f60e01b8152600481019890985260248801521660448601526080606486015281516084860181905291928592909160005b828110611d96575050600080945083918260a49183838284010152601f801991011681010301925af1908115611d8c575090611d789291611d7d575b50611946565b611c24565b611d8690611215565b38611d72565b513d6000823e3d90fd5b80860182015188820160a401528794508101611d36565b90611cd090889361130d565b600091611c8c565b82611c7e8395611c78565b505050905056fea26469706673582212206a1ac066cb094301385fe31104d2931cfe38ac6d8db065518fe809772519d2e064736f6c63430008140033",
  "linkReferences": {},
  "deployedLinkReferences": {}
}