{
  "_format": "hh-sol-artifact-1",
  "contractName": "OrahDEXFactory",
  "sourceName": "contracts/OrahDEXFactory.sol",
  "abi": [
    {
      "inputs": [
        {
          "internalType": "address",
          "name": "_feeToSetter",
          "type": "address"
        }
      ],
      "stateMutability": "nonpayable",
      "type": "constructor"
    },
    {
      "anonymous": false,
      "inputs": [
        {
          "indexed": true,
          "internalType": "address",
          "name": "token0",
          "type": "address"
        },
        {
          "indexed": true,
          "internalType": "address",
          "name": "token1",
          "type": "address"
        },
        {
          "indexed": false,
          "internalType": "address",
          "name": "pair",
          "type": "address"
        },
        {
          "indexed": false,
          "internalType": "uint256",
          "name": "pairIndex",
          "type": "uint256"
        }
      ],
      "name": "PairCreated",
      "type": "event"
    },
    {
      "inputs": [
        {
          "internalType": "uint256",
          "name": "",
          "type": "uint256"
        }
      ],
      "name": "allPairs",
      "outputs": [
        {
          "internalType": "address",
          "name": "",
          "type": "address"
        }
      ],
      "stateMutability": "view",
      "type": "function"
    },
    {
      "inputs": [],
      "name": "allPairsLength",
      "outputs": [
        {
          "internalType": "uint256",
          "name": "",
          "type": "uint256"
        }
      ],
      "stateMutability": "view",
      "type": "function"
    },
    {
      "inputs": [
        {
          "internalType": "address",
          "name": "tokenA",
          "type": "address"
        },
        {
          "internalType": "address",
          "name": "tokenB",
          "type": "address"
        }
      ],
      "name": "createPair",
      "outputs": [
        {
          "internalType": "address",
          "name": "pair",
          "type": "address"
        }
      ],
      "stateMutability": "nonpayable",
      "type": "function"
    },
    {
      "inputs": [],
      "name": "feeTo",
      "outputs": [
        {
          "internalType": "address",
          "name": "",
          "type": "address"
        }
      ],
      "stateMutability": "view",
      "type": "function"
    },
    {
      "inputs": [],
      "name": "feeToSetter",
      "outputs": [
        {
          "internalType": "address",
          "name": "",
          "type": "address"
        }
      ],
      "stateMutability": "view",
      "type": "function"
    },
    {
      "inputs": [
        {
          "internalType": "address",
          "name": "",
          "type": "address"
        },
        {
          "internalType": "address",
          "name": "",
          "type": "address"
        }
      ],
      "name": "getPair",
      "outputs": [
        {
          "internalType": "address",
          "name": "",
          "type": "address"
        }
      ],
      "stateMutability": "view",
      "type": "function"
    },
    {
      "inputs": [
        {
          "internalType": "address",
          "name": "tokenA",
          "type": "address"
        },
        {
          "internalType": "address",
          "name": "tokenB",
          "type": "address"
        }
      ],
      "name": "pairFor",
      "outputs": [
        {
          "internalType": "address",
          "name": "",
          "type": "address"
        }
      ],
      "stateMutability": "view",
      "type": "function"
    },
    {
      "inputs": [
        {
          "internalType": "address",
          "name": "_feeTo",
          "type": "address"
        }
      ],
      "name": "setFeeTo",
      "outputs": [],
      "stateMutability": "nonpayable",
      "type": "function"
    },
    {
      "inputs": [
        {
          "internalType": "address",
          "name": "_feeToSetter",
          "type": "address"
        }
      ],
      "name": "setFeeToSetter",
      "outputs": [],
      "stateMutability": "nonpayable",
      "type": "function"
    }
  ],
  "bytecode": "0x60803461007457601f61273738819003918201601f19168301916001600160401b038311848410176100795780849260209460405283398101031261007457516001600160a01b0381169081900361007457600180546001600160a01b0319169190911790556040516126a790816100908239f35b600080fd5b634e487b7160e01b600052604160045260246000fdfe608060405260043610156200001357600080fd5b6000803560e01c908163017e7e5814620000bc57508063094b741514620000b65780631e3dd18b14620000b0578063574f2ba314620000aa57806396ed28f914620000a4578063a2e74af6146200009e578063c9c653961462000098578063e6a4390514620000925763f46901ed146200008c57600080fd5b6200063f565b620005e0565b62000371565b62000324565b620001cd565b6200017f565b62000121565b620000f6565b34620000e25780600319360112620000e257546001600160a01b03166080908152602090f35b80fd5b6000910312620000f157565b600080fd5b34620000f1576000366003190112620000f1576001546040516001600160a01b039091168152602090f35b34620000f1576020366003190112620000f157600435600354811015620000f15760036000527fc2575a0e9e593c00f959f8c92f12db2869c3395a3b0502d05e2516446f71f85b01546040516001600160a01b039091168152602090f35b34620000f1576000366003190112620000f1576020600354604051908152f35b600435906001600160a01b0382168203620000f157565b602435906001600160a01b0382168203620000f157565b34620000f1576040366003190112620000f1576200031a62000300620002f462000257620002d8620002e5620002026200019f565b6200020c620001b6565b906001600160a01b0380831690821610156200031e57905b604051948591602083019384906028926bffffffffffffffffffffffff19809260601b16835260601b1660148201520190565b03936200026d601f1995868101835282620007ad565b51902092611dbc6200028260208201620007d0565b8181526020810191620008b683395190206040516001600160f81b0319602082019081523060601b6bffffffffffffffffffffffff19166021830152603582019690965260558101919091529283906075820190565b03908101835282620007ad565b5190206001600160a01b031690565b6001600160a01b031690565b6040516001600160a01b0390911681529081906020820190565b0390f35b62000224565b34620000f1576020366003190112620000f157620003416200019f565b600154906001600160a01b03906200035d33838516146200086f565b6001600160a01b0319909216911617600155005b34620000f1576040366003190112620000f1576200038e6200019f565b62000398620001b6565b6001600160a01b0391818316818416620003b58183141562000696565b1015620005da57905b828216620003ce811515620006e2565b6200042762000420620002f46200041385620003fc8860018060a01b03166000526002602052604060002090565b9060018060a01b0316600052602052604060002090565b546001600160a01b031690565b156200072f565b611dbc6200043860208201620007d0565b908082526020820190620008b68239604051606086811b6bffffffffffffffffffffffff19908116602084019081529187901b166034830152602882529062000483604882620007ad565b5190209151906000f59284841694853b15620000f15760405163485cc95560e01b81526001600160a01b03838116600483015285166024820152956000908790604490829084905af1918215620005d457856200053362000570926200031a997f0d3648bd0f6ba80134a33ba9275ac585d9d315f0ad8355cddefde31afa28d0e996620005b6575b506200055283620005338a620003fc8560018060a01b03166000526002602052604060002090565b80546001600160a01b0319166001600160a01b03909216919091179055565b6001600160a01b0388166000908152600260205260409020620003fc565b6200057b85620007ee565b600354604080516001600160a01b038816815260208101929092529190941693a36040516001600160a01b0390911681529081906020820190565b80620005c6620005cd9262000792565b80620000e5565b386200050b565b620007e2565b620003be565b34620000f1576040366003190112620000f1576020620005ff6200019f565b620006356200060d620001b6565b6001600160a01b03928316600090815260028552604080822092851682526020929092522090565b5416604051908152f35b34620000f1576020366003190112620000f1576200065c6200019f565b6001546001600160a01b0391906200067890831633146200086f565b166bffffffffffffffffffffffff60a01b6000541617600055600080f35b156200069e57565b606460405162461bcd60e51b815260206004820152602060248201527f4f726168466163746f72793a204944454e544943414c5f4144445245535345536044820152fd5b15620006ea57565b60405162461bcd60e51b815260206004820152601960248201527f4f726168466163746f72793a205a45524f5f41444452455353000000000000006044820152606490fd5b156200073757565b60405162461bcd60e51b815260206004820152601860248201527f4f726168466163746f72793a20504149525f45584953545300000000000000006044820152606490fd5b634e487b7160e01b600052604160045260246000fd5b67ffffffffffffffff8111620007a757604052565b6200077c565b90601f8019910116810190811067ffffffffffffffff821117620007a757604052565b90620007e06040519283620007ad565b565b6040513d6000823e3d90fd5b60035468010000000000000000811015620007a7576001810180600355811015620008595760036000527fc2575a0e9e593c00f959f8c92f12db2869c3395a3b0502d05e2516446f71f85b0180546001600160a01b0319166001600160a01b03909216919091179055565b634e487b7160e01b600052603260045260246000fd5b156200087757565b60405162461bcd60e51b815260206004820152601660248201527527b930b42330b1ba37b93c9d102327a92124a22222a760511b6044820152606490fdfe60803462000361576001600160401b03906040908082018381118282101762000261578252601081526020926f27b930b42222ac102628102a37b5b2b760811b848301528251908382018281108282111762000261578452600782526604f5241482d4c560cc1b85830152825181811162000261576003908154906001958683811c9316801562000356575b8984101462000340578190601f93848111620002ea575b508990848311600114620002835760009262000277575b505060001982851b1c191690861b1782555b835192831162000261576004938454978689811c9916801562000256575b818a101462000241578883869798999a11620001e5575b50809285116001146200017757506000936200016b575b505082851b92600019911b1c19161790555b7f9b779b17422d0df92223018b32b4d1fa46e071723d6817e2486d003becc55f0055600580546001600160a01b0319163317905551611a559081620003678239f35b01519150388062000117565b929190879550601f1985168760005284600020946000905b828210620001cb5750508511620001b0575b50505050811b01905562000129565b01519060f884600019921b161c1916905538808080620001a1565b8484015187558a989096019593840193908101906200018f565b90919293945086600052816000208480880160051c82019284891062000237575b918a91899897969594930160051c01915b8281106200022757505062000100565b600081558897508a910162000217565b9250819262000206565b602286634e487b7160e01b6000525260246000fd5b98607f1698620000e9565b634e487b7160e01b600052604160045260246000fd5b015190503880620000b9565b90889350601f19831691866000528b6000209260005b8d828210620002d35750508411620002ba575b505050811b018255620000cb565b015160001983871b60f8161c19169055388080620002ac565b8385015186558c9790950194938401930162000299565b90915084600052896000208480850160051c8201928c861062000336575b918a91869594930160051c01915b82811062000326575050620000a2565b600081558594508a910162000316565b9250819262000308565b634e487b7160e01b600052602260045260246000fd5b92607f16926200008b565b600080fdfe6080604052600436101561001257600080fd5b60003560e01c8063022c0d9f14610f7457806303fd2a4514610f5757806306fdde0314610eb35780630902f1ac14610e5a578063095ea7b314610dd45780630dfe168114610dab57806318160ddd14610d8d57806323b872dd14610c9b578063313ce56714610c7f578063485cc95514610be35780636a627842146107e057806370a08231146107a657806389afcb44146103dd57806395d89b4114610399578063a9059cbb14610368578063ba9a7a561461034b578063c45a015514610322578063d21220a7146102f9578063dd62ed3e146102a85763fff6cae9146100f857600080fd5b3461025f57600036600319011261025f57610111611715565b6006546040516370a0823160e01b808252306004830152916020916001600160a01b039183908290602490829086165afa91821561026b578391600093610277575b50600754169360246040518096819382523060048301525afa92831561026b57600093610237575b506001600160701b0390818111158061022d575b156101f3579181600080516020611a00833981519152949260409416928363ffffffff60e01b4260e01b16916001600160701b0360701b9060701b16171780600855845193845260701c1690820152a160016000805160206119e083398151915255005b60405162461bcd60e51b81526004810184905260126024820152714f726168506169723a204f564552464c4f5760701b6044820152606490fd5b508184111561018f565b9092508181813d8311610264575b61024f81836116b3565b8101031261025f5751913861017b565b600080fd5b503d610245565b6040513d6000823e3d90fd5b8281939294503d83116102a1575b61028f81836116b3565b8101031261025f578290519138610153565b503d610285565b3461025f57604036600319011261025f576102c161152d565b6102c9611543565b9060018060a01b038091166000526001602052604060002091166000526020526020604060002054604051908152f35b3461025f57600036600319011261025f576007546040516001600160a01b039091168152602090f35b3461025f57600036600319011261025f576005546040516001600160a01b039091168152602090f35b3461025f57600036600319011261025f5760206040516103e88152f35b3461025f57604036600319011261025f5761038e61038461152d565b60243590336115a8565b602060405160018152f35b3461025f57600036600319011261025f576103d96040516103b981611681565b600781526604f5241482d4c560cc1b60208201526040519182918261157c565b0390f35b3461025f5760208060031936011261025f576103f761152d565b90610400611715565b60018060a01b03806006541691816007541693604051926370a0823160e01b95868552306004860152602496848689818a5afa95861561026b57600096610777575b506040519681885230600489015285888a81865afa97881561026b57600098610748575b50306000526000865261049a61048e61048e6104936040600020549a6002549384918d6116e2565b6116f5565b9a8a6116e2565b968815158061073f575b156106eb5730156106d35730600052600087526040600020548181106106ab579160008289938d9530845283865203604083205580600254036002556040519081526000805160206119c0833981519152843092a36105048a8883611745565b61050f898887611745565b604051928380928682523060048301525afa91821561026b57869160009361067a575b50896040518095819382523060048301525afa91821561026b5760009261064b575b506001600160701b03908181111580610641575b15610608576040985091818992600080516020611a008339815191529416918263ffffffff60e01b4260e01b16916001600160701b0360701b9060701b16171780600855835192835260701c1686820152a1855191858352848484015216907fdccd412f0b1252819cb1fd330b93224ca42612892bb3f4f789976e6d81936496863392a360016000805160206119e0833981519152558351928352820152f35b60405162461bcd60e51b8152600481018790526012818b0152714f726168506169723a204f564552464c4f5760701b6044820152606490fd5b5081831115610568565b9091508481813d8311610673575b61066381836116b3565b8101031261025f57519088610554565b503d610659565b8281939294503d83116106a4575b61069281836116b3565b8101031261025f57859051918a610532565b503d610688565b60405163391434e360e21b815230600482015260248101919091526044810191909152606490fd5b604051634b637e8f60e11b8152600060048201528a90fd5b60405162461bcd60e51b8152600481018890526027818c01527f4f726168506169723a20494e53554646494349454e545f4c495155494449545960448201526617d0955493915160ca1b6064820152608490fd5b508715156104a4565b9097508581813d8311610770575b61076081836116b3565b8101031261025f57519689610466565b503d610756565b9095508481813d831161079f575b61078f81836116b3565b8101031261025f57519488610442565b503d610785565b3461025f57602036600319011261025f576001600160a01b036107c761152d565b1660005260006020526020604060002054604051908152f35b3461025f5760208060031936011261025f576107fa61152d565b610802611715565b6108216008546001600160701b0391828216928260701c169160e01c90565b50909160018060a01b03928360065416906040518087816370a0823160e01b9586825230600483015260249384915afa91821561026b57600092610bb4575b5087876007541694826040518097819382523060048301525afa93841561026b57600094610b85575b506001600160701b0380931696836108a189856116d5565b9716956108ae87876116d5565b96600254998a15600014610b505750506108c887896116e2565b60006003821115610b4257508060019080821c828101809111610b2d5791905b838310610b0d575050505b6103e7198101908111610af857986103e890818101809111610ae35760025560006000805160206119c08339815191528c61dead9384845283825260408420818154019055604051908152a35b8815610a8f57168015610a785761095988600254611674565b6002558060005260008952604060002088815401905560006000805160206119c08339815191528a6040518b8152a38282111580610a6e575b15610a365750607092831b6dffffffffffffffffffffffffffff60701b169082169081174260e01b6001600160e01b03191617600881905560408051928352931c90911686820152600080516020611a008339815191529190a1604051918252838201527f4c209b5fc8ad50758f13e2e1088ba56a560dff690a1c6fef26394f4c03821c4f60403392a260016000805160206119e083398151915255604051908152f35b8760126064926040519262461bcd60e51b84526004840152820152714f726168506169723a204f564552464c4f5760701b6044820152fd5b5082841115610992565b5060405163ec442f0560e01b815260006004820152fd5b60405162461bcd60e51b8152600481018b90526027818501527f4f726168506169723a20494e53554646494349454e545f4c495155494449545960448201526617d3525395115160ca1b6064820152608490fd5b84634e487b7160e01b60005260116004526000fd5b83634e487b7160e01b60005260116004526000fd5b90919250610b2483610b1f81846116f5565b611674565b821c91906108e8565b86634e487b7160e01b60005260116004526000fd5b90156108f3575060016108f3565b9061048e610b67610b6e9361048e8e969e8e6116e2565b938a6116e2565b80821015610b7e57505b97610940565b9050610b78565b9093508781813d8311610bad575b610b9d81836116b3565b8101031261025f57519288610889565b503d610b93565b9091508781813d8311610bdc575b610bcc81836116b3565b8101031261025f57519088610860565b503d610bc2565b3461025f57604036600319011261025f57610bfc61152d565b610c04611543565b6005546001600160a01b03919082163303610c4457816bffffffffffffffffffffffff60a01b931683600654161760065516906007541617600755600080f35b60405162461bcd60e51b815260206004820152601360248201527227b930b42830b4b91d102327a92124a22222a760691b6044820152606490fd5b3461025f57600036600319011261025f57602060405160128152f35b3461025f57606036600319011261025f57610cb461152d565b610cbc611543565b6001600160a01b03821660008181526001602090815260408083203384529091529020549260443592916000198510610cfb575b5061038e93506115a8565b838510610d67578015610d4e573315610d355761038e94849160005260016020526040600020336000526020520360406000205584610cf0565b604051634a1406b160e11b815260006004820152602490fd5b60405163e602df0560e01b815260006004820152602490fd5b604051637dc7a0d960e11b81523360048201526024810186905260448101859052606490fd5b3461025f57600036600319011261025f576020600254604051908152f35b3461025f57600036600319011261025f576006546040516001600160a01b039091168152602090f35b3461025f57604036600319011261025f57610ded61152d565b602435903315610d4e576001600160a01b0316908115610d3557336000526001602052604060002082600052602052806040600020556040519081527f8c5be1e5ebec7d5bd14f71427d1e84f3dd0314c0f7b2291e5b200ac8c7c3b92560203392a3602060405160018152f35b3461025f57600036600319011261025f57606063ffffffff610e916008546001600160701b0391828216928260701c169160e01c90565b909291604051936001600160701b038092168552166020840152166040820152f35b3461025f57600036600319011261025f576103d960018060a01b03610f4b602d610eed610ee384600654166117c6565b93600754166117c6565b926040519384916b027b930b42222ac1026281d160a51b6020840152610f1d815180926020602c87019101611559565b8201602f60f81b602c820152610f3c8251809360208785019101611559565b0103600d8101845201826116b3565b6040519182918261157c565b3461025f57600036600319011261025f57602060405161dead8152f35b3461025f57608036600319011261025f576001600160a01b036044358181169182820361025f5760643567ffffffffffffffff80821161025f573660238301121561025f57816004013590811161025f573691016024011161025f57610fd8611715565b600435159081158092611522575b156114d15761100a6008546001600160701b0391828216928260701c169160e01c90565b509390926001600160701b03841660043510806114bd575b1561147957826006541690818714158061146b575b1561142f5761141b575b50602435611403575b50806006541690604051906020826024816370a0823160e01b968782523060048301525afa91821561026b576000926113ce575b50602090600754169260246040518095819382523060048301525afa91821561026b5760009261139a575b506110bf6004356001600160701b0385166116d5565b811115611392576110e46110de6004356001600160701b0386166116d5565b826116d5565b935b6110fb6024356001600160701b0383166116d5565b83111561138a5761112061111a6024356001600160701b0384166116d5565b846116d5565b935b8515158615611381575b1561133057826103e88102046103e8148315171561131a57600386028681046003148715171561131a57611164906103e885026116d5565b906103e88502918583046103e8148615171561131a5760038702928784046003148815171561131a576111ad6001600160701b03926111a76111b69685946116d5565b906116e2565b941691166116e2565b906103e88202918083046103e8148115171561131a57620f424002918083046103e8149015171561131a57106112e7576001600160701b03811115806112d6575b1561129c57600080516020611a00833981519152916001600160701b038060409316918263ffffffff60e01b4260e01b16918360701b9060701b16171780600855835192835260701c166020820152a16040519182526020820152600435604082015260243560608201527fd78ad95fa46c994b6551d0da85fc275fe613ce37657fb8d5e3d130840159d82260803392a360016000805160206119e083398151915255005b60405162461bcd60e51b81526020600482015260126024820152714f726168506169723a204f564552464c4f5760701b6044820152606490fd5b506001600160701b038211156111f7565b60405162461bcd60e51b815260206004820152600b60248201526a4f726168506169723a204b60a81b6044820152606490fd5b634e487b7160e01b600052601160045260246000fd5b60405162461bcd60e51b815260206004820152602360248201527f4f726168506169723a20494e53554646494349454e545f494e5055545f414d4f60448201526215539560ea1b6064820152608490fd5b5084151561112c565b600093611122565b6000936110e6565b9091506020813d6020116113c6575b816113b6602093836116b3565b8101031261025f575190856110a9565b3d91506113a9565b9091506020813d6020116113fb575b816113ea602093836116b3565b8101031261025f575190602061107e565b3d91506113dd565b61141590602435908360075416611745565b8461104a565b611429908260043591611745565b85611041565b60405162461bcd60e51b81526020600482015260146024820152734f726168506169723a20494e56414c49445f544f60601b6044820152606490fd5b508360075416871415611037565b606460405162461bcd60e51b815260206004820152602060248201527f4f726168506169723a20494e53554646494349454e545f4c49515549444954596044820152fd5b506001600160701b03851660243510611022565b60405162461bcd60e51b8152602060048201526024808201527f4f726168506169723a20494e53554646494349454e545f4f55545055545f414d60448201526313d5539560e21b6064820152608490fd5b506024351515610fe6565b600435906001600160a01b038216820361025f57565b602435906001600160a01b038216820361025f57565b60005b83811061156c5750506000910152565b818101518382015260200161155c565b6040916020825261159c8151809281602086015260208686019101611559565b601f01601f1916010190565b916001600160a01b0380841692831561165b57169283156116425760009083825281602052604082205490838210611610575091604082826000805160206119c0833981519152958760209652828652038282205586815220818154019055604051908152a3565b60405163391434e360e21b81526001600160a01b03919091166004820152602481019190915260448101839052606490fd5b60405163ec442f0560e01b815260006004820152602490fd5b604051634b637e8f60e11b815260006004820152602490fd5b9190820180921161131a57565b6040810190811067ffffffffffffffff82111761169d57604052565b634e487b7160e01b600052604160045260246000fd5b90601f8019910116810190811067ffffffffffffffff82111761169d57604052565b9190820391821161131a57565b8181029291811591840414171561131a57565b81156116ff570490565b634e487b7160e01b600052601260045260246000fd5b6000805160206119e083398151915260028154146117335760029055565b604051633ee5aeb560e01b8152600490fd5b60405163a9059cbb60e01b60009081526001600160a01b039384166004526024949094529260209060448180855af16001600051148116156117a6575b836040521561179057505050565b635274afe760e01b835216600482015260249150fd5b60018115166117bc57813b15153d151616611782565b833d6000823e3d90fd5b60405160208101916bffffffffffffffffffffffff199060601b168252601481526117f081611681565b604051916117fd83611681565b600883526020830160203682378351156119a957603090538251600110156119a957607860218401538151156119a957805160fc1c91601091828410156119a9578451600210156119a9576f181899199a1a9b1b9c1cb0b131b232b360811b9384901a60228601538151156119a9575160f81c600f16828110156119a9578451600310156119a95783901a60238501538051600110156119a95760218101805160fc1c91838310156119a95785519160049283101561199457856024941a84880153815160011015611980575160f81c600f1684811015611980578651600510156119805785901a6025870153805160021015611958576022810190815160fc1c8581101561196c5787516006101561196c5786901a60268801535160021015611958575160f81c600f1692831015611945578451600710156119455750501a602782015390565b603290634e487b7160e01b600052526000fd5b50603290634e487b7160e01b600052526000fd5b84603285634e487b7160e01b600052526000fd5b83603284634e487b7160e01b600052526000fd5b603283634e487b7160e01b6000525260246000fd5b634e487b7160e01b600052603260045260246000fdfeddf252ad1be2c89b69c2b068fc378daa952ba7f163c4a11628f55a4df523b3ef9b779b17422d0df92223018b32b4d1fa46e071723d6817e2486d003becc55f001c411e9a96e071241c2f21f7726b17ae89e3cab4c78be50e062b03a9fffbbad1a26469706673582212207f9b30bf51459a4657a52d3cf151ca35b5004d34e19a0685fe7996fb52002ce464736f6c63430008140033a2646970667358221220d04190fbb530333ec1f0d3b2104e338e0b27e9e1dacd0a10779fbbb2f72dba0064736f6c63430008140033",
  "linkReferences": {},
  "deployedLinkReferences": {}
}